{
  "_format": "hh-sol-artifact-1",
  "contractName": "AuraBalRewardPool",
  "sourceName": "contracts/AuraBalRewardPool.sol",
  "abi": [
    {
      "inputs": [
        {
          "internalType": "address",
          "name": "_stakingToken",
          "type": "address"
        },
        {
          "internalType": "address",
          "name": "_rewardToken",
          "type": "address"
        },
        {
          "internalType": "address",
          "name": "_rewardManager",
          "type": "address"
        },
        {
          "internalType": "address",
          "name": "_auraLocker",
          "type": "address"
        },
        {
          "internalType": "address",
          "name": "_penaltyForwarder",
          "type": "address"
        },
        {
          "internalType": "uint256",
          "name": "_startDelay",
          "type": "uint256"
        }
      ],
      "stateMutability": "nonpayable",
      "type": "constructor"
    },
    {
      "anonymous": false,
      "inputs": [
        {
          "indexed": false,
          "internalType": "uint256",
          "name": "amount",
          "type": "uint256"
        }
      ],
      "name": "PenaltyForwarded",
      "type": "event"
    },
    {
      "anonymous": false,
      "inputs": [],
      "name": "Rescued",
      "type": "event"
    },
    {
      "anonymous": false,
      "inputs": [
        {
          "indexed": false,
          "internalType": "uint256",
          "name": "reward",
          "type": "uint256"
        }
      ],
      "name": "RewardAdded",
      "type": "event"
    },
    {
      "anonymous": false,
      "inputs": [
        {
          "indexed": true,
          "internalType": "address",
          "name": "user",
          "type": "address"
        },
        {
          "indexed": false,
          "internalType": "uint256",
          "name": "reward",
          "type": "uint256"
        },
        {
          "indexed": false,
          "internalType": "bool",
          "name": "locked",
          "type": "bool"
        }
      ],
      "name": "RewardPaid",
      "type": "event"
    },
    {
      "anonymous": false,
      "inputs": [
        {
          "indexed": true,
          "internalType": "address",
          "name": "user",
          "type": "address"
        },
        {
          "indexed": false,
          "internalType": "uint256",
          "name": "amount",
          "type": "uint256"
        }
      ],
      "name": "Staked",
      "type": "event"
    },
    {
      "anonymous": false,
      "inputs": [
        {
          "indexed": true,
          "internalType": "address",
          "name": "user",
          "type": "address"
        },
        {
          "indexed": false,
          "internalType": "uint256",
          "name": "amount",
          "type": "uint256"
        }
      ],
      "name": "Withdrawn",
      "type": "event"
    },
    {
      "inputs": [],
      "name": "auraLocker",
      "outputs": [
        {
          "internalType": "contract IAuraLocker",
          "name": "",
          "type": "address"
        }
      ],
      "stateMutability": "view",
      "type": "function"
    },
    {
      "inputs": [
        {
          "internalType": "address",
          "name": "account",
          "type": "address"
        }
      ],
      "name": "balanceOf",
      "outputs": [
        {
          "internalType": "uint256",
          "name": "",
          "type": "uint256"
        }
      ],
      "stateMutability": "view",
      "type": "function"
    },
    {
      "inputs": [],
      "name": "duration",
      "outputs": [
        {
          "internalType": "uint256",
          "name": "",
          "type": "uint256"
        }
      ],
      "stateMutability": "view",
      "type": "function"
    },
    {
      "inputs": [
        {
          "internalType": "address",
          "name": "account",
          "type": "address"
        }
      ],
      "name": "earned",
      "outputs": [
        {
          "internalType": "uint256",
          "name": "",
          "type": "uint256"
        }
      ],
      "stateMutability": "view",
      "type": "function"
    },
    {
      "inputs": [],
      "name": "forwardPenalty",
      "outputs": [],
      "stateMutability": "nonpayable",
      "type": "function"
    },
    {
      "inputs": [
        {
          "internalType": "bool",
          "name": "_lock",
          "type": "bool"
        }
      ],
      "name": "getReward",
      "outputs": [
        {
          "internalType": "bool",
          "name": "",
          "type": "bool"
        }
      ],
      "stateMutability": "nonpayable",
      "type": "function"
    },
    {
      "inputs": [],
      "name": "initialiseRewards",
      "outputs": [
        {
          "internalType": "bool",
          "name": "",
          "type": "bool"
        }
      ],
      "stateMutability": "nonpayable",
      "type": "function"
    },
    {
      "inputs": [],
      "name": "lastTimeRewardApplicable",
      "outputs": [
        {
          "internalType": "uint256",
          "name": "",
          "type": "uint256"
        }
      ],
      "stateMutability": "view",
      "type": "function"
    },
    {
      "inputs": [],
      "name": "lastUpdateTime",
      "outputs": [
        {
          "internalType": "uint256",
          "name": "",
          "type": "uint256"
        }
      ],
      "stateMutability": "view",
      "type": "function"
    },
    {
      "inputs": [],
      "name": "penaltyForwarder",
      "outputs": [
        {
          "internalType": "address",
          "name": "",
          "type": "address"
        }
      ],
      "stateMutability": "view",
      "type": "function"
    },
    {
      "inputs": [],
      "name": "pendingPenalty",
      "outputs": [
        {
          "internalType": "uint256",
          "name": "",
          "type": "uint256"
        }
      ],
      "stateMutability": "view",
      "type": "function"
    },
    {
      "inputs": [],
      "name": "periodFinish",
      "outputs": [
        {
          "internalType": "uint256",
          "name": "",
          "type": "uint256"
        }
      ],
      "stateMutability": "view",
      "type": "function"
    },
    {
      "inputs": [],
      "name": "rescueReward",
      "outputs": [],
      "stateMutability": "nonpayable",
      "type": "function"
    },
    {
      "inputs": [],
      "name": "rewardManager",
      "outputs": [
        {
          "internalType": "address",
          "name": "",
          "type": "address"
        }
      ],
      "stateMutability": "view",
      "type": "function"
    },
    {
      "inputs": [],
      "name": "rewardPerToken",
      "outputs": [
        {
          "internalType": "uint256",
          "name": "",
          "type": "uint256"
        }
      ],
      "stateMutability": "view",
      "type": "function"
    },
    {
      "inputs": [],
      "name": "rewardPerTokenStored",
      "outputs": [
        {
          "internalType": "uint256",
          "name": "",
          "type": "uint256"
        }
      ],
      "stateMutability": "view",
      "type": "function"
    },
    {
      "inputs": [],
      "name": "rewardRate",
      "outputs": [
        {
          "internalType": "uint256",
          "name": "",
          "type": "uint256"
        }
      ],
      "stateMutability": "view",
      "type": "function"
    },
    {
      "inputs": [],
      "name": "rewardToken",
      "outputs": [
        {
          "internalType": "contract IERC20",
          "name": "",
          "type": "address"
        }
      ],
      "stateMutability": "view",
      "type": "function"
    },
    {
      "inputs": [
        {
          "internalType": "address",
          "name": "",
          "type": "address"
        }
      ],
      "name": "rewards",
      "outputs": [
        {
          "internalType": "uint256",
          "name": "",
          "type": "uint256"
        }
      ],
      "stateMutability": "view",
      "type": "function"
    },
    {
      "inputs": [
        {
          "internalType": "address",
          "name": "_newLocker",
          "type": "address"
        }
      ],
      "name": "setLocker",
      "outputs": [],
      "stateMutability": "nonpayable",
      "type": "function"
    },
    {
      "inputs": [
        {
          "internalType": "uint256",
          "name": "_amount",
          "type": "uint256"
        }
      ],
      "name": "stake",
      "outputs": [
        {
          "internalType": "bool",
          "name": "",
          "type": "bool"
        }
      ],
      "stateMutability": "nonpayable",
      "type": "function"
    },
    {
      "inputs": [],
      "name": "stakeAll",
      "outputs": [
        {
          "internalType": "bool",
          "name": "",
          "type": "bool"
        }
      ],
      "stateMutability": "nonpayable",
      "type": "function"
    },
    {
      "inputs": [
        {
          "internalType": "address",
          "name": "_for",
          "type": "address"
        },
        {
          "internalType": "uint256",
          "name": "_amount",
          "type": "uint256"
        }
      ],
      "name": "stakeFor",
      "outputs": [
        {
          "internalType": "bool",
          "name": "",
          "type": "bool"
        }
      ],
      "stateMutability": "nonpayable",
      "type": "function"
    },
    {
      "inputs": [],
      "name": "stakingToken",
      "outputs": [
        {
          "internalType": "contract IERC20",
          "name": "",
          "type": "address"
        }
      ],
      "stateMutability": "view",
      "type": "function"
    },
    {
      "inputs": [],
      "name": "startTime",
      "outputs": [
        {
          "internalType": "uint256",
          "name": "",
          "type": "uint256"
        }
      ],
      "stateMutability": "view",
      "type": "function"
    },
    {
      "inputs": [],
      "name": "totalSupply",
      "outputs": [
        {
          "internalType": "uint256",
          "name": "",
          "type": "uint256"
        }
      ],
      "stateMutability": "view",
      "type": "function"
    },
    {
      "inputs": [
        {
          "internalType": "address",
          "name": "",
          "type": "address"
        }
      ],
      "name": "userRewardPerTokenPaid",
      "outputs": [
        {
          "internalType": "uint256",
          "name": "",
          "type": "uint256"
        }
      ],
      "stateMutability": "view",
      "type": "function"
    },
    {
      "inputs": [
        {
          "internalType": "uint256",
          "name": "amount",
          "type": "uint256"
        },
        {
          "internalType": "bool",
          "name": "claim",
          "type": "bool"
        },
        {
          "internalType": "bool",
          "name": "lock",
          "type": "bool"
        }
      ],
      "name": "withdraw",
      "outputs": [
        {
          "internalType": "bool",
          "name": "",
          "type": "bool"
        }
      ],
      "stateMutability": "nonpayable",
      "type": "function"
    }
  ],
  "bytecode": "0x6101206040526000600155600060025560006003553480156200002157600080fd5b5060405162001bb338038062001bb3833981016040819052620000449162000232565b846001600160a01b0316866001600160a01b0316141580156200006f57506001600160a01b03861615155b620000ab5760405162461bcd60e51b815260206004820152600760248201526621746f6b656e7360c81b60448201526064015b60405180910390fd5b6001600160a01b0380871660a0528581166080528416620000fa5760405162461bcd60e51b815260206004820152600860248201526710b6b0b730b3b2b960c11b6044820152606401620000a2565b6001600160a01b0380851660c0528316620001425760405162461bcd60e51b815260206004820152600760248201526610b637b1b5b2b960c91b6044820152606401620000a2565b600080546001600160a01b0319166001600160a01b038581169190911790915582166200019f5760405162461bcd60e51b815260206004820152600a60248201526910b337b93bb0b93232b960b11b6044820152606401620000a2565b6001600160a01b03821660e0526205460081118015620001c157506212750081105b620001f85760405162461bcd60e51b81526020600482015260066024820152652164656c617960d01b6044820152606401620000a2565b620002048142620002aa565b6101005250620002d1945050505050565b80516001600160a01b03811681146200022d57600080fd5b919050565b60008060008060008060c087890312156200024c57600080fd5b620002578762000215565b9550620002676020880162000215565b9450620002776040880162000215565b9350620002876060880162000215565b9250620002976080880162000215565b915060a087015190509295509295509295565b60008219821115620002cc57634e487b7160e01b600052601160045260246000fd5b500190565b60805160a05160c05160e051610100516118266200038d6000396000818161031b0152818161074d0152610c230152600081816102130152610a22015260008181610252015281816104af015281816106de015281816108680152610bfa0152600081816102f40152818161065e0152818161096b01528181610b6d01526110f6015260008181610403015281816107de0152818161089a01528181610a0001528181610cf901528181610eb90152610f9601526118266000f3fe608060405234801561001057600080fd5b50600436106101c35760003560e01c80638b876347116100f9578063bd6d285011610097578063d661448711610071578063d6614487146103d9578063df136d65146103ec578063ebe2b12b146103f5578063f7c618c1146103fe57600080fd5b8063bd6d2850146103bf578063c8f33c91146103c8578063cd3daf9d146103d157600080fd5b806392930b45116100d357806392930b451461037e5780639514fb2f14610391578063a4698feb14610399578063a694fc3a146103ac57600080fd5b80638b8763471461034e5780638dcb40611461036e5780638faa85051461037657600080fd5b80632ee409081161016657806372f702f31161014057806372f702f3146102ef57806378e97925146103165780637b0a47ee1461033d57806380faa57d1461034657600080fd5b80632ee409081461029b57806331ae557c146102be57806370a08231146102c657600080fd5b80630f4ef8a6116101a25780630f4ef8a61461024d5780630fb5a6b414610274578063171060ec1461027e57806318160ddd1461029357600080fd5b80628cc262146101c85780630700037d146101ee578063076bbb671461020e575b600080fd5b6101db6101d6366004611614565b610425565b6040519081526020015b60405180910390f35b6101db6101fc366004611614565b60086020526000908152604090205481565b6102357f000000000000000000000000000000000000000000000000000000000000000081565b6040516001600160a01b0390911681526020016101e5565b6102357f000000000000000000000000000000000000000000000000000000000000000081565b6101db6212750081565b61029161028c366004611614565b6104a4565b005b6006546101db565b6102ae6102a936600461162f565b61055b565b60405190151581526020016101e5565b6102916106d3565b6101db6102d4366004611614565b6001600160a01b031660009081526009602052604090205490565b6102357f000000000000000000000000000000000000000000000000000000000000000081565b6101db7f000000000000000000000000000000000000000000000000000000000000000081565b6101db60035481565b6101db610936565b6101db61035c366004611614565b60076020526000908152604090205481565b6102ae610949565b6102916109ea565b6102ae61038c36600461166a565b610a7d565b6102ae610bed565b6102ae6103a73660046116ac565b610e1f565b6102ae6103ba3660046116c9565b611006565b6101db60015481565b6101db60045481565b6101db611164565b600054610235906001600160a01b031681565b6101db60055481565b6101db60025481565b6102357f000000000000000000000000000000000000000000000000000000000000000081565b6001600160a01b038116600090815260086020908152604080832054600790925282205461049e919061049890670de0b6b3a764000090610492906104729061046c611164565b906111b2565b6001600160a01b0388166000908152600960205260409020545b906111c5565b906111d1565b906111dd565b92915050565b336001600160a01b037f000000000000000000000000000000000000000000000000000000000000000016146105215760405162461bcd60e51b815260206004820152600560248201527f216175746800000000000000000000000000000000000000000000000000000060448201526064015b60405180910390fd5b600080547fffffffffffffffffffffffff0000000000000000000000000000000000000000166001600160a01b0392909216919091179055565b600082610566611164565b600555610571610936565b6004556001600160a01b038116156105b85761058c81610425565b6001600160a01b0382166000908152600860209081526040808320939093556005546007909152919020555b600083116106085760405162461bcd60e51b815260206004820152601b60248201527f526577617264506f6f6c203a2043616e6e6f74207374616b65203000000000006044820152606401610518565b60065461061590846111dd565b6006556001600160a01b03841660009081526009602052604090205461063b90846111dd565b6001600160a01b03808616600090815260096020526040902091909155610686907f0000000000000000000000000000000000000000000000000000000000000000163330866111e9565b836001600160a01b03167f9e71bc8eea02a63969f509818f2dafb9254532904319f9dbda79b67bd34a5f3d846040516106c191815260200190565b60405180910390a25060019392505050565b336001600160a01b037f0000000000000000000000000000000000000000000000000000000000000000161461074b5760405162461bcd60e51b815260206004820152600860248201527f21726573637565720000000000000000000000000000000000000000000000006044820152606401610518565b7f00000000000000000000000000000000000000000000000000000000000000004210801561077a5750600354155b6107c65760405162461bcd60e51b815260206004820152600f60248201527f416c7265616479207374617274656400000000000000000000000000000000006044820152606401610518565b6040516370a0823160e01b81523060048201526000907f00000000000000000000000000000000000000000000000000000000000000006001600160a01b0316906370a0823190602401602060405180830381865afa15801561082d573d6000803e3d6000fd5b505050506040513d601f19601f8201168201806040525081019061085191906116e2565b60405163a9059cbb60e01b81526001600160a01b037f000000000000000000000000000000000000000000000000000000000000000081166004830152602482018390529192507f00000000000000000000000000000000000000000000000000000000000000009091169063a9059cbb906044016020604051808303816000875af11580156108e5573d6000803e3d6000fd5b505050506040513d601f19601f8201168201806040525081019061090991906116fb565b506040517f82c202588180490f67fa4d9346c730a0c94f2b525caf39bd63427fb643f73a6990600090a150565b600061094442600254611287565b905090565b6040516370a0823160e01b815233600482015260009081906001600160a01b037f000000000000000000000000000000000000000000000000000000000000000016906370a0823190602401602060405180830381865afa1580156109b2573d6000803e3d6000fd5b505050506040513d601f19601f820116820180604052508101906109d691906116e2565b90506109e181611006565b50600191505090565b600180546000909155610a476001600160a01b037f0000000000000000000000000000000000000000000000000000000000000000167f00000000000000000000000000000000000000000000000000000000000000008361129d565b6040518181527f39346cbe10cbb5c94debda36f2afe71c5dbe015ad0b194b6df8498c815137d249060200160405180910390a150565b600033610a88611164565b600555610a93610936565b6004556001600160a01b03811615610ada57610aae81610425565b6001600160a01b0382166000908152600860209081526040808320939093556005546007909152919020555b60008511610b2a5760405162461bcd60e51b815260206004820152601e60248201527f526577617264506f6f6c203a2043616e6e6f74207769746864726177203000006044820152606401610518565b600654610b3790866111b2565b60065533600090815260096020526040902054610b5490866111b2565b33600081815260096020526040902091909155610b9c907f00000000000000000000000000000000000000000000000000000000000000006001600160a01b0316908761129d565b60405185815233907f7084f5476618d8e60b11ef0d7d3f06914655adb8793e28ff7f018d4c76d505d59060200160405180910390a28315610be257610be083610e1f565b505b506001949350505050565b6000336001600160a01b037f0000000000000000000000000000000000000000000000000000000000000000161480610c4557507f000000000000000000000000000000000000000000000000000000000000000042115b610c915760405162461bcd60e51b815260206004820152600b60248201527f21617574686f72697a65640000000000000000000000000000000000000000006044820152606401610518565b60035415610ce15760405162461bcd60e51b815260206004820152600960248201527f216f6e652074696d6500000000000000000000000000000000000000000000006044820152606401610518565b6040516370a0823160e01b81523060048201526000907f00000000000000000000000000000000000000000000000000000000000000006001600160a01b0316906370a0823190602401602060405180830381865afa158015610d48573d6000803e3d6000fd5b505050506040513d601f19601f82011682018060405250810190610d6c91906116e2565b905060008111610dbe5760405162461bcd60e51b815260206004820152600860248201527f2162616c616e63650000000000000000000000000000000000000000000000006044820152606401610518565b610dcb81621275006111d1565b600355426004819055610de190621275006111dd565b6002556040518181527fde88a922e0d3b88b24e9623efeb464919c6bf9f66857a65e2bfcf2ce87a9433d9060200160405180910390a1600191505090565b600033610e2a611164565b600555610e35610936565b6004556001600160a01b03811615610e7c57610e5081610425565b6001600160a01b0382166000908152600860209081526040808320939093556005546007909152919020555b336000908152600860205260409020548015610ffc57336000908152600860205260408120558315610f4b57600054610ee2906001600160a01b037f000000000000000000000000000000000000000000000000000000000000000081169116836112d2565b60005460405163282d3fdf60e01b8152336004820152602481018390526001600160a01b039091169063282d3fdf90604401600060405180830381600087803b158015610f2e57600080fd5b505af1158015610f42573d6000803e3d6000fd5b50505050610fbf565b6000600a610f5a83600261172e565b610f64919061174d565b90508060016000828254610f78919061176f565b90915550610fbd905033610f8c8385611787565b6001600160a01b037f000000000000000000000000000000000000000000000000000000000000000016919061129d565b505b60408051828152851515602082015233917f16027d9cd5ffbfabaed8d9c40e1908fdeae11ae44ba883b5eab9c0bcbf1355b0910160405180910390a25b5060019392505050565b600033611011611164565b60055561101c610936565b6004556001600160a01b038116156110635761103781610425565b6001600160a01b0382166000908152600860209081526040808320939093556005546007909152919020555b600083116110b35760405162461bcd60e51b815260206004820152601b60248201527f526577617264506f6f6c203a2043616e6e6f74207374616b65203000000000006044820152606401610518565b6006546110c090846111dd565b600655336000908152600960205260409020546110dd90846111dd565b33600081815260096020526040902091909155611126907f00000000000000000000000000000000000000000000000000000000000000006001600160a01b03169030866111e9565b60405183815233907f9e71bc8eea02a63969f509818f2dafb9254532904319f9dbda79b67bd34a5f3d9060200160405180910390a250600192915050565b600061116f60065490565b61117a575060055490565b6109446111a961118960065490565b610492670de0b6b3a764000061048c60035461048c60045461046c610936565b600554906111dd565b60006111be8284611787565b9392505050565b60006111be828461172e565b60006111be828461174d565b60006111be828461176f565b6040516001600160a01b03808516602483015283166044820152606481018290526112819085906323b872dd60e01b906084015b60408051601f198184030181529190526020810180517bffffffffffffffffffffffffffffffffffffffffffffffffffffffff167fffffffff0000000000000000000000000000000000000000000000000000000090931692909217909152611384565b50505050565b600081831061129657816111be565b5090919050565b6040516001600160a01b0383166024820152604481018290526112cd90849063a9059cbb60e01b9060640161121d565b505050565b604051636eb1769f60e11b81523060048201526001600160a01b038381166024830152600091839186169063dd62ed3e90604401602060405180830381865afa158015611323573d6000803e3d6000fd5b505050506040513d601f19601f8201168201806040525081019061134791906116e2565b611351919061176f565b6040516001600160a01b03851660248201526044810182905290915061128190859063095ea7b360e01b9060640161121d565b60006113d9826040518060400160405280602081526020017f5361666545524332303a206c6f772d6c6576656c2063616c6c206661696c6564815250856001600160a01b03166114699092919063ffffffff16565b8051909150156112cd57808060200190518101906113f791906116fb565b6112cd5760405162461bcd60e51b815260206004820152602a60248201527f5361666545524332303a204552433230206f7065726174696f6e20646964206e60448201527f6f742073756363656564000000000000000000000000000000000000000000006064820152608401610518565b60606114788484600085611480565b949350505050565b6060824710156114f85760405162461bcd60e51b815260206004820152602660248201527f416464726573733a20696e73756666696369656e742062616c616e636520666f60448201527f722063616c6c00000000000000000000000000000000000000000000000000006064820152608401610518565b843b6115465760405162461bcd60e51b815260206004820152601d60248201527f416464726573733a2063616c6c20746f206e6f6e2d636f6e74726163740000006044820152606401610518565b600080866001600160a01b0316858760405161156291906117ca565b60006040518083038185875af1925050503d806000811461159f576040519150601f19603f3d011682016040523d82523d6000602084013e6115a4565b606091505b50915091506115b48282866115bf565b979650505050505050565b606083156115ce5750816111be565b8251156115de5782518084602001fd5b8160405162461bcd60e51b815260040161051891906117e6565b80356001600160a01b038116811461160f57600080fd5b919050565b60006020828403121561162657600080fd5b6111be826115f8565b6000806040838503121561164257600080fd5b61164b836115f8565b946020939093013593505050565b801515811461166757600080fd5b50565b60008060006060848603121561167f57600080fd5b83359250602084013561169181611659565b915060408401356116a181611659565b809150509250925092565b6000602082840312156116be57600080fd5b81356111be81611659565b6000602082840312156116db57600080fd5b5035919050565b6000602082840312156116f457600080fd5b5051919050565b60006020828403121561170d57600080fd5b81516111be81611659565b634e487b7160e01b600052601160045260246000fd5b600081600019048311821515161561174857611748611718565b500290565b60008261176a57634e487b7160e01b600052601260045260246000fd5b500490565b6000821982111561178257611782611718565b500190565b60008282101561179957611799611718565b500390565b60005b838110156117b95781810151838201526020016117a1565b838111156112815750506000910152565b600082516117dc81846020870161179e565b9190910192915050565b602081526000825180602084015261180581604085016020870161179e565b601f01601f1916919091016040019291505056fea164736f6c634300080b000a",
  "linkReferences": {},
  "deployedLinkReferences": {}
}