{
  "_format": "hh-sol-artifact-1",
  "contractName": "AuraMerkleDrop",
  "sourceName": "contracts/AuraMerkleDrop.sol",
  "abi": [
    {
      "inputs": [
        {
          "internalType": "address",
          "name": "_dao",
          "type": "address"
        },
        {
          "internalType": "bytes32",
          "name": "_merkleRoot",
          "type": "bytes32"
        },
        {
          "internalType": "address",
          "name": "_aura",
          "type": "address"
        },
        {
          "internalType": "address",
          "name": "_auraLocker",
          "type": "address"
        },
        {
          "internalType": "address",
          "name": "_penaltyForwarder",
          "type": "address"
        },
        {
          "internalType": "uint256",
          "name": "_startDelay",
          "type": "uint256"
        },
        {
          "internalType": "uint256",
          "name": "_expiresAfter",
          "type": "uint256"
        }
      ],
      "stateMutability": "nonpayable",
      "type": "constructor"
    },
    {
      "anonymous": false,
      "inputs": [
        {
          "indexed": false,
          "internalType": "address",
          "name": "addr",
          "type": "address"
        },
        {
          "indexed": false,
          "internalType": "uint256",
          "name": "amt",
          "type": "uint256"
        },
        {
          "indexed": false,
          "internalType": "bool",
          "name": "locked",
          "type": "bool"
        }
      ],
      "name": "Claimed",
      "type": "event"
    },
    {
      "anonymous": false,
      "inputs": [
        {
          "indexed": false,
          "internalType": "address",
          "name": "newDao",
          "type": "address"
        }
      ],
      "name": "DaoSet",
      "type": "event"
    },
    {
      "anonymous": false,
      "inputs": [
        {
          "indexed": false,
          "internalType": "uint256",
          "name": "amount",
          "type": "uint256"
        }
      ],
      "name": "ExpiredWithdrawn",
      "type": "event"
    },
    {
      "anonymous": false,
      "inputs": [
        {
          "indexed": false,
          "internalType": "address",
          "name": "newLocker",
          "type": "address"
        }
      ],
      "name": "LockerSet",
      "type": "event"
    },
    {
      "anonymous": false,
      "inputs": [
        {
          "indexed": false,
          "internalType": "uint256",
          "name": "amount",
          "type": "uint256"
        }
      ],
      "name": "PenaltyForwarded",
      "type": "event"
    },
    {
      "anonymous": false,
      "inputs": [
        {
          "indexed": false,
          "internalType": "bytes32",
          "name": "newRoot",
          "type": "bytes32"
        }
      ],
      "name": "RootSet",
      "type": "event"
    },
    {
      "anonymous": false,
      "inputs": [],
      "name": "StartedEarly",
      "type": "event"
    },
    {
      "inputs": [],
      "name": "aura",
      "outputs": [
        {
          "internalType": "contract IERC20",
          "name": "",
          "type": "address"
        }
      ],
      "stateMutability": "view",
      "type": "function"
    },
    {
      "inputs": [],
      "name": "auraLocker",
      "outputs": [
        {
          "internalType": "contract IAuraLocker",
          "name": "",
          "type": "address"
        }
      ],
      "stateMutability": "view",
      "type": "function"
    },
    {
      "inputs": [
        {
          "internalType": "bytes32[]",
          "name": "_proof",
          "type": "bytes32[]"
        },
        {
          "internalType": "uint256",
          "name": "_amount",
          "type": "uint256"
        },
        {
          "internalType": "bool",
          "name": "_lock",
          "type": "bool"
        }
      ],
      "name": "claim",
      "outputs": [
        {
          "internalType": "bool",
          "name": "",
          "type": "bool"
        }
      ],
      "stateMutability": "nonpayable",
      "type": "function"
    },
    {
      "inputs": [],
      "name": "dao",
      "outputs": [
        {
          "internalType": "address",
          "name": "",
          "type": "address"
        }
      ],
      "stateMutability": "view",
      "type": "function"
    },
    {
      "inputs": [],
      "name": "expiryTime",
      "outputs": [
        {
          "internalType": "uint256",
          "name": "",
          "type": "uint256"
        }
      ],
      "stateMutability": "view",
      "type": "function"
    },
    {
      "inputs": [],
      "name": "forwardPenalty",
      "outputs": [],
      "stateMutability": "nonpayable",
      "type": "function"
    },
    {
      "inputs": [
        {
          "internalType": "address",
          "name": "",
          "type": "address"
        }
      ],
      "name": "hasClaimed",
      "outputs": [
        {
          "internalType": "bool",
          "name": "",
          "type": "bool"
        }
      ],
      "stateMutability": "view",
      "type": "function"
    },
    {
      "inputs": [],
      "name": "merkleRoot",
      "outputs": [
        {
          "internalType": "bytes32",
          "name": "",
          "type": "bytes32"
        }
      ],
      "stateMutability": "view",
      "type": "function"
    },
    {
      "inputs": [],
      "name": "penaltyForwarder",
      "outputs": [
        {
          "internalType": "address",
          "name": "",
          "type": "address"
        }
      ],
      "stateMutability": "view",
      "type": "function"
    },
    {
      "inputs": [],
      "name": "pendingPenalty",
      "outputs": [
        {
          "internalType": "uint256",
          "name": "",
          "type": "uint256"
        }
      ],
      "stateMutability": "view",
      "type": "function"
    },
    {
      "inputs": [
        {
          "internalType": "address",
          "name": "_newDao",
          "type": "address"
        }
      ],
      "name": "setDao",
      "outputs": [],
      "stateMutability": "nonpayable",
      "type": "function"
    },
    {
      "inputs": [
        {
          "internalType": "address",
          "name": "_newLocker",
          "type": "address"
        }
      ],
      "name": "setLocker",
      "outputs": [],
      "stateMutability": "nonpayable",
      "type": "function"
    },
    {
      "inputs": [
        {
          "internalType": "bytes32",
          "name": "_merkleRoot",
          "type": "bytes32"
        }
      ],
      "name": "setRoot",
      "outputs": [],
      "stateMutability": "nonpayable",
      "type": "function"
    },
    {
      "inputs": [],
      "name": "startEarly",
      "outputs": [],
      "stateMutability": "nonpayable",
      "type": "function"
    },
    {
      "inputs": [],
      "name": "startTime",
      "outputs": [
        {
          "internalType": "uint256",
          "name": "",
          "type": "uint256"
        }
      ],
      "stateMutability": "view",
      "type": "function"
    },
    {
      "inputs": [],
      "name": "withdrawExpired",
      "outputs": [],
      "stateMutability": "nonpayable",
      "type": "function"
    }
  ],
  "bytecode": "0x60e060405260006003553480156200001657600080fd5b5060405162001a7738038062001a7783398101604081905262000039916200053b565b600080546001600160a01b0319166001600160a01b0389811691909117909155600187905585166080526200006e84620000ed565b6001600160a01b03831660a052620000878242620005b5565b600455621275008111620000cc5760405162461bcd60e51b81526020600482015260076024820152662165787069727960c81b60448201526064015b60405180910390fd5b80600454620000dc9190620005b5565b60c05250620006a095505050505050565b600280546001600160a01b0319166001600160a01b038316908117909155156200016257620001398160006080516001600160a01b03166200016560201b62000b83179092919060201c565b62000162816000196080516001600160a01b03166200016560201b62000b83179092919060201c565b50565b801580620001e35750604051636eb1769f60e11b81523060048201526001600160a01b03838116602483015284169063dd62ed3e90604401602060405180830381865afa158015620001bb573d6000803e3d6000fd5b505050506040513d601f19601f82011682018060405250810190620001e19190620005dc565b155b620002575760405162461bcd60e51b815260206004820152603660248201527f5361666545524332303a20617070726f76652066726f6d206e6f6e2d7a65726f60448201527f20746f206e6f6e2d7a65726f20616c6c6f77616e6365000000000000000000006064820152608401620000c3565b604080516001600160a01b038416602482015260448082018490528251808303909101815260649091019091526020810180516001600160e01b0390811663095ea7b360e01b17909152620002af918591620002b416565b505050565b600062000310826040518060400160405280602081526020017f5361666545524332303a206c6f772d6c6576656c2063616c6c206661696c6564815250856001600160a01b03166200039260201b62000d04179092919060201c565b805190915015620002af5780806020019051810190620003319190620005f6565b620002af5760405162461bcd60e51b815260206004820152602a60248201527f5361666545524332303a204552433230206f7065726174696f6e20646964206e6044820152691bdd081cdd58d8d9595960b21b6064820152608401620000c3565b6060620003a38484600085620003ad565b90505b9392505050565b606082471015620004105760405162461bcd60e51b815260206004820152602660248201527f416464726573733a20696e73756666696369656e742062616c616e636520666f6044820152651c8818d85b1b60d21b6064820152608401620000c3565b843b620004605760405162461bcd60e51b815260206004820152601d60248201527f416464726573733a2063616c6c20746f206e6f6e2d636f6e74726163740000006044820152606401620000c3565b600080866001600160a01b031685876040516200047e91906200064d565b60006040518083038185875af1925050503d8060008114620004bd576040519150601f19603f3d011682016040523d82523d6000602084013e620004c2565b606091505b509092509050620004d5828286620004e0565b979650505050505050565b60608315620004f1575081620003a6565b825115620005025782518084602001fd5b8160405162461bcd60e51b8152600401620000c391906200066b565b80516001600160a01b03811681146200053657600080fd5b919050565b600080600080600080600060e0888a0312156200055757600080fd5b62000562886200051e565b96506020880151955062000579604089016200051e565b945062000589606089016200051e565b935062000599608089016200051e565b925060a0880151915060c0880151905092959891949750929550565b60008219821115620005d757634e487b7160e01b600052601160045260246000fd5b500190565b600060208284031215620005ef57600080fd5b5051919050565b6000602082840312156200060957600080fd5b81518015158114620003a657600080fd5b60005b83811015620006375781810151838201526020016200061d565b8381111562000647576000848401525b50505050565b60008251620006618184602087016200061a565b9190910192915050565b60208152600082518060208401526200068c8160408501602087016200061a565b601f01601f19169190910160400192915050565b60805160a05160c05161136162000716600039600081816101ff015281816102c8015261055d01526000818161010a0152818161095301526109f601526000818161025d0152818161034d015281816103d401528181610835015281816109d401528181610d8a0152610dbf01526113616000f3fe608060405234801561001057600080fd5b50600436106101005760003560e01c806378e9792511610097578063c424569011610066578063c42456901461022a578063d661448714610232578063dab5f34014610245578063e13b7f5c1461025857600080fd5b806378e97925146101e95780638faa8505146101f257806399bc0aea146101fa578063bd6d28501461022157600080fd5b80634162169f116100d35780634162169f1461017d57806353210b39146101905780636637b882146101b357806373b2e80e146101c657600080fd5b8063076bbb671461010557806315b6348314610149578063171060ec146101535780632eb4a7ab14610166575b600080fd5b61012c7f000000000000000000000000000000000000000000000000000000000000000081565b6040516001600160a01b0390911681526020015b60405180910390f35b61015161027f565b005b61015161016136600461110a565b610434565b61016f60015481565b604051908152602001610140565b60005461012c906001600160a01b031681565b6101a361019e366004611141565b6104b8565b6040519015158152602001610140565b6101516101c136600461110a565b6108ab565b6101a36101d436600461110a565b60056020526000908152604090205460ff1681565b61016f60045481565b610151610948565b61016f7f000000000000000000000000000000000000000000000000000000000000000081565b61016f60035481565b610151610a4b565b60025461012c906001600160a01b031681565b6101516102533660046111cf565b610abc565b61012c7f000000000000000000000000000000000000000000000000000000000000000081565b6000546001600160a01b031633146102c65760405162461bcd60e51b8152602060048201526005602482015264042c2eae8d60db1b60448201526064015b60405180910390fd5b7f000000000000000000000000000000000000000000000000000000000000000042116103355760405162461bcd60e51b815260206004820152600860248201527f216578706972656400000000000000000000000000000000000000000000000060448201526064016102bd565b6040516370a0823160e01b81523060048201526000907f00000000000000000000000000000000000000000000000000000000000000006001600160a01b0316906370a0823190602401602060405180830381865afa15801561039c573d6000803e3d6000fd5b505050506040513d601f19601f820116820180604052508101906103c091906111e8565b6000549091506103fd906001600160a01b037f00000000000000000000000000000000000000000000000000000000000000008116911683610d1d565b6040518181527f740d726b1789a603e85c6b40463a98c7130ecdecdb1618b58bf1043342885bb9906020015b60405180910390a150565b6000546001600160a01b031633146104765760405162461bcd60e51b8152602060048201526005602482015264042c2eae8d60db1b60448201526064016102bd565b61047f81610d4d565b6040516001600160a01b03821681527fef7ce00901486d0ae4bbe00a818eb6bb2f42bc78fc75571cf294c1c50c61adfd90602001610429565b60015460009061050a5760405162461bcd60e51b815260206004820152600560248201527f21726f6f7400000000000000000000000000000000000000000000000000000060448201526064016102bd565b600454421161055b5760405162461bcd60e51b815260206004820152600860248201527f217374617274656400000000000000000000000000000000000000000000000060448201526064016102bd565b7f000000000000000000000000000000000000000000000000000000000000000042106105ca5760405162461bcd60e51b815260206004820152600760248201527f216163746976650000000000000000000000000000000000000000000000000060448201526064016102bd565b6000831161061a5760405162461bcd60e51b815260206004820152600760248201527f21616d6f756e740000000000000000000000000000000000000000000000000060448201526064016102bd565b3360009081526005602052604090205460ff161561067a5760405162461bcd60e51b815260206004820152600f60248201527f616c726561647920636c61696d6564000000000000000000000000000000000060448201526064016102bd565b6040516bffffffffffffffffffffffff193360601b166020820152603481018490526000906054016040516020818303038152906040528051906020012090506106fb868680806020026020016040519081016040528093929190818152602001838360200280828437600092019190915250506001549150849050610deb565b6107475760405162461bcd60e51b815260206004820152600d60248201527f696e76616c69642070726f6f660000000000000000000000000000000000000060448201526064016102bd565b336000908152600560205260409020805460ff1916600117905582156107d05760025460405163282d3fdf60e01b8152336004820152602481018690526001600160a01b039091169063282d3fdf90604401600060405180830381600087803b1580156107b357600080fd5b505af11580156107c7573d6000803e3d6000fd5b5050505061085e565b6002546000906001600160a01b03161561080057600a6107f1866002611217565b6107fb9190611236565b610803565b60005b905080600360008282546108179190611258565b9091555061085c90503361082b8388611270565b6001600160a01b037f0000000000000000000000000000000000000000000000000000000000000000169190610d1d565b505b60408051338152602081018690528415158183015290517ffa8256f7c08bb01a03ea96f8b3a904a4450311c9725d1c52cdbe21ed3dc42dcc9181900360600190a150600195945050505050565b6000546001600160a01b031633146108ed5760405162461bcd60e51b8152602060048201526005602482015264042c2eae8d60db1b60448201526064016102bd565b6000805473ffffffffffffffffffffffffffffffffffffffff19166001600160a01b0383169081179091556040519081527fe44f98492340b33cca2c1f812e0f05006c6612a7e5dc10304debc6c6156d4d4090602001610429565b6003805460009091557f00000000000000000000000000000000000000000000000000000000000000006001600160a01b03166109c75760405162461bcd60e51b815260206004820152600a60248201527f21666f727761726465720000000000000000000000000000000000000000000060448201526064016102bd565b610a1b6001600160a01b037f0000000000000000000000000000000000000000000000000000000000000000167f000000000000000000000000000000000000000000000000000000000000000083610d1d565b6040518181527f39346cbe10cbb5c94debda36f2afe71c5dbe015ad0b194b6df8498c815137d2490602001610429565b6000546001600160a01b03163314610a8d5760405162461bcd60e51b8152602060048201526005602482015264042c2eae8d60db1b60448201526064016102bd565b426004556040517f4d420acb8e6b2d53514712e44f7e6b7354d54fc5fa0adab5aee3bb60d81eb0f890600090a1565b6000546001600160a01b03163314610afe5760405162461bcd60e51b8152602060048201526005602482015264042c2eae8d60db1b60448201526064016102bd565b60015415610b4e5760405162461bcd60e51b815260206004820152600b60248201527f616c72656164792073657400000000000000000000000000000000000000000060448201526064016102bd565b60018190556040518181527f2ae0bd135f5bcfc82b9dbffdabe76051e763c2ed1c7188197181a575aa0e55b390602001610429565b801580610bfd5750604051636eb1769f60e11b81523060048201526001600160a01b03838116602483015284169063dd62ed3e90604401602060405180830381865afa158015610bd7573d6000803e3d6000fd5b505050506040513d601f19601f82011682018060405250810190610bfb91906111e8565b155b610c6f5760405162461bcd60e51b815260206004820152603660248201527f5361666545524332303a20617070726f76652066726f6d206e6f6e2d7a65726f60448201527f20746f206e6f6e2d7a65726f20616c6c6f77616e63650000000000000000000060648201526084016102bd565b6040516001600160a01b038316602482015260448101829052610cff90849063095ea7b360e01b906064015b60408051601f198184030181529190526020810180517bffffffffffffffffffffffffffffffffffffffffffffffffffffffff167fffffffff0000000000000000000000000000000000000000000000000000000090931692909217909152610e01565b505050565b6060610d138484600085610ee6565b90505b9392505050565b6040516001600160a01b038316602482015260448101829052610cff90849063a9059cbb60e01b90606401610c9b565b6002805473ffffffffffffffffffffffffffffffffffffffff19166001600160a01b03831690811790915515610de857610db26001600160a01b037f000000000000000000000000000000000000000000000000000000000000000016826000610b83565b610de86001600160a01b037f00000000000000000000000000000000000000000000000000000000000000001682600019610b83565b50565b600082610df88584611025565b14949350505050565b6000610e56826040518060400160405280602081526020017f5361666545524332303a206c6f772d6c6576656c2063616c6c206661696c6564815250856001600160a01b0316610d049092919063ffffffff16565b805190915015610cff5780806020019051810190610e749190611287565b610cff5760405162461bcd60e51b815260206004820152602a60248201527f5361666545524332303a204552433230206f7065726174696f6e20646964206e60448201527f6f7420737563636565640000000000000000000000000000000000000000000060648201526084016102bd565b606082471015610f5e5760405162461bcd60e51b815260206004820152602660248201527f416464726573733a20696e73756666696369656e742062616c616e636520666f60448201527f722063616c6c000000000000000000000000000000000000000000000000000060648201526084016102bd565b843b610fac5760405162461bcd60e51b815260206004820152601d60248201527f416464726573733a2063616c6c20746f206e6f6e2d636f6e747261637400000060448201526064016102bd565b600080866001600160a01b03168587604051610fc891906112d4565b60006040518083038185875af1925050503d8060008114611005576040519150601f19603f3d011682016040523d82523d6000602084013e61100a565b606091505b509150915061101a8282866110d1565b979650505050505050565b600081815b84518110156110c9576000858281518110611047576110476112f0565b602002602001015190508083116110895760408051602081018590529081018290526060016040516020818303038152906040528051906020012092506110b6565b60408051602081018390529081018490526060016040516020818303038152906040528051906020012092505b50806110c181611306565b91505061102a565b509392505050565b606083156110e0575081610d16565b8251156110f05782518084602001fd5b8160405162461bcd60e51b81526004016102bd9190611321565b60006020828403121561111c57600080fd5b81356001600160a01b0381168114610d1657600080fd5b8015158114610de857600080fd5b6000806000806060858703121561115757600080fd5b843567ffffffffffffffff8082111561116f57600080fd5b818701915087601f83011261118357600080fd5b81358181111561119257600080fd5b8860208260051b85010111156111a757600080fd5b60209283019650945050850135915060408501356111c481611133565b939692955090935050565b6000602082840312156111e157600080fd5b5035919050565b6000602082840312156111fa57600080fd5b5051919050565b634e487b7160e01b600052601160045260246000fd5b600081600019048311821515161561123157611231611201565b500290565b60008261125357634e487b7160e01b600052601260045260246000fd5b500490565b6000821982111561126b5761126b611201565b500190565b60008282101561128257611282611201565b500390565b60006020828403121561129957600080fd5b8151610d1681611133565b60005b838110156112bf5781810151838201526020016112a7565b838111156112ce576000848401525b50505050565b600082516112e68184602087016112a4565b9190910192915050565b634e487b7160e01b600052603260045260246000fd5b600060001982141561131a5761131a611201565b5060010190565b60208152600082518060208401526113408160408501602087016112a4565b601f01601f1916919091016040019291505056fea164736f6c634300080b000a",
  "linkReferences": {},
  "deployedLinkReferences": {}
}