{
  "_format": "hh-sol-artifact-1",
  "contractName": "AuraMerkleDrop",
  "sourceName": "contracts/AuraMerkleDrop.sol",
  "abi": [
    {
      "inputs": [
        {
          "internalType": "address",
          "name": "_dao",
          "type": "address"
        },
        {
          "internalType": "bytes32",
          "name": "_merkleRoot",
          "type": "bytes32"
        },
        {
          "internalType": "address",
          "name": "_aura",
          "type": "address"
        },
        {
          "internalType": "address",
          "name": "_auraLocker",
          "type": "address"
        },
        {
          "internalType": "address",
          "name": "_penaltyForwarder",
          "type": "address"
        },
        {
          "internalType": "uint256",
          "name": "_startDelay",
          "type": "uint256"
        },
        {
          "internalType": "uint256",
          "name": "_expiresAfter",
          "type": "uint256"
        }
      ],
      "stateMutability": "nonpayable",
      "type": "constructor"
    },
    {
      "anonymous": false,
      "inputs": [
        {
          "indexed": false,
          "internalType": "address",
          "name": "addr",
          "type": "address"
        },
        {
          "indexed": false,
          "internalType": "uint256",
          "name": "amt",
          "type": "uint256"
        },
        {
          "indexed": false,
          "internalType": "bool",
          "name": "locked",
          "type": "bool"
        }
      ],
      "name": "Claimed",
      "type": "event"
    },
    {
      "anonymous": false,
      "inputs": [
        {
          "indexed": false,
          "internalType": "address",
          "name": "newDao",
          "type": "address"
        }
      ],
      "name": "DaoSet",
      "type": "event"
    },
    {
      "anonymous": false,
      "inputs": [
        {
          "indexed": false,
          "internalType": "uint256",
          "name": "amount",
          "type": "uint256"
        }
      ],
      "name": "ExpiredWithdrawn",
      "type": "event"
    },
    {
      "anonymous": false,
      "inputs": [
        {
          "indexed": false,
          "internalType": "address",
          "name": "newLocker",
          "type": "address"
        }
      ],
      "name": "LockerSet",
      "type": "event"
    },
    {
      "anonymous": false,
      "inputs": [
        {
          "indexed": false,
          "internalType": "uint256",
          "name": "amount",
          "type": "uint256"
        }
      ],
      "name": "PenaltyForwarded",
      "type": "event"
    },
    {
      "anonymous": false,
      "inputs": [],
      "name": "Rescued",
      "type": "event"
    },
    {
      "anonymous": false,
      "inputs": [
        {
          "indexed": false,
          "internalType": "bytes32",
          "name": "newRoot",
          "type": "bytes32"
        }
      ],
      "name": "RootSet",
      "type": "event"
    },
    {
      "anonymous": false,
      "inputs": [],
      "name": "StartedEarly",
      "type": "event"
    },
    {
      "inputs": [],
      "name": "aura",
      "outputs": [
        {
          "internalType": "contract IERC20",
          "name": "",
          "type": "address"
        }
      ],
      "stateMutability": "view",
      "type": "function"
    },
    {
      "inputs": [],
      "name": "auraLocker",
      "outputs": [
        {
          "internalType": "contract IAuraLocker",
          "name": "",
          "type": "address"
        }
      ],
      "stateMutability": "view",
      "type": "function"
    },
    {
      "inputs": [
        {
          "internalType": "bytes32[]",
          "name": "_proof",
          "type": "bytes32[]"
        },
        {
          "internalType": "uint256",
          "name": "_amount",
          "type": "uint256"
        },
        {
          "internalType": "bool",
          "name": "_lock",
          "type": "bool"
        }
      ],
      "name": "claim",
      "outputs": [
        {
          "internalType": "bool",
          "name": "",
          "type": "bool"
        }
      ],
      "stateMutability": "nonpayable",
      "type": "function"
    },
    {
      "inputs": [],
      "name": "dao",
      "outputs": [
        {
          "internalType": "address",
          "name": "",
          "type": "address"
        }
      ],
      "stateMutability": "view",
      "type": "function"
    },
    {
      "inputs": [],
      "name": "deployTime",
      "outputs": [
        {
          "internalType": "uint256",
          "name": "",
          "type": "uint256"
        }
      ],
      "stateMutability": "view",
      "type": "function"
    },
    {
      "inputs": [],
      "name": "expiryTime",
      "outputs": [
        {
          "internalType": "uint256",
          "name": "",
          "type": "uint256"
        }
      ],
      "stateMutability": "view",
      "type": "function"
    },
    {
      "inputs": [],
      "name": "forwardPenalty",
      "outputs": [],
      "stateMutability": "nonpayable",
      "type": "function"
    },
    {
      "inputs": [
        {
          "internalType": "address",
          "name": "",
          "type": "address"
        }
      ],
      "name": "hasClaimed",
      "outputs": [
        {
          "internalType": "bool",
          "name": "",
          "type": "bool"
        }
      ],
      "stateMutability": "view",
      "type": "function"
    },
    {
      "inputs": [],
      "name": "merkleRoot",
      "outputs": [
        {
          "internalType": "bytes32",
          "name": "",
          "type": "bytes32"
        }
      ],
      "stateMutability": "view",
      "type": "function"
    },
    {
      "inputs": [],
      "name": "penaltyForwarder",
      "outputs": [
        {
          "internalType": "address",
          "name": "",
          "type": "address"
        }
      ],
      "stateMutability": "view",
      "type": "function"
    },
    {
      "inputs": [],
      "name": "pendingPenalty",
      "outputs": [
        {
          "internalType": "uint256",
          "name": "",
          "type": "uint256"
        }
      ],
      "stateMutability": "view",
      "type": "function"
    },
    {
      "inputs": [],
      "name": "rescueReward",
      "outputs": [],
      "stateMutability": "nonpayable",
      "type": "function"
    },
    {
      "inputs": [
        {
          "internalType": "address",
          "name": "_newDao",
          "type": "address"
        }
      ],
      "name": "setDao",
      "outputs": [],
      "stateMutability": "nonpayable",
      "type": "function"
    },
    {
      "inputs": [
        {
          "internalType": "address",
          "name": "_newLocker",
          "type": "address"
        }
      ],
      "name": "setLocker",
      "outputs": [],
      "stateMutability": "nonpayable",
      "type": "function"
    },
    {
      "inputs": [
        {
          "internalType": "bytes32",
          "name": "_merkleRoot",
          "type": "bytes32"
        }
      ],
      "name": "setRoot",
      "outputs": [],
      "stateMutability": "nonpayable",
      "type": "function"
    },
    {
      "inputs": [],
      "name": "startEarly",
      "outputs": [],
      "stateMutability": "nonpayable",
      "type": "function"
    },
    {
      "inputs": [],
      "name": "startTime",
      "outputs": [
        {
          "internalType": "uint256",
          "name": "",
          "type": "uint256"
        }
      ],
      "stateMutability": "view",
      "type": "function"
    },
    {
      "inputs": [],
      "name": "withdrawExpired",
      "outputs": [],
      "stateMutability": "nonpayable",
      "type": "function"
    }
  ],
  "bytecode": "0x61010060405260006003553480156200001757600080fd5b5060405162001824380380620018248339810160408190526200003a916200019a565b6001600160a01b038716620000845760405162461bcd60e51b81526004016200007b906020808252600490820152632164616f60e01b604082015260600190565b60405180910390fd5b600080546001600160a01b0319166001600160a01b038981169190911790915560018790558516620000e15760405162461bcd60e51b8152602060048201526005602482015264216175726160d81b60448201526064016200007b565b6001600160a01b03858116608052600280546001600160a01b031916868316179055831660a0524260c08190526200011b90839062000214565b6004556212750081116200015c5760405162461bcd60e51b81526020600482015260076024820152662165787069727960c81b60448201526064016200007b565b806004546200016c919062000214565b60e052506200023b95505050505050565b80516001600160a01b03811681146200019557600080fd5b919050565b600080600080600080600060e0888a031215620001b657600080fd5b620001c1886200017d565b965060208801519550620001d8604089016200017d565b9450620001e8606089016200017d565b9350620001f8608089016200017d565b925060a0880151915060c0880151905092959891949750929550565b600082198211156200023657634e487b7160e01b600052601160045260246000fd5b500190565b60805160a05160c05160e051611554620002d0600039600081816102640152818161032d01526107a5015260008181610235015261058e01526000818161014001528181610a910152610c6e0152600081816102c2015281816103be0152818161044701528181610624015281816106ab015281816109c0015281816109fb01528181610b230152610c4c01526115546000f3fe608060405234801561001057600080fd5b50600436106101365760003560e01c806378e97925116100b2578063bd6d285011610081578063d661448711610066578063d661448714610297578063dab5f340146102aa578063e13b7f5c146102bd57600080fd5b8063bd6d285014610286578063c42456901461028f57600080fd5b806378e97925146102275780637a40624b146102305780638faa85051461025757806399bc0aea1461025f57600080fd5b806331ae557c1161010957806353210b39116100ee57806353210b39146101ce5780636637b882146101f157806373b2e80e1461020457600080fd5b806331ae557c146101b35780634162169f146101bb57600080fd5b8063076bbb671461013b57806315b634831461017f578063171060ec146101895780632eb4a7ab1461019c575b600080fd5b6101627f000000000000000000000000000000000000000000000000000000000000000081565b6040516001600160a01b0390911681526020015b60405180910390f35b6101876102e4565b005b6101876101973660046112fa565b6104a7565b6101a560015481565b604051908152602001610176565b610187610544565b600054610162906001600160a01b031681565b6101e16101dc366004611334565b610700565b6040519015158152602001610176565b6101876101ff3660046112fa565b610b99565b6101e16102123660046112fa565b60056020526000908152604090205460ff1681565b6101a560045481565b6101a57f000000000000000000000000000000000000000000000000000000000000000081565b610187610c36565b6101a57f000000000000000000000000000000000000000000000000000000000000000081565b6101a560035481565b610187610cc3565b600254610162906001600160a01b031681565b6101876102b83660046113c2565b610d34565b6101627f000000000000000000000000000000000000000000000000000000000000000081565b6000546001600160a01b0316331461032b5760405162461bcd60e51b8152602060048201526005602482015264042c2eae8d60db1b60448201526064015b60405180910390fd5b7f0000000000000000000000000000000000000000000000000000000000000000421161039a5760405162461bcd60e51b815260206004820152600860248201527f21657870697265640000000000000000000000000000000000000000000000006044820152606401610322565b6003546040516370a0823160e01b8152306004820152600091906001600160a01b037f000000000000000000000000000000000000000000000000000000000000000016906370a0823190602401602060405180830381865afa158015610405573d6000803e3d6000fd5b505050506040513d601f19601f8201168201806040525081019061042991906113db565b610433919061140a565b600054909150610470906001600160a01b037f00000000000000000000000000000000000000000000000000000000000000008116911683610dfb565b6040518181527f740d726b1789a603e85c6b40463a98c7130ecdecdb1618b58bf1043342885bb9906020015b60405180910390a150565b6000546001600160a01b031633146104e95760405162461bcd60e51b8152602060048201526005602482015264042c2eae8d60db1b6044820152606401610322565b6002805473ffffffffffffffffffffffffffffffffffffffff19166001600160a01b0383169081179091556040519081527fef7ce00901486d0ae4bbe00a818eb6bb2f42bc78fc75571cf294c1c50c61adfd9060200161049c565b6000546001600160a01b031633146105865760405162461bcd60e51b8152602060048201526005602482015264042c2eae8d60db1b6044820152606401610322565b6105be6105b67f000000000000000000000000000000000000000000000000000000000000000062093a80611421565b600454610e90565b421061060c5760405162461bcd60e51b815260206004820152600860248201527f746f6f206c6174650000000000000000000000000000000000000000000000006044820152606401610322565b6040516370a0823160e01b81523060048201526000907f00000000000000000000000000000000000000000000000000000000000000006001600160a01b0316906370a0823190602401602060405180830381865afa158015610673573d6000803e3d6000fd5b505050506040513d601f19601f8201168201806040525081019061069791906113db565b6000549091506106d4906001600160a01b037f00000000000000000000000000000000000000000000000000000000000000008116911683610dfb565b6040517f82c202588180490f67fa4d9346c730a0c94f2b525caf39bd63427fb643f73a6990600090a150565b6001546000906107525760405162461bcd60e51b815260206004820152600560248201527f21726f6f740000000000000000000000000000000000000000000000000000006044820152606401610322565b60045442116107a35760405162461bcd60e51b815260206004820152600860248201527f21737461727465640000000000000000000000000000000000000000000000006044820152606401610322565b7f000000000000000000000000000000000000000000000000000000000000000042106108125760405162461bcd60e51b815260206004820152600760248201527f21616374697665000000000000000000000000000000000000000000000000006044820152606401610322565b600083116108625760405162461bcd60e51b815260206004820152600760248201527f21616d6f756e74000000000000000000000000000000000000000000000000006044820152606401610322565b3360009081526005602052604090205460ff16156108c25760405162461bcd60e51b815260206004820152600f60248201527f616c726561647920636c61696d656400000000000000000000000000000000006044820152606401610322565b6040516bffffffffffffffffffffffff193360601b16602082015260348101849052600090605401604051602081830303815290604052805190602001209050610943868680806020026020016040519081016040528093929190818152602001838360200280828437600092019190915250506001549150849050610ea8565b61098f5760405162461bcd60e51b815260206004820152600d60248201527f696e76616c69642070726f6f66000000000000000000000000000000000000006044820152606401610322565b336000908152600560205260409020805460ff191660011790558215610a8d576002546109ea906001600160a01b037f0000000000000000000000000000000000000000000000000000000000000000811691166000610ebe565b600254610a24906001600160a01b037f00000000000000000000000000000000000000000000000000000000000000008116911686610ebe565b60025460405163282d3fdf60e01b8152336004820152602481018690526001600160a01b039091169063282d3fdf90604401600060405180830381600087803b158015610a7057600080fd5b505af1158015610a84573d6000803e3d6000fd5b50505050610b4c565b60007f00000000000000000000000000000000000000000000000000000000000000006001600160a01b03161580610ace57506002546001600160a01b0316155b610aee57600a610adf866002611439565b610ae99190611458565b610af1565b60005b90508060036000828254610b059190611421565b90915550610b4a905033610b19838861140a565b6001600160a01b037f0000000000000000000000000000000000000000000000000000000000000000169190610dfb565b505b60408051338152602081018690528415158183015290517ffa8256f7c08bb01a03ea96f8b3a904a4450311c9725d1c52cdbe21ed3dc42dcc9181900360600190a150600195945050505050565b6000546001600160a01b03163314610bdb5760405162461bcd60e51b8152602060048201526005602482015264042c2eae8d60db1b6044820152606401610322565b6000805473ffffffffffffffffffffffffffffffffffffffff19166001600160a01b0383169081179091556040519081527fe44f98492340b33cca2c1f812e0f05006c6612a7e5dc10304debc6c6156d4d409060200161049c565b600380546000909155610c936001600160a01b037f0000000000000000000000000000000000000000000000000000000000000000167f000000000000000000000000000000000000000000000000000000000000000083610dfb565b6040518181527f39346cbe10cbb5c94debda36f2afe71c5dbe015ad0b194b6df8498c815137d249060200161049c565b6000546001600160a01b03163314610d055760405162461bcd60e51b8152602060048201526005602482015264042c2eae8d60db1b6044820152606401610322565b426004556040517f4d420acb8e6b2d53514712e44f7e6b7354d54fc5fa0adab5aee3bb60d81eb0f890600090a1565b6000546001600160a01b03163314610d765760405162461bcd60e51b8152602060048201526005602482015264042c2eae8d60db1b6044820152606401610322565b60015415610dc65760405162461bcd60e51b815260206004820152600b60248201527f616c7265616479207365740000000000000000000000000000000000000000006044820152606401610322565b60018190556040518181527f2ae0bd135f5bcfc82b9dbffdabe76051e763c2ed1c7188197181a575aa0e55b39060200161049c565b6040516001600160a01b038316602482015260448101829052610e8b90849063a9059cbb60e01b906064015b60408051601f198184030181529190526020810180517bffffffffffffffffffffffffffffffffffffffffffffffffffffffff167fffffffff0000000000000000000000000000000000000000000000000000000090931692909217909152610fda565b505050565b6000818310610e9f5781610ea1565b825b9392505050565b600082610eb585846110bf565b14949350505050565b801580610f385750604051636eb1769f60e11b81523060048201526001600160a01b03838116602483015284169063dd62ed3e90604401602060405180830381865afa158015610f12573d6000803e3d6000fd5b505050506040513d601f19601f82011682018060405250810190610f3691906113db565b155b610faa5760405162461bcd60e51b815260206004820152603660248201527f5361666545524332303a20617070726f76652066726f6d206e6f6e2d7a65726f60448201527f20746f206e6f6e2d7a65726f20616c6c6f77616e6365000000000000000000006064820152608401610322565b6040516001600160a01b038316602482015260448101829052610e8b90849063095ea7b360e01b90606401610e27565b600061102f826040518060400160405280602081526020017f5361666545524332303a206c6f772d6c6576656c2063616c6c206661696c6564815250856001600160a01b031661116b9092919063ffffffff16565b805190915015610e8b578080602001905181019061104d919061147a565b610e8b5760405162461bcd60e51b815260206004820152602a60248201527f5361666545524332303a204552433230206f7065726174696f6e20646964206e60448201527f6f742073756363656564000000000000000000000000000000000000000000006064820152608401610322565b600081815b84518110156111635760008582815181106110e1576110e1611497565b60200260200101519050808311611123576040805160208101859052908101829052606001604051602081830303815290604052805190602001209250611150565b60408051602081018390529081018490526060016040516020818303038152906040528051906020012092505b508061115b816114ad565b9150506110c4565b509392505050565b606061117a8484600085611182565b949350505050565b6060824710156111fa5760405162461bcd60e51b815260206004820152602660248201527f416464726573733a20696e73756666696369656e742062616c616e636520666f60448201527f722063616c6c00000000000000000000000000000000000000000000000000006064820152608401610322565b843b6112485760405162461bcd60e51b815260206004820152601d60248201527f416464726573733a2063616c6c20746f206e6f6e2d636f6e74726163740000006044820152606401610322565b600080866001600160a01b0316858760405161126491906114f8565b60006040518083038185875af1925050503d80600081146112a1576040519150601f19603f3d011682016040523d82523d6000602084013e6112a6565b606091505b50915091506112b68282866112c1565b979650505050505050565b606083156112d0575081610ea1565b8251156112e05782518084602001fd5b8160405162461bcd60e51b81526004016103229190611514565b60006020828403121561130c57600080fd5b81356001600160a01b0381168114610ea157600080fd5b801515811461133157600080fd5b50565b6000806000806060858703121561134a57600080fd5b843567ffffffffffffffff8082111561136257600080fd5b818701915087601f83011261137657600080fd5b81358181111561138557600080fd5b8860208260051b850101111561139a57600080fd5b60209283019650945050850135915060408501356113b781611323565b939692955090935050565b6000602082840312156113d457600080fd5b5035919050565b6000602082840312156113ed57600080fd5b5051919050565b634e487b7160e01b600052601160045260246000fd5b60008282101561141c5761141c6113f4565b500390565b60008219821115611434576114346113f4565b500190565b6000816000190483118215151615611453576114536113f4565b500290565b60008261147557634e487b7160e01b600052601260045260246000fd5b500490565b60006020828403121561148c57600080fd5b8151610ea181611323565b634e487b7160e01b600052603260045260246000fd5b60006000198214156114c1576114c16113f4565b5060010190565b60005b838110156114e35781810151838201526020016114cb565b838111156114f2576000848401525b50505050565b6000825161150a8184602087016114c8565b9190910192915050565b60208152600082518060208401526115338160408501602087016114c8565b601f01601f1916919091016040019291505056fea164736f6c634300080b000a",
  "linkReferences": {},
  "deployedLinkReferences": {}
}