{
  "_format": "hh-sol-artifact-1",
  "contractName": "AuraToken",
  "sourceName": "contracts/Aura.sol",
  "abi": [
    {
      "inputs": [
        {
          "internalType": "address",
          "name": "_proxy",
          "type": "address"
        },
        {
          "internalType": "string",
          "name": "_nameArg",
          "type": "string"
        },
        {
          "internalType": "string",
          "name": "_symbolArg",
          "type": "string"
        }
      ],
      "stateMutability": "nonpayable",
      "type": "constructor"
    },
    {
      "anonymous": false,
      "inputs": [
        {
          "indexed": true,
          "internalType": "address",
          "name": "owner",
          "type": "address"
        },
        {
          "indexed": true,
          "internalType": "address",
          "name": "spender",
          "type": "address"
        },
        {
          "indexed": false,
          "internalType": "uint256",
          "name": "value",
          "type": "uint256"
        }
      ],
      "name": "Approval",
      "type": "event"
    },
    {
      "anonymous": false,
      "inputs": [],
      "name": "Initialised",
      "type": "event"
    },
    {
      "anonymous": false,
      "inputs": [
        {
          "indexed": true,
          "internalType": "address",
          "name": "previousOperator",
          "type": "address"
        },
        {
          "indexed": true,
          "internalType": "address",
          "name": "newOperator",
          "type": "address"
        }
      ],
      "name": "OperatorChanged",
      "type": "event"
    },
    {
      "anonymous": false,
      "inputs": [
        {
          "indexed": true,
          "internalType": "address",
          "name": "from",
          "type": "address"
        },
        {
          "indexed": true,
          "internalType": "address",
          "name": "to",
          "type": "address"
        },
        {
          "indexed": false,
          "internalType": "uint256",
          "name": "value",
          "type": "uint256"
        }
      ],
      "name": "Transfer",
      "type": "event"
    },
    {
      "inputs": [],
      "name": "EMISSIONS_MAX_SUPPLY",
      "outputs": [
        {
          "internalType": "uint256",
          "name": "",
          "type": "uint256"
        }
      ],
      "stateMutability": "view",
      "type": "function"
    },
    {
      "inputs": [
        {
          "internalType": "address",
          "name": "owner",
          "type": "address"
        },
        {
          "internalType": "address",
          "name": "spender",
          "type": "address"
        }
      ],
      "name": "allowance",
      "outputs": [
        {
          "internalType": "uint256",
          "name": "",
          "type": "uint256"
        }
      ],
      "stateMutability": "view",
      "type": "function"
    },
    {
      "inputs": [
        {
          "internalType": "address",
          "name": "spender",
          "type": "address"
        },
        {
          "internalType": "uint256",
          "name": "amount",
          "type": "uint256"
        }
      ],
      "name": "approve",
      "outputs": [
        {
          "internalType": "bool",
          "name": "",
          "type": "bool"
        }
      ],
      "stateMutability": "nonpayable",
      "type": "function"
    },
    {
      "inputs": [
        {
          "internalType": "address",
          "name": "account",
          "type": "address"
        }
      ],
      "name": "balanceOf",
      "outputs": [
        {
          "internalType": "uint256",
          "name": "",
          "type": "uint256"
        }
      ],
      "stateMutability": "view",
      "type": "function"
    },
    {
      "inputs": [],
      "name": "decimals",
      "outputs": [
        {
          "internalType": "uint8",
          "name": "",
          "type": "uint8"
        }
      ],
      "stateMutability": "view",
      "type": "function"
    },
    {
      "inputs": [
        {
          "internalType": "address",
          "name": "spender",
          "type": "address"
        },
        {
          "internalType": "uint256",
          "name": "subtractedValue",
          "type": "uint256"
        }
      ],
      "name": "decreaseAllowance",
      "outputs": [
        {
          "internalType": "bool",
          "name": "",
          "type": "bool"
        }
      ],
      "stateMutability": "nonpayable",
      "type": "function"
    },
    {
      "inputs": [
        {
          "internalType": "address",
          "name": "spender",
          "type": "address"
        },
        {
          "internalType": "uint256",
          "name": "addedValue",
          "type": "uint256"
        }
      ],
      "name": "increaseAllowance",
      "outputs": [
        {
          "internalType": "bool",
          "name": "",
          "type": "bool"
        }
      ],
      "stateMutability": "nonpayable",
      "type": "function"
    },
    {
      "inputs": [
        {
          "internalType": "address",
          "name": "_to",
          "type": "address"
        },
        {
          "internalType": "uint256",
          "name": "_amount",
          "type": "uint256"
        },
        {
          "internalType": "address",
          "name": "_minter",
          "type": "address"
        }
      ],
      "name": "init",
      "outputs": [],
      "stateMutability": "nonpayable",
      "type": "function"
    },
    {
      "inputs": [
        {
          "internalType": "address",
          "name": "_to",
          "type": "address"
        },
        {
          "internalType": "uint256",
          "name": "_amount",
          "type": "uint256"
        }
      ],
      "name": "mint",
      "outputs": [],
      "stateMutability": "nonpayable",
      "type": "function"
    },
    {
      "inputs": [],
      "name": "minter",
      "outputs": [
        {
          "internalType": "address",
          "name": "",
          "type": "address"
        }
      ],
      "stateMutability": "view",
      "type": "function"
    },
    {
      "inputs": [
        {
          "internalType": "address",
          "name": "_to",
          "type": "address"
        },
        {
          "internalType": "uint256",
          "name": "_amount",
          "type": "uint256"
        }
      ],
      "name": "minterMint",
      "outputs": [],
      "stateMutability": "nonpayable",
      "type": "function"
    },
    {
      "inputs": [],
      "name": "name",
      "outputs": [
        {
          "internalType": "string",
          "name": "",
          "type": "string"
        }
      ],
      "stateMutability": "view",
      "type": "function"
    },
    {
      "inputs": [],
      "name": "operator",
      "outputs": [
        {
          "internalType": "address",
          "name": "",
          "type": "address"
        }
      ],
      "stateMutability": "view",
      "type": "function"
    },
    {
      "inputs": [],
      "name": "reductionPerCliff",
      "outputs": [
        {
          "internalType": "uint256",
          "name": "",
          "type": "uint256"
        }
      ],
      "stateMutability": "view",
      "type": "function"
    },
    {
      "inputs": [],
      "name": "symbol",
      "outputs": [
        {
          "internalType": "string",
          "name": "",
          "type": "string"
        }
      ],
      "stateMutability": "view",
      "type": "function"
    },
    {
      "inputs": [],
      "name": "totalCliffs",
      "outputs": [
        {
          "internalType": "uint256",
          "name": "",
          "type": "uint256"
        }
      ],
      "stateMutability": "view",
      "type": "function"
    },
    {
      "inputs": [],
      "name": "totalSupply",
      "outputs": [
        {
          "internalType": "uint256",
          "name": "",
          "type": "uint256"
        }
      ],
      "stateMutability": "view",
      "type": "function"
    },
    {
      "inputs": [
        {
          "internalType": "address",
          "name": "recipient",
          "type": "address"
        },
        {
          "internalType": "uint256",
          "name": "amount",
          "type": "uint256"
        }
      ],
      "name": "transfer",
      "outputs": [
        {
          "internalType": "bool",
          "name": "",
          "type": "bool"
        }
      ],
      "stateMutability": "nonpayable",
      "type": "function"
    },
    {
      "inputs": [
        {
          "internalType": "address",
          "name": "sender",
          "type": "address"
        },
        {
          "internalType": "address",
          "name": "recipient",
          "type": "address"
        },
        {
          "internalType": "uint256",
          "name": "amount",
          "type": "uint256"
        }
      ],
      "name": "transferFrom",
      "outputs": [
        {
          "internalType": "bool",
          "name": "",
          "type": "bool"
        }
      ],
      "stateMutability": "nonpayable",
      "type": "function"
    },
    {
      "inputs": [],
      "name": "updateOperator",
      "outputs": [],
      "stateMutability": "nonpayable",
      "type": "function"
    },
    {
      "inputs": [],
      "name": "vecrvProxy",
      "outputs": [
        {
          "internalType": "address",
          "name": "",
          "type": "address"
        }
      ],
      "stateMutability": "view",
      "type": "function"
    }
  ],
  "bytecode": "0x60c06040526000196007553480156200001757600080fd5b5060405162001466380380620014668339810160408190526200003a9162000247565b81518290829062000053906003906020850190620000d4565b50805162000069906004906020840190620000d4565b505060058054336001600160a01b0319909116179055506001600160a01b038316608052620000b26a295be96e640669720000006101f4620000bf602090811b62000a6d17901c565b60a0525062000331915050565b6000620000cd8284620002d1565b9392505050565b828054620000e290620002f4565b90600052602060002090601f01602090048101928262000106576000855562000151565b82601f106200012157805160ff191683800117855562000151565b8280016001018555821562000151579182015b828111156200015157825182559160200191906001019062000134565b506200015f92915062000163565b5090565b5b808211156200015f576000815560010162000164565b634e487b7160e01b600052604160045260246000fd5b600082601f830112620001a257600080fd5b81516001600160401b0380821115620001bf57620001bf6200017a565b604051601f8301601f19908116603f01168101908282118183101715620001ea57620001ea6200017a565b816040528381526020925086838588010111156200020757600080fd5b600091505b838210156200022b57858201830151818301840152908201906200020c565b838211156200023d5760008385830101525b9695505050505050565b6000806000606084860312156200025d57600080fd5b83516001600160a01b03811681146200027557600080fd5b60208501519093506001600160401b03808211156200029357600080fd5b620002a18783880162000190565b93506040860151915080821115620002b857600080fd5b50620002c78682870162000190565b9150509250925092565b600082620002ef57634e487b7160e01b600052601260045260246000fd5b500490565b600181811c908216806200030957607f821691505b602082108114156200032b57634e487b7160e01b600052602260045260246000fd5b50919050565b60805160a05161110162000365600039600081816102e2015261064301526000818161035c015261098001526111016000f3fe608060405234801561001057600080fd5b50600436106101775760003560e01c806343fc00b8116100d8578063a9059cbb1161008c578063dd62ed3e11610066578063dd62ed3e1461030c578063e6c6700e14610345578063fca975a11461035757600080fd5b8063a9059cbb146102ca578063aa74e622146102dd578063d5934b761461030457600080fd5b806370a08231116100bd57806370a082311461028657806395d89b41146102af578063a457c2d7146102b757600080fd5b806343fc00b814610260578063570ca7351461027357600080fd5b806321f314ca1161012f578063313ce56711610114578063313ce5671461022b578063395093511461023a57806340c10f191461024d57600080fd5b806321f314ca1461020357806323b872dd1461021857600080fd5b8063095ea7b311610160578063095ea7b3146101c557806318160ddd146101e85780631f96e76f146101fa57600080fd5b806306fdde031461017c578063075461721461019a575b600080fd5b61018461037e565b6040516101919190610ea4565b60405180910390f35b6006546101ad906001600160a01b031681565b6040516001600160a01b039091168152602001610191565b6101d86101d3366004610f11565b610410565b6040519015158152602001610191565b6002545b604051908152602001610191565b6101ec6101f481565b610216610211366004610f11565b610426565b005b6101d8610226366004610f3d565b6104ab565b60405160128152602001610191565b6101d8610248366004610f11565b61056a565b61021661025b366004610f11565b6105a6565b61021661026e366004610f7e565b6106f2565b6005546101ad906001600160a01b031681565b6101ec610294366004610fc0565b6001600160a01b031660009081526020819052604090205490565b6101846108af565b6101d86102c5366004610f11565b6108be565b6101d86102d8366004610f11565b61096f565b6101ec7f000000000000000000000000000000000000000000000000000000000000000081565b61021661097c565b6101ec61031a366004610fdd565b6001600160a01b03918216600090815260016020908152604080832093909416825291909152205490565b6101ec6a295be96e6406697200000081565b6101ad7f000000000000000000000000000000000000000000000000000000000000000081565b60606003805461038d90611016565b80601f01602080910402602001604051908101604052809291908181526020018280546103b990611016565b80156104065780601f106103db57610100808354040283529160200191610406565b820191906000526020600020905b8154815290600101906020018083116103e957829003601f168201915b5050505050905090565b600061041d338484610a80565b50600192915050565b6006546001600160a01b031633146104855760405162461bcd60e51b815260206004820152600b60248201527f4f6e6c79206d696e74657200000000000000000000000000000000000000000060448201526064015b60405180910390fd5b80600760008282546104979190611067565b909155506104a790508282610ba4565b5050565b60006104b8848484610c83565b6001600160a01b0384166000908152600160209081526040808320338452909152902054828110156105525760405162461bcd60e51b815260206004820152602860248201527f45524332303a207472616e7366657220616d6f756e742065786365656473206160448201527f6c6c6f77616e6365000000000000000000000000000000000000000000000000606482015260840161047c565b61055f8533858403610a80565b506001949350505050565b3360008181526001602090815260408083206001600160a01b0387168452909152812054909161041d9185906105a1908690611067565b610a80565b6002546105f55760405162461bcd60e51b815260206004820152600f60248201527f4e6f7420696e697469616c697365640000000000000000000000000000000000604482015260640161047c565b6005546001600160a01b0316331461060b575050565b60006007546a295be96e6406697200000061062560025490565b61062f919061107f565b610639919061107f565b90506000610667827f0000000000000000000000000000000000000000000000000000000000000000610a6d565b90506101f48110156106ec5760006106a36102bc61069d600261069760056106916101f489610e80565b90610e8c565b90610a6d565b90610e98565b905060006106b76101f46106978785610e8c565b905060006106d06a295be96e6406697200000086610e80565b9050808211156106de578091505b6106e88783610ba4565b5050505b50505050565b6005546001600160a01b0316331461074c5760405162461bcd60e51b815260206004820152600d60248201527f4f6e6c79206f70657261746f7200000000000000000000000000000000000000604482015260640161047c565b6002541561079c5760405162461bcd60e51b815260206004820152600960248201527f4f6e6c79206f6e63650000000000000000000000000000000000000000000000604482015260640161047c565b600082116107ec5760405162461bcd60e51b815260206004820152601360248201527f4d757374206d696e7420736f6d657468696e6700000000000000000000000000604482015260640161047c565b6001600160a01b0381166108425760405162461bcd60e51b815260206004820152600e60248201527f496e76616c6964206d696e746572000000000000000000000000000000000000604482015260640161047c565b61084c8383610ba4565b61085461097c565b6006805473ffffffffffffffffffffffffffffffffffffffff19166001600160a01b038316179055600060078190556040517f09dfb9099a2610601d58030170fde7ae9db3e1bcb751c3d6800216cbe3b499b59190a1505050565b60606004805461038d90611016565b3360009081526001602090815260408083206001600160a01b0386168452909152812054828110156109585760405162461bcd60e51b815260206004820152602560248201527f45524332303a2064656372656173656420616c6c6f77616e63652062656c6f7760448201527f207a65726f000000000000000000000000000000000000000000000000000000606482015260840161047c565b6109653385858403610a80565b5060019392505050565b600061041d338484610c83565b60007f00000000000000000000000000000000000000000000000000000000000000006001600160a01b031663570ca7356040518163ffffffff1660e01b8152600401602060405180830381865afa1580156109dc573d6000803e3d6000fd5b505050506040513d601f19601f82011682018060405250810190610a009190611096565b6005546040519192506001600160a01b03808416929116907fd58299b712891143e76310d5e664c4203c940a67db37cf856bdaa3c5c76a802c90600090a36005805473ffffffffffffffffffffffffffffffffffffffff19166001600160a01b0392909216919091179055565b6000610a7982846110b3565b9392505050565b6001600160a01b038316610ae25760405162461bcd60e51b8152602060048201526024808201527f45524332303a20617070726f76652066726f6d20746865207a65726f206164646044820152637265737360e01b606482015260840161047c565b6001600160a01b038216610b435760405162461bcd60e51b815260206004820152602260248201527f45524332303a20617070726f766520746f20746865207a65726f206164647265604482015261737360f01b606482015260840161047c565b6001600160a01b0383811660008181526001602090815260408083209487168084529482529182902085905590518481527f8c5be1e5ebec7d5bd14f71427d1e84f3dd0314c0f7b2291e5b200ac8c7c3b925910160405180910390a3505050565b6001600160a01b038216610bfa5760405162461bcd60e51b815260206004820152601f60248201527f45524332303a206d696e7420746f20746865207a65726f206164647265737300604482015260640161047c565b8060026000828254610c0c9190611067565b90915550506001600160a01b03821660009081526020819052604081208054839290610c39908490611067565b90915550506040518181526001600160a01b038316906000907fddf252ad1be2c89b69c2b068fc378daa952ba7f163c4a11628f55a4df523b3ef9060200160405180910390a35050565b6001600160a01b038316610cff5760405162461bcd60e51b815260206004820152602560248201527f45524332303a207472616e736665722066726f6d20746865207a65726f20616460448201527f6472657373000000000000000000000000000000000000000000000000000000606482015260840161047c565b6001600160a01b038216610d615760405162461bcd60e51b815260206004820152602360248201527f45524332303a207472616e7366657220746f20746865207a65726f206164647260448201526265737360e81b606482015260840161047c565b6001600160a01b03831660009081526020819052604090205481811015610df05760405162461bcd60e51b815260206004820152602660248201527f45524332303a207472616e7366657220616d6f756e742065786365656473206260448201527f616c616e63650000000000000000000000000000000000000000000000000000606482015260840161047c565b6001600160a01b03808516600090815260208190526040808220858503905591851681529081208054849290610e27908490611067565b92505081905550826001600160a01b0316846001600160a01b03167fddf252ad1be2c89b69c2b068fc378daa952ba7f163c4a11628f55a4df523b3ef84604051610e7391815260200190565b60405180910390a36106ec565b6000610a79828461107f565b6000610a7982846110d5565b6000610a798284611067565b600060208083528351808285015260005b81811015610ed157858101830151858201604001528201610eb5565b81811115610ee3576000604083870101525b50601f01601f1916929092016040019392505050565b6001600160a01b0381168114610f0e57600080fd5b50565b60008060408385031215610f2457600080fd5b8235610f2f81610ef9565b946020939093013593505050565b600080600060608486031215610f5257600080fd5b8335610f5d81610ef9565b92506020840135610f6d81610ef9565b929592945050506040919091013590565b600080600060608486031215610f9357600080fd5b8335610f9e81610ef9565b9250602084013591506040840135610fb581610ef9565b809150509250925092565b600060208284031215610fd257600080fd5b8135610a7981610ef9565b60008060408385031215610ff057600080fd5b8235610ffb81610ef9565b9150602083013561100b81610ef9565b809150509250929050565b600181811c9082168061102a57607f821691505b6020821081141561104b57634e487b7160e01b600052602260045260246000fd5b50919050565b634e487b7160e01b600052601160045260246000fd5b6000821982111561107a5761107a611051565b500190565b60008282101561109157611091611051565b500390565b6000602082840312156110a857600080fd5b8151610a7981610ef9565b6000826110d057634e487b7160e01b600052601260045260246000fd5b500490565b60008160001904831182151516156110ef576110ef611051565b50029056fea164736f6c634300080b000a",
  "linkReferences": {},
  "deployedLinkReferences": {}
}