{
  "_format": "hh-sol-artifact-1",
  "contractName": "AuraStakingProxy",
  "sourceName": "contracts/AuraStakingProxy.sol",
  "abi": [
    {
      "inputs": [
        {
          "internalType": "address",
          "name": "_rewards",
          "type": "address"
        },
        {
          "internalType": "address",
          "name": "_crv",
          "type": "address"
        },
        {
          "internalType": "address",
          "name": "_cvx",
          "type": "address"
        },
        {
          "internalType": "address",
          "name": "_cvxCrv",
          "type": "address"
        },
        {
          "internalType": "address",
          "name": "_crvDepositorWrapper",
          "type": "address"
        },
        {
          "internalType": "uint256",
          "name": "_outputBps",
          "type": "uint256"
        }
      ],
      "stateMutability": "nonpayable",
      "type": "constructor"
    },
    {
      "anonymous": false,
      "inputs": [
        {
          "indexed": false,
          "internalType": "uint256",
          "name": "incentive",
          "type": "uint256"
        }
      ],
      "name": "CallIncentiveChanged",
      "type": "event"
    },
    {
      "anonymous": false,
      "inputs": [
        {
          "indexed": true,
          "internalType": "address",
          "name": "token",
          "type": "address"
        },
        {
          "indexed": false,
          "internalType": "uint256",
          "name": "amount",
          "type": "uint256"
        }
      ],
      "name": "RewardsDistributed",
      "type": "event"
    },
    {
      "inputs": [],
      "name": "applyPendingOwner",
      "outputs": [],
      "stateMutability": "nonpayable",
      "type": "function"
    },
    {
      "inputs": [],
      "name": "callIncentive",
      "outputs": [
        {
          "internalType": "uint256",
          "name": "",
          "type": "uint256"
        }
      ],
      "stateMutability": "view",
      "type": "function"
    },
    {
      "inputs": [],
      "name": "crv",
      "outputs": [
        {
          "internalType": "address",
          "name": "",
          "type": "address"
        }
      ],
      "stateMutability": "view",
      "type": "function"
    },
    {
      "inputs": [],
      "name": "crvDepositorWrapper",
      "outputs": [
        {
          "internalType": "address",
          "name": "",
          "type": "address"
        }
      ],
      "stateMutability": "view",
      "type": "function"
    },
    {
      "inputs": [],
      "name": "cvx",
      "outputs": [
        {
          "internalType": "address",
          "name": "",
          "type": "address"
        }
      ],
      "stateMutability": "view",
      "type": "function"
    },
    {
      "inputs": [],
      "name": "cvxCrv",
      "outputs": [
        {
          "internalType": "address",
          "name": "",
          "type": "address"
        }
      ],
      "stateMutability": "view",
      "type": "function"
    },
    {
      "inputs": [],
      "name": "denominator",
      "outputs": [
        {
          "internalType": "uint256",
          "name": "",
          "type": "uint256"
        }
      ],
      "stateMutability": "view",
      "type": "function"
    },
    {
      "inputs": [],
      "name": "distribute",
      "outputs": [],
      "stateMutability": "nonpayable",
      "type": "function"
    },
    {
      "inputs": [
        {
          "internalType": "contract IERC20",
          "name": "_token",
          "type": "address"
        }
      ],
      "name": "distributeOther",
      "outputs": [],
      "stateMutability": "nonpayable",
      "type": "function"
    },
    {
      "inputs": [],
      "name": "keeper",
      "outputs": [
        {
          "internalType": "address",
          "name": "",
          "type": "address"
        }
      ],
      "stateMutability": "view",
      "type": "function"
    },
    {
      "inputs": [],
      "name": "outputBps",
      "outputs": [
        {
          "internalType": "uint256",
          "name": "",
          "type": "uint256"
        }
      ],
      "stateMutability": "view",
      "type": "function"
    },
    {
      "inputs": [],
      "name": "owner",
      "outputs": [
        {
          "internalType": "address",
          "name": "",
          "type": "address"
        }
      ],
      "stateMutability": "view",
      "type": "function"
    },
    {
      "inputs": [],
      "name": "pendingOwner",
      "outputs": [
        {
          "internalType": "address",
          "name": "",
          "type": "address"
        }
      ],
      "stateMutability": "view",
      "type": "function"
    },
    {
      "inputs": [
        {
          "internalType": "address",
          "name": "_token",
          "type": "address"
        },
        {
          "internalType": "address",
          "name": "_to",
          "type": "address"
        }
      ],
      "name": "rescueToken",
      "outputs": [],
      "stateMutability": "nonpayable",
      "type": "function"
    },
    {
      "inputs": [],
      "name": "rewards",
      "outputs": [
        {
          "internalType": "address",
          "name": "",
          "type": "address"
        }
      ],
      "stateMutability": "view",
      "type": "function"
    },
    {
      "inputs": [],
      "name": "setApprovals",
      "outputs": [],
      "stateMutability": "nonpayable",
      "type": "function"
    },
    {
      "inputs": [
        {
          "internalType": "uint256",
          "name": "_incentive",
          "type": "uint256"
        }
      ],
      "name": "setCallIncentive",
      "outputs": [],
      "stateMutability": "nonpayable",
      "type": "function"
    },
    {
      "inputs": [
        {
          "internalType": "address",
          "name": "_crvDepositorWrapper",
          "type": "address"
        },
        {
          "internalType": "uint256",
          "name": "_outputBps",
          "type": "uint256"
        }
      ],
      "name": "setCrvDepositorWrapper",
      "outputs": [],
      "stateMutability": "nonpayable",
      "type": "function"
    },
    {
      "inputs": [
        {
          "internalType": "address",
          "name": "_keeper",
          "type": "address"
        }
      ],
      "name": "setKeeper",
      "outputs": [],
      "stateMutability": "nonpayable",
      "type": "function"
    },
    {
      "inputs": [
        {
          "internalType": "address",
          "name": "_po",
          "type": "address"
        }
      ],
      "name": "setPendingOwner",
      "outputs": [],
      "stateMutability": "nonpayable",
      "type": "function"
    },
    {
      "inputs": [
        {
          "internalType": "address",
          "name": "_rewards",
          "type": "address"
        }
      ],
      "name": "setRewards",
      "outputs": [],
      "stateMutability": "nonpayable",
      "type": "function"
    }
  ],
  "bytecode": "0x60e060405260196006553480156200001657600080fd5b5060405162001714380380620017148339810160408190526200003991620000aa565b600380546001600160a01b03199081166001600160a01b0398891617909155600480543390831617905594861660805292851660a05290841660c05260018054909316931692909217905560025562000122565b80516001600160a01b0381168114620000a557600080fd5b919050565b60008060008060008060c08789031215620000c457600080fd5b620000cf876200008d565b9550620000df602088016200008d565b9450620000ef604088016200008d565b9350620000ff606088016200008d565b92506200010f608088016200008d565b915060a087015190509295509295509295565b60805160a05160c051611567620001ad60003960008181610208015281816103f90152818161052d015281816108e70152818161092201528181610d3d01528181610df00152610e7701526000818161024a01526103bb0152600081816101a90152818161037e015281816104f001528181610870015281816108ab0152610bb201526115676000f3fe608060405234801561001057600080fd5b50600436106101775760003560e01c806399183f0a116100d8578063cc7554eb1161008c578063e30c397811610066578063e30c397814610307578063e4fc6b6d1461031a578063ec38a8621461032257600080fd5b8063cc7554eb146102d8578063dc66a541146102eb578063dfa736cf146102fe57600080fd5b8063aced1661116100bd578063aced1661146102a9578063c42069ec146102bc578063cb22356b146102cf57600080fd5b806399183f0a146102835780639ec5a8941461029657600080fd5b806382480df91161012f5780638da5cb5b116101145780638da5cb5b14610232578063923c1d611461024557806396ce07951461026c57600080fd5b806382480df9146102035780638757b15b1461022a57600080fd5b80636a4874a1116101605780636a4874a1146101a45780636d4a2ea1146101e8578063748747e6146101f057600080fd5b80634707d0001461017c57806351c92b1314610191575b600080fd5b61018f61018a366004611397565b610335565b005b61018f61019f3660046113d0565b6104ee565b6101cb7f000000000000000000000000000000000000000000000000000000000000000081565b6040516001600160a01b0390911681526020015b60405180910390f35b61018f61073a565b61018f6101fe3660046113d0565b6107fb565b6101cb7f000000000000000000000000000000000000000000000000000000000000000081565b61018f61085f565b6004546101cb906001600160a01b031681565b6101cb7f000000000000000000000000000000000000000000000000000000000000000081565b61027561271081565b6040519081526020016101df565b6001546101cb906001600160a01b031681565b6003546101cb906001600160a01b031681565b6000546101cb906001600160a01b031681565b61018f6102ca3660046113d0565b61094f565b61027560065481565b61018f6102e63660046113ed565b6109b3565b61018f6102f9366004611406565b610a81565b61027560025481565b6005546101cb906001600160a01b031681565b61018f610b47565b61018f6103303660046113d0565b610ed0565b6004546001600160a01b0316331461037c5760405162461bcd60e51b8152602060048201526005602482015264042c2eae8d60db1b60448201526064015b60405180910390fd5b7f00000000000000000000000000000000000000000000000000000000000000006001600160a01b0316826001600160a01b0316141580156103f057507f00000000000000000000000000000000000000000000000000000000000000006001600160a01b0316826001600160a01b031614155b801561042e57507f00000000000000000000000000000000000000000000000000000000000000006001600160a01b0316826001600160a01b031614155b6104685760405162461bcd60e51b815260206004820152600b60248201526a1b9bdd08185b1b1bddd95960aa1b6044820152606401610373565b6040516370a0823160e01b81523060048201526000906001600160a01b038416906370a0823190602401602060405180830381865afa1580156104af573d6000803e3d6000fd5b505050506040513d601f19601f820116820180604052508101906104d39190611432565b90506104e96001600160a01b0384168383610f34565b505050565b7f00000000000000000000000000000000000000000000000000000000000000006001600160a01b0316816001600160a01b03161415801561056257507f00000000000000000000000000000000000000000000000000000000000000006001600160a01b0316816001600160a01b031614155b61059c5760405162461bcd60e51b815260206004820152600b60248201526a1b9bdd08185b1b1bddd95960aa1b6044820152606401610373565b6040516370a0823160e01b81523060048201526000906001600160a01b038316906370a0823190602401602060405180830381865afa1580156105e3573d6000803e3d6000fd5b505050506040513d601f19601f820116820180604052508101906106079190611432565b9050801561073657600061063261271061062c60065485610fc490919063ffffffff16565b90610fd7565b905061063e8282610fe3565b91506106546001600160a01b0384163383610f34565b60035461066f906001600160a01b0385811691166000610fef565b60035461068b906001600160a01b038581169116600019610fef565b60035460405163b66503cf60e01b81526001600160a01b038581166004830152602482018590529091169063b66503cf90604401600060405180830381600087803b1580156106d957600080fd5b505af11580156106ed573d6000803e3d6000fd5b50505050826001600160a01b03167fdf29796aad820e4bb192f3a8d631b76519bcd2cbe77cc85af20e9df53cece0868360405161072c91815260200190565b60405180910390a2505b5050565b6004546001600160a01b0316331461077c5760405162461bcd60e51b8152602060048201526005602482015264042c2eae8d60db1b6044820152606401610373565b6005546001600160a01b03166107d45760405162461bcd60e51b815260206004820152600d60248201527f696e76616c6964206f776e6572000000000000000000000000000000000000006044820152606401610373565b60058054600480546001600160a01b03199081166001600160a01b03841617909155169055565b6004546001600160a01b0316331461083d5760405162461bcd60e51b8152602060048201526005602482015264042c2eae8d60db1b6044820152606401610373565b600080546001600160a01b0319166001600160a01b0392909216919091179055565b60015461089a906001600160a01b037f0000000000000000000000000000000000000000000000000000000000000000811691166000610fef565b6001546108d6906001600160a01b037f000000000000000000000000000000000000000000000000000000000000000081169116600019610fef565b600354610911906001600160a01b037f0000000000000000000000000000000000000000000000000000000000000000811691166000610fef565b60035461094d906001600160a01b037f000000000000000000000000000000000000000000000000000000000000000081169116600019610fef565b565b6004546001600160a01b031633146109915760405162461bcd60e51b8152602060048201526005602482015264042c2eae8d60db1b6044820152606401610373565b600580546001600160a01b0319166001600160a01b0392909216919091179055565b6004546001600160a01b031633146109f55760405162461bcd60e51b8152602060048201526005602482015264042c2eae8d60db1b6044820152606401610373565b6064811115610a465760405162461bcd60e51b815260206004820152600860248201527f746f6f20686967680000000000000000000000000000000000000000000000006044820152606401610373565b60068190556040518181527f951fa38a4b6a55f348bea16d4f02732f22ecf8f7d4f58cf94ea81083935fa4fa9060200160405180910390a150565b6004546001600160a01b03163314610ac35760405162461bcd60e51b8152602060048201526005602482015264042c2eae8d60db1b6044820152606401610373565b61232881118015610ad5575061271081105b610b215760405162461bcd60e51b815260206004820152601260248201527f496e76616c6964206f75747075742062707300000000000000000000000000006044820152606401610373565b600180546001600160a01b0319166001600160a01b039390931692909217909155600255565b6000546001600160a01b031615610b9a576000546001600160a01b03163314610b9a5760405162461bcd60e51b8152602060048201526005602482015264042c2eae8d60db1b6044820152606401610373565b6040516370a0823160e01b81523060048201526000907f00000000000000000000000000000000000000000000000000000000000000006001600160a01b0316906370a0823190602401602060405180830381865afa158015610c01573d6000803e3d6000fd5b505050506040513d601f19601f82011682018060405250810190610c259190611432565b90508015610d25576001546002546040516323f15c1760e01b81526000926001600160a01b0316916323f15c1791610c6a918691600401918252602082015260400190565b602060405180830381865afa158015610c87573d6000803e3d6000fd5b505050506040513d601f19601f82011682018060405250810190610cab9190611432565b600180546040516314b47b0b60e11b815260048101869052602481018490526044810192909252600060648301529192506001600160a01b0390911690632968f61690608401600060405180830381600087803b158015610d0b57600080fd5b505af1158015610d1f573d6000803e3d6000fd5b50505050505b6040516370a0823160e01b81523060048201526000907f00000000000000000000000000000000000000000000000000000000000000006001600160a01b0316906370a0823190602401602060405180830381865afa158015610d8c573d6000803e3d6000fd5b505050506040513d601f19601f82011682018060405250810190610db09190611432565b90508015610736576000610dd561271061062c60065485610fc490919063ffffffff16565b9050610de18282610fe3565b9150610e176001600160a01b037f0000000000000000000000000000000000000000000000000000000000000000163383610f34565b60035460405163590a41f560e01b8152600481018490526001600160a01b039091169063590a41f590602401600060405180830381600087803b158015610e5d57600080fd5b505af1158015610e71573d6000803e3d6000fd5b505050507f00000000000000000000000000000000000000000000000000000000000000006001600160a01b03167fdf29796aad820e4bb192f3a8d631b76519bcd2cbe77cc85af20e9df53cece0868360405161072c91815260200190565b6004546001600160a01b03163314610f125760405162461bcd60e51b8152602060048201526005602482015264042c2eae8d60db1b6044820152606401610373565b600380546001600160a01b0319166001600160a01b0392909216919091179055565b6040516001600160a01b0383166024820152604481018290526104e990849063a9059cbb60e01b906064015b60408051601f198184030181529190526020810180517bffffffffffffffffffffffffffffffffffffffffffffffffffffffff167fffffffff000000000000000000000000000000000000000000000000000000009093169290921790915261110b565b6000610fd08284611461565b9392505050565b6000610fd08284611480565b6000610fd082846114a2565b8015806110695750604051636eb1769f60e11b81523060048201526001600160a01b03838116602483015284169063dd62ed3e90604401602060405180830381865afa158015611043573d6000803e3d6000fd5b505050506040513d601f19601f820116820180604052508101906110679190611432565b155b6110db5760405162461bcd60e51b815260206004820152603660248201527f5361666545524332303a20617070726f76652066726f6d206e6f6e2d7a65726f60448201527f20746f206e6f6e2d7a65726f20616c6c6f77616e6365000000000000000000006064820152608401610373565b6040516001600160a01b0383166024820152604481018290526104e990849063095ea7b360e01b90606401610f60565b6000611160826040518060400160405280602081526020017f5361666545524332303a206c6f772d6c6576656c2063616c6c206661696c6564815250856001600160a01b03166111f09092919063ffffffff16565b8051909150156104e9578080602001905181019061117e91906114b9565b6104e95760405162461bcd60e51b815260206004820152602a60248201527f5361666545524332303a204552433230206f7065726174696f6e20646964206e60448201527f6f742073756363656564000000000000000000000000000000000000000000006064820152608401610373565b60606111ff8484600085611207565b949350505050565b60608247101561127f5760405162461bcd60e51b815260206004820152602660248201527f416464726573733a20696e73756666696369656e742062616c616e636520666f60448201527f722063616c6c00000000000000000000000000000000000000000000000000006064820152608401610373565b843b6112cd5760405162461bcd60e51b815260206004820152601d60248201527f416464726573733a2063616c6c20746f206e6f6e2d636f6e74726163740000006044820152606401610373565b600080866001600160a01b031685876040516112e9919061150b565b60006040518083038185875af1925050503d8060008114611326576040519150601f19603f3d011682016040523d82523d6000602084013e61132b565b606091505b509150915061133b828286611346565b979650505050505050565b60608315611355575081610fd0565b8251156113655782518084602001fd5b8160405162461bcd60e51b81526004016103739190611527565b6001600160a01b038116811461139457600080fd5b50565b600080604083850312156113aa57600080fd5b82356113b58161137f565b915060208301356113c58161137f565b809150509250929050565b6000602082840312156113e257600080fd5b8135610fd08161137f565b6000602082840312156113ff57600080fd5b5035919050565b6000806040838503121561141957600080fd5b82356114248161137f565b946020939093013593505050565b60006020828403121561144457600080fd5b5051919050565b634e487b7160e01b600052601160045260246000fd5b600081600019048311821515161561147b5761147b61144b565b500290565b60008261149d57634e487b7160e01b600052601260045260246000fd5b500490565b6000828210156114b4576114b461144b565b500390565b6000602082840312156114cb57600080fd5b81518015158114610fd057600080fd5b60005b838110156114f65781810151838201526020016114de565b83811115611505576000848401525b50505050565b6000825161151d8184602087016114db565b9190910192915050565b60208152600082518060208401526115468160408501602087016114db565b601f01601f1916919091016040019291505056fea164736f6c634300080b000a",
  "linkReferences": {},
  "deployedLinkReferences": {}
}