{
  "_format": "hh-sol-artifact-1",
  "contractName": "BaseRewardPool",
  "sourceName": "convex-platform/contracts/contracts/BaseRewardPool.sol",
  "abi": [
    {
      "inputs": [
        {
          "internalType": "uint256",
          "name": "pid_",
          "type": "uint256"
        },
        {
          "internalType": "address",
          "name": "stakingToken_",
          "type": "address"
        },
        {
          "internalType": "address",
          "name": "rewardToken_",
          "type": "address"
        },
        {
          "internalType": "address",
          "name": "operator_",
          "type": "address"
        },
        {
          "internalType": "address",
          "name": "rewardManager_",
          "type": "address"
        }
      ],
      "stateMutability": "nonpayable",
      "type": "constructor"
    },
    {
      "anonymous": false,
      "inputs": [
        {
          "indexed": false,
          "internalType": "uint256",
          "name": "reward",
          "type": "uint256"
        }
      ],
      "name": "RewardAdded",
      "type": "event"
    },
    {
      "anonymous": false,
      "inputs": [
        {
          "indexed": true,
          "internalType": "address",
          "name": "user",
          "type": "address"
        },
        {
          "indexed": false,
          "internalType": "uint256",
          "name": "reward",
          "type": "uint256"
        }
      ],
      "name": "RewardPaid",
      "type": "event"
    },
    {
      "anonymous": false,
      "inputs": [
        {
          "indexed": true,
          "internalType": "address",
          "name": "user",
          "type": "address"
        },
        {
          "indexed": false,
          "internalType": "uint256",
          "name": "amount",
          "type": "uint256"
        }
      ],
      "name": "Staked",
      "type": "event"
    },
    {
      "anonymous": false,
      "inputs": [
        {
          "indexed": true,
          "internalType": "address",
          "name": "user",
          "type": "address"
        },
        {
          "indexed": false,
          "internalType": "uint256",
          "name": "amount",
          "type": "uint256"
        }
      ],
      "name": "Withdrawn",
      "type": "event"
    },
    {
      "inputs": [
        {
          "internalType": "address",
          "name": "_reward",
          "type": "address"
        }
      ],
      "name": "addExtraReward",
      "outputs": [
        {
          "internalType": "bool",
          "name": "",
          "type": "bool"
        }
      ],
      "stateMutability": "nonpayable",
      "type": "function"
    },
    {
      "inputs": [
        {
          "internalType": "address",
          "name": "account",
          "type": "address"
        }
      ],
      "name": "balanceOf",
      "outputs": [
        {
          "internalType": "uint256",
          "name": "",
          "type": "uint256"
        }
      ],
      "stateMutability": "view",
      "type": "function"
    },
    {
      "inputs": [],
      "name": "clearExtraRewards",
      "outputs": [],
      "stateMutability": "nonpayable",
      "type": "function"
    },
    {
      "inputs": [],
      "name": "currentRewards",
      "outputs": [
        {
          "internalType": "uint256",
          "name": "",
          "type": "uint256"
        }
      ],
      "stateMutability": "view",
      "type": "function"
    },
    {
      "inputs": [
        {
          "internalType": "uint256",
          "name": "_amount",
          "type": "uint256"
        }
      ],
      "name": "donate",
      "outputs": [
        {
          "internalType": "bool",
          "name": "",
          "type": "bool"
        }
      ],
      "stateMutability": "nonpayable",
      "type": "function"
    },
    {
      "inputs": [],
      "name": "duration",
      "outputs": [
        {
          "internalType": "uint256",
          "name": "",
          "type": "uint256"
        }
      ],
      "stateMutability": "view",
      "type": "function"
    },
    {
      "inputs": [
        {
          "internalType": "address",
          "name": "account",
          "type": "address"
        }
      ],
      "name": "earned",
      "outputs": [
        {
          "internalType": "uint256",
          "name": "",
          "type": "uint256"
        }
      ],
      "stateMutability": "view",
      "type": "function"
    },
    {
      "inputs": [
        {
          "internalType": "uint256",
          "name": "",
          "type": "uint256"
        }
      ],
      "name": "extraRewards",
      "outputs": [
        {
          "internalType": "address",
          "name": "",
          "type": "address"
        }
      ],
      "stateMutability": "view",
      "type": "function"
    },
    {
      "inputs": [],
      "name": "extraRewardsLength",
      "outputs": [
        {
          "internalType": "uint256",
          "name": "",
          "type": "uint256"
        }
      ],
      "stateMutability": "view",
      "type": "function"
    },
    {
      "inputs": [],
      "name": "getReward",
      "outputs": [
        {
          "internalType": "bool",
          "name": "",
          "type": "bool"
        }
      ],
      "stateMutability": "nonpayable",
      "type": "function"
    },
    {
      "inputs": [
        {
          "internalType": "address",
          "name": "_account",
          "type": "address"
        },
        {
          "internalType": "bool",
          "name": "_claimExtras",
          "type": "bool"
        }
      ],
      "name": "getReward",
      "outputs": [
        {
          "internalType": "bool",
          "name": "",
          "type": "bool"
        }
      ],
      "stateMutability": "nonpayable",
      "type": "function"
    },
    {
      "inputs": [],
      "name": "historicalRewards",
      "outputs": [
        {
          "internalType": "uint256",
          "name": "",
          "type": "uint256"
        }
      ],
      "stateMutability": "view",
      "type": "function"
    },
    {
      "inputs": [],
      "name": "lastTimeRewardApplicable",
      "outputs": [
        {
          "internalType": "uint256",
          "name": "",
          "type": "uint256"
        }
      ],
      "stateMutability": "view",
      "type": "function"
    },
    {
      "inputs": [],
      "name": "lastUpdateTime",
      "outputs": [
        {
          "internalType": "uint256",
          "name": "",
          "type": "uint256"
        }
      ],
      "stateMutability": "view",
      "type": "function"
    },
    {
      "inputs": [],
      "name": "newRewardRatio",
      "outputs": [
        {
          "internalType": "uint256",
          "name": "",
          "type": "uint256"
        }
      ],
      "stateMutability": "view",
      "type": "function"
    },
    {
      "inputs": [],
      "name": "operator",
      "outputs": [
        {
          "internalType": "address",
          "name": "",
          "type": "address"
        }
      ],
      "stateMutability": "view",
      "type": "function"
    },
    {
      "inputs": [],
      "name": "periodFinish",
      "outputs": [
        {
          "internalType": "uint256",
          "name": "",
          "type": "uint256"
        }
      ],
      "stateMutability": "view",
      "type": "function"
    },
    {
      "inputs": [],
      "name": "pid",
      "outputs": [
        {
          "internalType": "uint256",
          "name": "",
          "type": "uint256"
        }
      ],
      "stateMutability": "view",
      "type": "function"
    },
    {
      "inputs": [
        {
          "internalType": "uint256",
          "name": "_rewards",
          "type": "uint256"
        }
      ],
      "name": "queueNewRewards",
      "outputs": [
        {
          "internalType": "bool",
          "name": "",
          "type": "bool"
        }
      ],
      "stateMutability": "nonpayable",
      "type": "function"
    },
    {
      "inputs": [],
      "name": "queuedRewards",
      "outputs": [
        {
          "internalType": "uint256",
          "name": "",
          "type": "uint256"
        }
      ],
      "stateMutability": "view",
      "type": "function"
    },
    {
      "inputs": [],
      "name": "rewardManager",
      "outputs": [
        {
          "internalType": "address",
          "name": "",
          "type": "address"
        }
      ],
      "stateMutability": "view",
      "type": "function"
    },
    {
      "inputs": [],
      "name": "rewardPerToken",
      "outputs": [
        {
          "internalType": "uint256",
          "name": "",
          "type": "uint256"
        }
      ],
      "stateMutability": "view",
      "type": "function"
    },
    {
      "inputs": [],
      "name": "rewardPerTokenStored",
      "outputs": [
        {
          "internalType": "uint256",
          "name": "",
          "type": "uint256"
        }
      ],
      "stateMutability": "view",
      "type": "function"
    },
    {
      "inputs": [],
      "name": "rewardRate",
      "outputs": [
        {
          "internalType": "uint256",
          "name": "",
          "type": "uint256"
        }
      ],
      "stateMutability": "view",
      "type": "function"
    },
    {
      "inputs": [],
      "name": "rewardToken",
      "outputs": [
        {
          "internalType": "contract IERC20",
          "name": "",
          "type": "address"
        }
      ],
      "stateMutability": "view",
      "type": "function"
    },
    {
      "inputs": [
        {
          "internalType": "address",
          "name": "",
          "type": "address"
        }
      ],
      "name": "rewards",
      "outputs": [
        {
          "internalType": "uint256",
          "name": "",
          "type": "uint256"
        }
      ],
      "stateMutability": "view",
      "type": "function"
    },
    {
      "inputs": [
        {
          "internalType": "uint256",
          "name": "_amount",
          "type": "uint256"
        }
      ],
      "name": "stake",
      "outputs": [
        {
          "internalType": "bool",
          "name": "",
          "type": "bool"
        }
      ],
      "stateMutability": "nonpayable",
      "type": "function"
    },
    {
      "inputs": [],
      "name": "stakeAll",
      "outputs": [
        {
          "internalType": "bool",
          "name": "",
          "type": "bool"
        }
      ],
      "stateMutability": "nonpayable",
      "type": "function"
    },
    {
      "inputs": [
        {
          "internalType": "address",
          "name": "_for",
          "type": "address"
        },
        {
          "internalType": "uint256",
          "name": "_amount",
          "type": "uint256"
        }
      ],
      "name": "stakeFor",
      "outputs": [
        {
          "internalType": "bool",
          "name": "",
          "type": "bool"
        }
      ],
      "stateMutability": "nonpayable",
      "type": "function"
    },
    {
      "inputs": [],
      "name": "stakingToken",
      "outputs": [
        {
          "internalType": "contract IERC20",
          "name": "",
          "type": "address"
        }
      ],
      "stateMutability": "view",
      "type": "function"
    },
    {
      "inputs": [],
      "name": "totalSupply",
      "outputs": [
        {
          "internalType": "uint256",
          "name": "",
          "type": "uint256"
        }
      ],
      "stateMutability": "view",
      "type": "function"
    },
    {
      "inputs": [
        {
          "internalType": "address",
          "name": "",
          "type": "address"
        }
      ],
      "name": "userRewardPerTokenPaid",
      "outputs": [
        {
          "internalType": "uint256",
          "name": "",
          "type": "uint256"
        }
      ],
      "stateMutability": "view",
      "type": "function"
    },
    {
      "inputs": [
        {
          "internalType": "uint256",
          "name": "amount",
          "type": "uint256"
        },
        {
          "internalType": "bool",
          "name": "claim",
          "type": "bool"
        }
      ],
      "name": "withdraw",
      "outputs": [
        {
          "internalType": "bool",
          "name": "",
          "type": "bool"
        }
      ],
      "stateMutability": "nonpayable",
      "type": "function"
    },
    {
      "inputs": [
        {
          "internalType": "bool",
          "name": "claim",
          "type": "bool"
        }
      ],
      "name": "withdrawAll",
      "outputs": [],
      "stateMutability": "nonpayable",
      "type": "function"
    },
    {
      "inputs": [
        {
          "internalType": "bool",
          "name": "claim",
          "type": "bool"
        }
      ],
      "name": "withdrawAllAndUnwrap",
      "outputs": [],
      "stateMutability": "nonpayable",
      "type": "function"
    },
    {
      "inputs": [
        {
          "internalType": "uint256",
          "name": "amount",
          "type": "uint256"
        },
        {
          "internalType": "bool",
          "name": "claim",
          "type": "bool"
        }
      ],
      "name": "withdrawAndUnwrap",
      "outputs": [
        {
          "internalType": "bool",
          "name": "",
          "type": "bool"
        }
      ],
      "stateMutability": "nonpayable",
      "type": "function"
    }
  ],
  "bytecode": "0x61012060405260008055600060015560006004556000600555600060065534801561002957600080fd5b50604051611c7b380380611c7b833981810160405260a081101561004c57600080fd5b50805160208201516040830151606080850151608095860151610100959095526001600160601b031993821b841660a05291811b8316909452831b811660c052911b1660e05260805160601c60a05160601c60c05160601c60e05160601c61010051611b5d61011e60003980610c8452806110c8528061121152508061059b528061061d5280610a8f52508061095e528061098d5280610c5552806110ff52508061068a52806108845280610e095280610e5b5280610f25525080610c2c528061124252806112815250611b5d6000f3fe608060405234801561001057600080fd5b506004361061021b5760003560e01c80637050ccd911610125578063c32e7202116100ad578063df136d651161007c578063df136d65146104e3578063ebe2b12b146104eb578063f1068454146104f3578063f14faf6f146104fb578063f7c618c1146105185761021b565b8063c32e7202146104a6578063c8f33c91146104cb578063cd3daf9d146104d3578063d55a23f4146104db5761021b565b806380faa57d116100f457806380faa57d1461044b5780638b876347146104535780638dcb406114610479578063901a7d5314610481578063a694fc3a146104895761021b565b80637050ccd9146103e757806370a082311461041557806372f702f31461043b5780637b0a47ee146104435761021b565b806338d07436116101a8578063570ca73511610177578063570ca7351461038c578063590a41f5146103945780635e43c47b146103b157806363d38c3b146103d75780636c8bcee8146103df5761021b565b806338d07436146103235780633d18b9121461034857806340c354461461035057806349f039a21461036d5761021b565b80630fb5a6b4116101ef5780630fb5a6b4146102ac57806318160ddd146102b45780631c1c6fe5146102bc578063262d3d6d146102db5780632ee40908146102e35761021b565b80628cc262146102205780630569d388146102585780630700037d146102625780630f4ef8a614610288575b600080fd5b6102466004803603602081101561023657600080fd5b50356001600160a01b0316610520565b60408051918252519081900360200190f35b610260610590565b005b6102466004803603602081101561027857600080fd5b50356001600160a01b0316610609565b61029061061b565b604080516001600160a01b039092168252519081900360200190f35b61024661063f565b610246610646565b610260600480360360208110156102d257600080fd5b5035151561064d565b61024661066b565b61030f600480360360408110156102f957600080fd5b506001600160a01b038135169060200135610671565b604080519115158252519081900360200190f35b61030f6004803603604081101561033957600080fd5b508035906020013515156106fb565b61030f610906565b6102906004803603602081101561036657600080fd5b503561091b565b6102606004803603602081101561038357600080fd5b50351515610942565b61029061095c565b61030f600480360360208110156103aa57600080fd5b5035610980565b61030f600480360360208110156103c757600080fd5b50356001600160a01b0316610a82565b610246610b90565b610246610b96565b61030f600480360360408110156103fd57600080fd5b506001600160a01b0381351690602001351515610b9c565b6102466004803603602081101561042b57600080fd5b50356001600160a01b0316610dec565b610290610e07565b610246610e2b565b610246610e31565b6102466004803603602081101561046957600080fd5b50356001600160a01b0316610e44565b61030f610e56565b610246610f06565b61030f6004803603602081101561049f57600080fd5b5035610f0c565b61030f600480360360408110156104bc57600080fd5b50803590602001351515610f8b565b6102466111a9565b6102466111af565b6102466111fd565b610246611203565b610246611209565b61024661120f565b61030f6004803603602081101561051157600080fd5b5035611233565b61029061127f565b6001600160a01b0381166000908152600960209081526040808320546008909252822054610588919061058290670de0b6b3a76400009061057c9061056d906105676111af565b906112a3565b61057688610dec565b90611300565b90611360565b906113c7565b90505b919050565b336001600160a01b037f000000000000000000000000000000000000000000000000000000000000000016146105fb576040805162461bcd60e51b815260206004820152600b60248201526a08585d5d1a1bdc9a5e995960aa1b604482015290519081900360640190fd5b610607600b6000611a7c565b565b60096020526000908152604090205481565b7f000000000000000000000000000000000000000000000000000000000000000081565b62093a8081565b6007545b90565b336000908152600a602052604090205461066790826106fb565b5050565b60065481565b600061067d8284611421565b6106b26001600160a01b037f0000000000000000000000000000000000000000000000000000000000000000163330856115bd565b6040805183815290516001600160a01b038516917f9e71bc8eea02a63969f509818f2dafb9254532904319f9dbda79b67bd34a5f3d919081900360200190a25060015b92915050565b6000336107066111af565b600355610711610e31565b6002556001600160a01b038116156107585761072c81610520565b6001600160a01b0382166000908152600960209081526040808320939093556003546008909152919020555b600084116107ad576040805162461bcd60e51b815260206004820152601e60248201527f526577617264506f6f6c203a2043616e6e6f7420776974686472617720300000604482015290519081900360640190fd5b60005b600b5481101561084057600b81815481106107c757fe5b60009182526020822001546040805163f3fef3a360e01b81523360048201526024810189905290516001600160a01b039092169263f3fef3a39260448084019382900301818387803b15801561081c57600080fd5b505af1158015610830573d6000803e3d6000fd5b5050600190920191506107b09050565b5060075461084e90856112a3565b600755336000908152600a602052604090205461086b90856112a3565b336000818152600a60205260409020919091556108b3907f00000000000000000000000000000000000000000000000000000000000000006001600160a01b0316908661161d565b60408051858152905133917f7084f5476618d8e60b11ef0d7d3f06914655adb8793e28ff7f018d4c76d505d5919081900360200190a282156108fc576108fa336001610b9c565b505b5060019392505050565b6000610913336001610b9c565b506001905090565b600b818154811061092857fe5b6000918252602090912001546001600160a01b0316905081565b336000908152600a60205260409020546106679082610f8b565b7f000000000000000000000000000000000000000000000000000000000000000081565b6000336001600160a01b037f000000000000000000000000000000000000000000000000000000000000000016146109ed576040805162461bcd60e51b815260206004820152600b60248201526a08585d5d1a1bdc9a5e995960aa1b604482015290519081900360640190fd5b6004546109fb9083906113c7565b91506000544210610a1c57610a0f82611674565b506000600455600161058b565b60008054610a3890610a319062093a806112a3565b42906112a3565b60015490915081026000610a528561057c846103e8611300565b905061033e811015610a7157610a6785611674565b6000600455610a77565b60048590555b506001949350505050565b6000336001600160a01b037f00000000000000000000000000000000000000000000000000000000000000001614610aef576040805162461bcd60e51b815260206004820152600b60248201526a08585d5d1a1bdc9a5e995960aa1b604482015290519081900360640190fd5b6001600160a01b038216610b3c576040805162461bcd60e51b815260206004820152600f60248201526e217265776172642073657474696e6760881b604482015290519081900360640190fd5b50600b8054600181810183556000929092527f0175b7a638427703f0dbe7bb9bbf987a2551717b34e79f33b5b1008d1fa01db90180546001600160a01b0384166001600160a01b0319909116179055919050565b60045481565b61033e81565b600082610ba76111af565b600355610bb2610e31565b6002556001600160a01b03811615610bf957610bcd81610520565b6001600160a01b0382166000908152600960209081526040808320939093556003546008909152919020555b6000610c0485610520565b90508015610d4a576001600160a01b03808616600090815260096020526040812055610c53907f000000000000000000000000000000000000000000000000000000000000000016868361161d565b7f00000000000000000000000000000000000000000000000000000000000000006001600160a01b03166371192b177f000000000000000000000000000000000000000000000000000000000000000087846040518463ffffffff1660e01b815260040180848152602001836001600160a01b031681526020018281526020019350505050600060405180830381600087803b158015610cf257600080fd5b505af1158015610d06573d6000803e3d6000fd5b50506040805184815290516001600160a01b03891693507fe2403640ba68fed3a2f88b7557551d1993f84b99bb10ff833f0cf8db0c5e048692509081900360200190a25b8315610a775760005b600b54811015610de057600b8181548110610d6a57fe5b600091825260208220015460408051630c00007b60e41b81526001600160a01b038a811660048301529151919092169263c00007b0926024808201939182900301818387803b158015610dbc57600080fd5b505af1158015610dd0573d6000803e3d6000fd5b505060019092019150610d539050565b50506001949350505050565b6001600160a01b03166000908152600a602052604090205490565b7f000000000000000000000000000000000000000000000000000000000000000081565b60015481565b6000610e3f42600054611798565b905090565b60086020526000908152604090205481565b6000807f00000000000000000000000000000000000000000000000000000000000000006001600160a01b03166370a08231336040518263ffffffff1660e01b815260040180826001600160a01b0316815260200191505060206040518083038186803b158015610ec657600080fd5b505afa158015610eda573d6000803e3d6000fd5b505050506040513d6020811015610ef057600080fd5b50519050610efd81610f0c565b50600191505090565b60055481565b6000610f188233611421565b610f4d6001600160a01b037f0000000000000000000000000000000000000000000000000000000000000000163330856115bd565b60408051838152905133917f9e71bc8eea02a63969f509818f2dafb9254532904319f9dbda79b67bd34a5f3d919081900360200190a2506001919050565b600033610f966111af565b600355610fa1610e31565b6002556001600160a01b03811615610fe857610fbc81610520565b6001600160a01b0382166000908152600960209081526040808320939093556003546008909152919020555b60005b600b5481101561107b57600b818154811061100257fe5b60009182526020822001546040805163f3fef3a360e01b81523360048201526024810189905290516001600160a01b039092169263f3fef3a39260448084019382900301818387803b15801561105757600080fd5b505af115801561106b573d6000803e3d6000fd5b505060019092019150610feb9050565b5060075461108990856112a3565b600755336000908152600a60205260409020546110a690856112a3565b336000818152600a60205260408082209390935582516305335c3960e21b81527f0000000000000000000000000000000000000000000000000000000000000000600482015260248101889052604481019290925291517f00000000000000000000000000000000000000000000000000000000000000006001600160a01b0316926314cd70e4926064808201939182900301818387803b15801561114a57600080fd5b505af115801561115e573d6000803e3d6000fd5b50506040805187815290513393507f7084f5476618d8e60b11ef0d7d3f06914655adb8793e28ff7f018d4c76d505d592509081900360200190a282156108fc576108fa336001610b9c565b60025481565b60006111b9610646565b6111c6575060035461064a565b610e3f6111f46111d4610646565b61057c670de0b6b3a7640000610576600154610576600254610567610e31565b600354906113c7565b600b5490565b60035481565b60005481565b7f000000000000000000000000000000000000000000000000000000000000000081565b600061126a6001600160a01b037f0000000000000000000000000000000000000000000000000000000000000000163330856115bd565b60045461127790836113c7565b600455919050565b7f000000000000000000000000000000000000000000000000000000000000000081565b6000828211156112fa576040805162461bcd60e51b815260206004820152601e60248201527f536166654d6174683a207375627472616374696f6e206f766572666c6f770000604482015290519081900360640190fd5b50900390565b60008261130f575060006106f5565b8282028284828161131c57fe5b04146113595760405162461bcd60e51b8152600401808060200182810382526021815260200180611add6021913960400191505060405180910390fd5b9392505050565b60008082116113b6576040805162461bcd60e51b815260206004820152601a60248201527f536166654d6174683a206469766973696f6e206279207a65726f000000000000604482015290519081900360640190fd5b8183816113bf57fe5b049392505050565b600082820183811015611359576040805162461bcd60e51b815260206004820152601b60248201527f536166654d6174683a206164646974696f6e206f766572666c6f770000000000604482015290519081900360640190fd5b8061142a6111af565b600355611435610e31565b6002556001600160a01b0381161561147c5761145081610520565b6001600160a01b0382166000908152600960209081526040808320939093556003546008909152919020555b600083116114d1576040805162461bcd60e51b815260206004820152601b60248201527f526577617264506f6f6c203a2043616e6e6f74207374616b6520300000000000604482015290519081900360640190fd5b60005b600b5481101561156857600b81815481106114eb57fe5b6000918252602082200154604080516356e4bb9760e11b81526001600160a01b038781166004830152602482018990529151919092169263adc9772e926044808201939182900301818387803b15801561154457600080fd5b505af1158015611558573d6000803e3d6000fd5b5050600190920191506114d49050565b5060075461157690846113c7565b6007556001600160a01b0382166000908152600a602052604090205461159c90846113c7565b6001600160a01b039092166000908152600a60205260409020919091555050565b604080516001600160a01b0380861660248301528416604482015260648082018490528251808303909101815260849091019091526020810180516001600160e01b03166323b872dd60e01b1790526116179085906117ae565b50505050565b604080516001600160a01b038416602482015260448082018490528251808303909101815260649091019091526020810180516001600160e01b031663a9059cbb60e01b17905261166f9084906117ae565b505050565b600061167e6111af565b600355611689610e31565b6002556001600160a01b038116156116d0576116a481610520565b6001600160a01b0382166000908152600960209081526040808320939093556003546008909152919020555b6006546116dd90836113c7565b60065560005442106116fe576116f68262093a80611360565b600155611746565b6000805461170c90426112a3565b905060006117256001548361130090919063ffffffff16565b905061173184826113c7565b93506117408462093a80611360565b60015550505b600582905542600281905561175e9062093a806113c7565b6000556040805183815290517fde88a922e0d3b88b24e9623efeb464919c6bf9f66857a65e2bfcf2ce87a9433d9181900360200190a15050565b60008183106117a75781611359565b5090919050565b6060611803826040518060400160405280602081526020017f5361666545524332303a206c6f772d6c6576656c2063616c6c206661696c6564815250856001600160a01b031661185f9092919063ffffffff16565b80519091501561166f5780806020019051602081101561182257600080fd5b505161166f5760405162461bcd60e51b815260040180806020018281038252602a815260200180611afe602a913960400191505060405180910390fd5b606061186e8484600085611876565b949350505050565b6060824710156118b75760405162461bcd60e51b8152600401808060200182810382526026815260200180611ab76026913960400191505060405180910390fd5b6118c0856119d2565b611911576040805162461bcd60e51b815260206004820152601d60248201527f416464726573733a2063616c6c20746f206e6f6e2d636f6e7472616374000000604482015290519081900360640190fd5b60006060866001600160a01b031685876040518082805190602001908083835b602083106119505780518252601f199092019160209182019101611931565b6001836020036101000a03801982511681845116808217855250505050505090500191505060006040518083038185875af1925050503d80600081146119b2576040519150601f19603f3d011682016040523d82523d6000602084013e6119b7565b606091505b50915091506119c78282866119d8565b979650505050505050565b3b151590565b606083156119e7575081611359565b8251156119f75782518084602001fd5b8160405162461bcd60e51b81526004018080602001828103825283818151815260200191508051906020019080838360005b83811015611a41578181015183820152602001611a29565b50505050905090810190601f168015611a6e5780820380516001836020036101000a031916815260200191505b509250505060405180910390fd5b5080546000825590600052602060002090810190611a9a9190611a9d565b50565b5b80821115611ab25760008155600101611a9e565b509056fe416464726573733a20696e73756666696369656e742062616c616e636520666f722063616c6c536166654d6174683a206d756c7469706c69636174696f6e206f766572666c6f775361666545524332303a204552433230206f7065726174696f6e20646964206e6f742073756363656564a2646970667358221220ffc1445262d4689a16449928a7ae6efc18a5df5a4325ef93475cd89808d7394864736f6c634300060c0033",
  "linkReferences": {},
  "deployedLinkReferences": {}
}