{
  "_format": "hh-sol-artifact-1",
  "contractName": "Booster",
  "sourceName": "convex-platform/contracts/contracts/Booster.sol",
  "abi": [
    {
      "inputs": [
        {
          "internalType": "address",
          "name": "_staker",
          "type": "address"
        },
        {
          "internalType": "address",
          "name": "_minter",
          "type": "address"
        },
        {
          "internalType": "address",
          "name": "_crv",
          "type": "address"
        },
        {
          "internalType": "address",
          "name": "_voteOwnership",
          "type": "address"
        },
        {
          "internalType": "address",
          "name": "_voteParameter",
          "type": "address"
        }
      ],
      "stateMutability": "nonpayable",
      "type": "constructor"
    },
    {
      "anonymous": false,
      "inputs": [
        {
          "indexed": false,
          "internalType": "address",
          "name": "newArbitrator",
          "type": "address"
        }
      ],
      "name": "ArbitratorUpdated",
      "type": "event"
    },
    {
      "anonymous": false,
      "inputs": [
        {
          "indexed": true,
          "internalType": "address",
          "name": "user",
          "type": "address"
        },
        {
          "indexed": true,
          "internalType": "uint256",
          "name": "poolid",
          "type": "uint256"
        },
        {
          "indexed": false,
          "internalType": "uint256",
          "name": "amount",
          "type": "uint256"
        }
      ],
      "name": "Deposited",
      "type": "event"
    },
    {
      "anonymous": false,
      "inputs": [
        {
          "indexed": false,
          "internalType": "address",
          "name": "rewardFactory",
          "type": "address"
        },
        {
          "indexed": false,
          "internalType": "address",
          "name": "stashFactory",
          "type": "address"
        },
        {
          "indexed": false,
          "internalType": "address",
          "name": "tokenFactory",
          "type": "address"
        }
      ],
      "name": "FactoriesUpdated",
      "type": "event"
    },
    {
      "anonymous": false,
      "inputs": [
        {
          "indexed": false,
          "internalType": "address",
          "name": "feeDistro",
          "type": "address"
        },
        {
          "indexed": false,
          "internalType": "bool",
          "name": "active",
          "type": "bool"
        }
      ],
      "name": "FeeInfoChanged",
      "type": "event"
    },
    {
      "anonymous": false,
      "inputs": [
        {
          "indexed": false,
          "internalType": "address",
          "name": "feeDistro",
          "type": "address"
        },
        {
          "indexed": false,
          "internalType": "address",
          "name": "lockFees",
          "type": "address"
        },
        {
          "indexed": false,
          "internalType": "address",
          "name": "feeToken",
          "type": "address"
        }
      ],
      "name": "FeeInfoUpdated",
      "type": "event"
    },
    {
      "anonymous": false,
      "inputs": [
        {
          "indexed": false,
          "internalType": "address",
          "name": "newFeeManager",
          "type": "address"
        }
      ],
      "name": "FeeManagerUpdated",
      "type": "event"
    },
    {
      "anonymous": false,
      "inputs": [
        {
          "indexed": false,
          "internalType": "uint256",
          "name": "lockIncentive",
          "type": "uint256"
        },
        {
          "indexed": false,
          "internalType": "uint256",
          "name": "stakerIncentive",
          "type": "uint256"
        },
        {
          "indexed": false,
          "internalType": "uint256",
          "name": "earmarkIncentive",
          "type": "uint256"
        },
        {
          "indexed": false,
          "internalType": "uint256",
          "name": "platformFee",
          "type": "uint256"
        }
      ],
      "name": "FeesUpdated",
      "type": "event"
    },
    {
      "anonymous": false,
      "inputs": [
        {
          "indexed": false,
          "internalType": "address",
          "name": "newOwner",
          "type": "address"
        }
      ],
      "name": "OwnerUpdated",
      "type": "event"
    },
    {
      "anonymous": false,
      "inputs": [
        {
          "indexed": false,
          "internalType": "address",
          "name": "lpToken",
          "type": "address"
        },
        {
          "indexed": false,
          "internalType": "address",
          "name": "gauge",
          "type": "address"
        },
        {
          "indexed": false,
          "internalType": "address",
          "name": "token",
          "type": "address"
        },
        {
          "indexed": false,
          "internalType": "address",
          "name": "rewardPool",
          "type": "address"
        },
        {
          "indexed": false,
          "internalType": "address",
          "name": "stash",
          "type": "address"
        },
        {
          "indexed": false,
          "internalType": "uint256",
          "name": "pid",
          "type": "uint256"
        }
      ],
      "name": "PoolAdded",
      "type": "event"
    },
    {
      "anonymous": false,
      "inputs": [
        {
          "indexed": false,
          "internalType": "address",
          "name": "newPoolManager",
          "type": "address"
        }
      ],
      "name": "PoolManagerUpdated",
      "type": "event"
    },
    {
      "anonymous": false,
      "inputs": [
        {
          "indexed": false,
          "internalType": "uint256",
          "name": "poolId",
          "type": "uint256"
        }
      ],
      "name": "PoolShutdown",
      "type": "event"
    },
    {
      "anonymous": false,
      "inputs": [
        {
          "indexed": false,
          "internalType": "address",
          "name": "lockRewards",
          "type": "address"
        },
        {
          "indexed": false,
          "internalType": "address",
          "name": "stakerRewards",
          "type": "address"
        }
      ],
      "name": "RewardContractsUpdated",
      "type": "event"
    },
    {
      "anonymous": false,
      "inputs": [
        {
          "indexed": false,
          "internalType": "address",
          "name": "newTreasury",
          "type": "address"
        }
      ],
      "name": "TreasuryUpdated",
      "type": "event"
    },
    {
      "anonymous": false,
      "inputs": [
        {
          "indexed": false,
          "internalType": "address",
          "name": "newVoteDelegate",
          "type": "address"
        }
      ],
      "name": "VoteDelegateUpdated",
      "type": "event"
    },
    {
      "anonymous": false,
      "inputs": [
        {
          "indexed": true,
          "internalType": "address",
          "name": "user",
          "type": "address"
        },
        {
          "indexed": true,
          "internalType": "uint256",
          "name": "poolid",
          "type": "uint256"
        },
        {
          "indexed": false,
          "internalType": "uint256",
          "name": "amount",
          "type": "uint256"
        }
      ],
      "name": "Withdrawn",
      "type": "event"
    },
    {
      "inputs": [],
      "name": "FEE_DENOMINATOR",
      "outputs": [
        {
          "internalType": "uint256",
          "name": "",
          "type": "uint256"
        }
      ],
      "stateMutability": "view",
      "type": "function"
    },
    {
      "inputs": [],
      "name": "MaxFees",
      "outputs": [
        {
          "internalType": "uint256",
          "name": "",
          "type": "uint256"
        }
      ],
      "stateMutability": "view",
      "type": "function"
    },
    {
      "inputs": [
        {
          "internalType": "address",
          "name": "_lptoken",
          "type": "address"
        },
        {
          "internalType": "address",
          "name": "_gauge",
          "type": "address"
        },
        {
          "internalType": "uint256",
          "name": "_stashVersion",
          "type": "uint256"
        }
      ],
      "name": "addPool",
      "outputs": [
        {
          "internalType": "bool",
          "name": "",
          "type": "bool"
        }
      ],
      "stateMutability": "nonpayable",
      "type": "function"
    },
    {
      "inputs": [
        {
          "internalType": "uint256",
          "name": "_pid",
          "type": "uint256"
        },
        {
          "internalType": "address",
          "name": "_gauge",
          "type": "address"
        }
      ],
      "name": "claimRewards",
      "outputs": [
        {
          "internalType": "bool",
          "name": "",
          "type": "bool"
        }
      ],
      "stateMutability": "nonpayable",
      "type": "function"
    },
    {
      "inputs": [],
      "name": "crv",
      "outputs": [
        {
          "internalType": "address",
          "name": "",
          "type": "address"
        }
      ],
      "stateMutability": "view",
      "type": "function"
    },
    {
      "inputs": [
        {
          "internalType": "uint256",
          "name": "_pid",
          "type": "uint256"
        },
        {
          "internalType": "uint256",
          "name": "_amount",
          "type": "uint256"
        },
        {
          "internalType": "bool",
          "name": "_stake",
          "type": "bool"
        }
      ],
      "name": "deposit",
      "outputs": [
        {
          "internalType": "bool",
          "name": "",
          "type": "bool"
        }
      ],
      "stateMutability": "nonpayable",
      "type": "function"
    },
    {
      "inputs": [
        {
          "internalType": "uint256",
          "name": "_pid",
          "type": "uint256"
        },
        {
          "internalType": "bool",
          "name": "_stake",
          "type": "bool"
        }
      ],
      "name": "depositAll",
      "outputs": [
        {
          "internalType": "bool",
          "name": "",
          "type": "bool"
        }
      ],
      "stateMutability": "nonpayable",
      "type": "function"
    },
    {
      "inputs": [
        {
          "internalType": "address",
          "name": "_feeDistro",
          "type": "address"
        }
      ],
      "name": "earmarkFees",
      "outputs": [
        {
          "internalType": "bool",
          "name": "",
          "type": "bool"
        }
      ],
      "stateMutability": "nonpayable",
      "type": "function"
    },
    {
      "inputs": [],
      "name": "earmarkIncentive",
      "outputs": [
        {
          "internalType": "uint256",
          "name": "",
          "type": "uint256"
        }
      ],
      "stateMutability": "view",
      "type": "function"
    },
    {
      "inputs": [
        {
          "internalType": "uint256",
          "name": "_pid",
          "type": "uint256"
        }
      ],
      "name": "earmarkRewards",
      "outputs": [
        {
          "internalType": "bool",
          "name": "",
          "type": "bool"
        }
      ],
      "stateMutability": "nonpayable",
      "type": "function"
    },
    {
      "inputs": [],
      "name": "feeManager",
      "outputs": [
        {
          "internalType": "address",
          "name": "",
          "type": "address"
        }
      ],
      "stateMutability": "view",
      "type": "function"
    },
    {
      "inputs": [
        {
          "internalType": "address",
          "name": "",
          "type": "address"
        }
      ],
      "name": "fees",
      "outputs": [
        {
          "internalType": "address",
          "name": "token",
          "type": "address"
        },
        {
          "internalType": "address",
          "name": "rewards",
          "type": "address"
        },
        {
          "internalType": "bool",
          "name": "active",
          "type": "bool"
        }
      ],
      "stateMutability": "view",
      "type": "function"
    },
    {
      "inputs": [
        {
          "internalType": "address",
          "name": "",
          "type": "address"
        }
      ],
      "name": "gaugeMap",
      "outputs": [
        {
          "internalType": "bool",
          "name": "",
          "type": "bool"
        }
      ],
      "stateMutability": "view",
      "type": "function"
    },
    {
      "inputs": [],
      "name": "isShutdown",
      "outputs": [
        {
          "internalType": "bool",
          "name": "",
          "type": "bool"
        }
      ],
      "stateMutability": "view",
      "type": "function"
    },
    {
      "inputs": [],
      "name": "lockIncentive",
      "outputs": [
        {
          "internalType": "uint256",
          "name": "",
          "type": "uint256"
        }
      ],
      "stateMutability": "view",
      "type": "function"
    },
    {
      "inputs": [],
      "name": "lockRewards",
      "outputs": [
        {
          "internalType": "address",
          "name": "",
          "type": "address"
        }
      ],
      "stateMutability": "view",
      "type": "function"
    },
    {
      "inputs": [],
      "name": "minter",
      "outputs": [
        {
          "internalType": "address",
          "name": "",
          "type": "address"
        }
      ],
      "stateMutability": "view",
      "type": "function"
    },
    {
      "inputs": [],
      "name": "owner",
      "outputs": [
        {
          "internalType": "address",
          "name": "",
          "type": "address"
        }
      ],
      "stateMutability": "view",
      "type": "function"
    },
    {
      "inputs": [],
      "name": "platformFee",
      "outputs": [
        {
          "internalType": "uint256",
          "name": "",
          "type": "uint256"
        }
      ],
      "stateMutability": "view",
      "type": "function"
    },
    {
      "inputs": [
        {
          "internalType": "uint256",
          "name": "",
          "type": "uint256"
        }
      ],
      "name": "poolInfo",
      "outputs": [
        {
          "internalType": "address",
          "name": "lptoken",
          "type": "address"
        },
        {
          "internalType": "address",
          "name": "token",
          "type": "address"
        },
        {
          "internalType": "address",
          "name": "gauge",
          "type": "address"
        },
        {
          "internalType": "address",
          "name": "crvRewards",
          "type": "address"
        },
        {
          "internalType": "address",
          "name": "stash",
          "type": "address"
        },
        {
          "internalType": "bool",
          "name": "shutdown",
          "type": "bool"
        }
      ],
      "stateMutability": "view",
      "type": "function"
    },
    {
      "inputs": [],
      "name": "poolLength",
      "outputs": [
        {
          "internalType": "uint256",
          "name": "",
          "type": "uint256"
        }
      ],
      "stateMutability": "view",
      "type": "function"
    },
    {
      "inputs": [],
      "name": "poolManager",
      "outputs": [
        {
          "internalType": "address",
          "name": "",
          "type": "address"
        }
      ],
      "stateMutability": "view",
      "type": "function"
    },
    {
      "inputs": [],
      "name": "rewardArbitrator",
      "outputs": [
        {
          "internalType": "address",
          "name": "",
          "type": "address"
        }
      ],
      "stateMutability": "view",
      "type": "function"
    },
    {
      "inputs": [
        {
          "internalType": "uint256",
          "name": "_pid",
          "type": "uint256"
        },
        {
          "internalType": "address",
          "name": "_address",
          "type": "address"
        },
        {
          "internalType": "uint256",
          "name": "_amount",
          "type": "uint256"
        }
      ],
      "name": "rewardClaimed",
      "outputs": [
        {
          "internalType": "bool",
          "name": "",
          "type": "bool"
        }
      ],
      "stateMutability": "nonpayable",
      "type": "function"
    },
    {
      "inputs": [],
      "name": "rewardFactory",
      "outputs": [
        {
          "internalType": "address",
          "name": "",
          "type": "address"
        }
      ],
      "stateMutability": "view",
      "type": "function"
    },
    {
      "inputs": [
        {
          "internalType": "address",
          "name": "_arb",
          "type": "address"
        }
      ],
      "name": "setArbitrator",
      "outputs": [],
      "stateMutability": "nonpayable",
      "type": "function"
    },
    {
      "inputs": [
        {
          "internalType": "address",
          "name": "_rfactory",
          "type": "address"
        },
        {
          "internalType": "address",
          "name": "_sfactory",
          "type": "address"
        },
        {
          "internalType": "address",
          "name": "_tfactory",
          "type": "address"
        }
      ],
      "name": "setFactories",
      "outputs": [],
      "stateMutability": "nonpayable",
      "type": "function"
    },
    {
      "inputs": [
        {
          "internalType": "address",
          "name": "_feeDistro",
          "type": "address"
        }
      ],
      "name": "setFeeInfo",
      "outputs": [],
      "stateMutability": "nonpayable",
      "type": "function"
    },
    {
      "inputs": [
        {
          "internalType": "address",
          "name": "_feeM",
          "type": "address"
        }
      ],
      "name": "setFeeManager",
      "outputs": [],
      "stateMutability": "nonpayable",
      "type": "function"
    },
    {
      "inputs": [
        {
          "internalType": "uint256",
          "name": "_lockFees",
          "type": "uint256"
        },
        {
          "internalType": "uint256",
          "name": "_stakerFees",
          "type": "uint256"
        },
        {
          "internalType": "uint256",
          "name": "_callerFees",
          "type": "uint256"
        },
        {
          "internalType": "uint256",
          "name": "_platform",
          "type": "uint256"
        }
      ],
      "name": "setFees",
      "outputs": [],
      "stateMutability": "nonpayable",
      "type": "function"
    },
    {
      "inputs": [
        {
          "internalType": "uint256",
          "name": "_pid",
          "type": "uint256"
        }
      ],
      "name": "setGaugeRedirect",
      "outputs": [
        {
          "internalType": "bool",
          "name": "",
          "type": "bool"
        }
      ],
      "stateMutability": "nonpayable",
      "type": "function"
    },
    {
      "inputs": [
        {
          "internalType": "address",
          "name": "_owner",
          "type": "address"
        }
      ],
      "name": "setOwner",
      "outputs": [],
      "stateMutability": "nonpayable",
      "type": "function"
    },
    {
      "inputs": [
        {
          "internalType": "address",
          "name": "_poolM",
          "type": "address"
        }
      ],
      "name": "setPoolManager",
      "outputs": [],
      "stateMutability": "nonpayable",
      "type": "function"
    },
    {
      "inputs": [
        {
          "internalType": "address",
          "name": "_rewards",
          "type": "address"
        },
        {
          "internalType": "address",
          "name": "_stakerRewards",
          "type": "address"
        }
      ],
      "name": "setRewardContracts",
      "outputs": [],
      "stateMutability": "nonpayable",
      "type": "function"
    },
    {
      "inputs": [
        {
          "internalType": "address",
          "name": "_treasury",
          "type": "address"
        }
      ],
      "name": "setTreasury",
      "outputs": [],
      "stateMutability": "nonpayable",
      "type": "function"
    },
    {
      "inputs": [
        {
          "internalType": "bytes32",
          "name": "hash",
          "type": "bytes32"
        },
        {
          "internalType": "bool",
          "name": "valid",
          "type": "bool"
        }
      ],
      "name": "setVote",
      "outputs": [
        {
          "internalType": "bool",
          "name": "",
          "type": "bool"
        }
      ],
      "stateMutability": "nonpayable",
      "type": "function"
    },
    {
      "inputs": [
        {
          "internalType": "address",
          "name": "_voteDelegate",
          "type": "address"
        }
      ],
      "name": "setVoteDelegate",
      "outputs": [],
      "stateMutability": "nonpayable",
      "type": "function"
    },
    {
      "inputs": [
        {
          "internalType": "uint256",
          "name": "_pid",
          "type": "uint256"
        }
      ],
      "name": "shutdownPool",
      "outputs": [
        {
          "internalType": "bool",
          "name": "",
          "type": "bool"
        }
      ],
      "stateMutability": "nonpayable",
      "type": "function"
    },
    {
      "inputs": [],
      "name": "shutdownSystem",
      "outputs": [],
      "stateMutability": "nonpayable",
      "type": "function"
    },
    {
      "inputs": [],
      "name": "staker",
      "outputs": [
        {
          "internalType": "address",
          "name": "",
          "type": "address"
        }
      ],
      "stateMutability": "view",
      "type": "function"
    },
    {
      "inputs": [],
      "name": "stakerIncentive",
      "outputs": [
        {
          "internalType": "uint256",
          "name": "",
          "type": "uint256"
        }
      ],
      "stateMutability": "view",
      "type": "function"
    },
    {
      "inputs": [],
      "name": "stakerRewards",
      "outputs": [
        {
          "internalType": "address",
          "name": "",
          "type": "address"
        }
      ],
      "stateMutability": "view",
      "type": "function"
    },
    {
      "inputs": [],
      "name": "stashFactory",
      "outputs": [
        {
          "internalType": "address",
          "name": "",
          "type": "address"
        }
      ],
      "stateMutability": "view",
      "type": "function"
    },
    {
      "inputs": [],
      "name": "tokenFactory",
      "outputs": [
        {
          "internalType": "address",
          "name": "",
          "type": "address"
        }
      ],
      "stateMutability": "view",
      "type": "function"
    },
    {
      "inputs": [],
      "name": "treasury",
      "outputs": [
        {
          "internalType": "address",
          "name": "",
          "type": "address"
        }
      ],
      "stateMutability": "view",
      "type": "function"
    },
    {
      "inputs": [
        {
          "internalType": "address",
          "name": "_feeDistro",
          "type": "address"
        },
        {
          "internalType": "bool",
          "name": "_active",
          "type": "bool"
        }
      ],
      "name": "updateFeeInfo",
      "outputs": [],
      "stateMutability": "nonpayable",
      "type": "function"
    },
    {
      "inputs": [
        {
          "internalType": "uint256",
          "name": "_voteId",
          "type": "uint256"
        },
        {
          "internalType": "address",
          "name": "_votingAddress",
          "type": "address"
        },
        {
          "internalType": "bool",
          "name": "_support",
          "type": "bool"
        }
      ],
      "name": "vote",
      "outputs": [
        {
          "internalType": "bool",
          "name": "",
          "type": "bool"
        }
      ],
      "stateMutability": "nonpayable",
      "type": "function"
    },
    {
      "inputs": [],
      "name": "voteDelegate",
      "outputs": [
        {
          "internalType": "address",
          "name": "",
          "type": "address"
        }
      ],
      "stateMutability": "view",
      "type": "function"
    },
    {
      "inputs": [
        {
          "internalType": "address[]",
          "name": "_gauge",
          "type": "address[]"
        },
        {
          "internalType": "uint256[]",
          "name": "_weight",
          "type": "uint256[]"
        }
      ],
      "name": "voteGaugeWeight",
      "outputs": [
        {
          "internalType": "bool",
          "name": "",
          "type": "bool"
        }
      ],
      "stateMutability": "nonpayable",
      "type": "function"
    },
    {
      "inputs": [],
      "name": "voteOwnership",
      "outputs": [
        {
          "internalType": "address",
          "name": "",
          "type": "address"
        }
      ],
      "stateMutability": "view",
      "type": "function"
    },
    {
      "inputs": [],
      "name": "voteParameter",
      "outputs": [
        {
          "internalType": "address",
          "name": "",
          "type": "address"
        }
      ],
      "stateMutability": "view",
      "type": "function"
    },
    {
      "inputs": [
        {
          "internalType": "uint256",
          "name": "_pid",
          "type": "uint256"
        },
        {
          "internalType": "uint256",
          "name": "_amount",
          "type": "uint256"
        }
      ],
      "name": "withdraw",
      "outputs": [
        {
          "internalType": "bool",
          "name": "",
          "type": "bool"
        }
      ],
      "stateMutability": "nonpayable",
      "type": "function"
    },
    {
      "inputs": [
        {
          "internalType": "uint256",
          "name": "_pid",
          "type": "uint256"
        }
      ],
      "name": "withdrawAll",
      "outputs": [
        {
          "internalType": "bool",
          "name": "",
          "type": "bool"
        }
      ],
      "stateMutability": "nonpayable",
      "type": "function"
    },
    {
      "inputs": [
        {
          "internalType": "uint256",
          "name": "_pid",
          "type": "uint256"
        },
        {
          "internalType": "uint256",
          "name": "_amount",
          "type": "uint256"
        },
        {
          "internalType": "address",
          "name": "_to",
          "type": "address"
        }
      ],
      "name": "withdrawTo",
      "outputs": [
        {
          "internalType": "bool",
          "name": "",
          "type": "bool"
        }
      ],
      "stateMutability": "nonpayable",
      "type": "function"
    }
  ],
  "bytecode": "0x61012060405261022660005561044c6001556032600255600060035534801561002757600080fd5b506040516200449138038062004491833981810160405260a081101561004c57600080fd5b5080516020808301516040808501516060808701516080978801516010805460ff191690556001600160601b031988841b811660e05286841b81166101005284841b811690995281831b891660a0529182901b90971660c052600480546001600160a01b031990811633908117909255600b80548216831790556005805482168317905560068054821683179055600c805490911690558351908152925195969395919490927f4ffd725fc4a22075e9ec71c59edf9c38cdeb588a91b24fc5b61388c5be41282b929081900390910190a16040805133815290517f49f087c09fe6698eda82449a671bd8d38e44bed601118018a7cc7f1e0c808df49181900360200190a16040805133815290517fe45f5e140399b0a7e12971ab020724b828fbed8ac408c420884dc7d1bbe506b49181900360200190a16040805133815290517f70a64736553c84939f57deec269299882abbbee8dc4f316eccbc6fce57e4d3cf9181900360200190a1505050505060805160601c60a05160601c60c05160601c60e05160601c6101005160601c61420a6200028760003980610a07528061196c525080610bf85280610d745280610ef45280610f6c5280611312528061147f52806116175280611e5e52806120e2528061246052806128265280612b1752806131d052806133da528061384f525080612a95528061315d5250806129d652806131225250806115885280612dc65280612e1352806139b25280613b2a5280613b7a5280613bb85280613c4d5280613cec525061420a6000f3fe608060405234801561001057600080fd5b50600436106103425760003560e01c806374874323116101b8578063b42eda7111610104578063d0fb0203116100a2578063e2cdd42a1161007c578063e2cdd42a14610933578063e77772fe14610967578063f0f442601461096f578063faaebd211461099557610342565b8063d0fb02031461091b578063d73792a914610923578063dc4c90d31461092b57610342565b8063ca10ec23116100de578063ca10ec23146108aa578063cb0d5b52146108d0578063cc956f3f146108f6578063cfb9cfba1461091357610342565b8063b42eda71146107d8578063bf86d690146107e0578063bfad96ba146107e857610342565b80639123d404116101715780639f00332b1161014b5780639f00332b1461077c578063a0e0c54d14610784578063a386a080146107aa578063b0eefabe146107b257610342565b80639123d4041461071457806395539a1d14610731578063958e2d311461075f57610342565b806374874323146106245780637aef67151461064a5780637bd3b995146106705780637e29d6c2146106a85780637e8df27a146106de5780638da5cb5b1461070c57610342565b806343a0d0661161029257806361d027b3116102305780636c7b69cb1161020a5780636c7b69cb1461058f5780636fcba377146105bb57806371192b17146105ea5780637303df9a1461061c57610342565b806361d027b31461057757806362d28ac71461057f5780636a4874a11461058757610342565b8063509406181161026c57806350940618146105255780635ebaf1db1461052d57806360759fce1461053557806360cafe841461055a57610342565b806343a0d066146104b1578063441a3e70146104dc578063472d35b9146104ff57610342565b80631526fe27116102ff57806326232a2e116102d957806326232a2e14610491578063354af91914610499578063376d771a146104a15780633a088cd2146104a957610342565b80631526fe27146104035780631fbd897414610464578063245e4bf01461048957610342565b8063043b684a14610347578063068eb19e1461036b5780630754617214610373578063081e3eda1461037b57806313af40351461039557806314cd70e4146103bd575b600080fd5b61034f6109e7565b604080516001600160a01b039092168252519081900360200190f35b61034f6109f6565b61034f610a05565b610383610a29565b60408051918252519081900360200190f35b6103bb600480360360208110156103ab57600080fd5b50356001600160a01b0316610a2f565b005b6103ef600480360360608110156103d357600080fd5b50803590602081013590604001356001600160a01b0316610aca565b604080519115158252519081900360200190f35b6104206004803603602081101561041957600080fd5b5035610b4e565b604080516001600160a01b0397881681529587166020870152938616858501529185166060850152909316608083015291151560a082015290519081900360c00190f35b6103ef6004803603604081101561047a57600080fd5b50803590602001351515610bac565b61034f610c89565b610383610c98565b6103bb610c9e565b61034f610e13565b610383610e22565b6103ef600480360360608110156104c757600080fd5b50803590602081013590604001351515610e28565b6103ef600480360360408110156104f257600080fd5b5080359060200135611258565b6103bb6004803603602081101561051557600080fd5b50356001600160a01b031661126f565b61038361130a565b61034f611310565b6103ef6004803603604081101561054b57600080fd5b50803590602001351515611334565b6103ef6004803603602081101561057057600080fd5b50356113e1565b61034f611571565b610383611580565b61034f611586565b6103ef600480360360408110156105a557600080fd5b50803590602001356001600160a01b03166115aa565b6103bb600480360360808110156105d157600080fd5b50803590602081013590604081013590606001356116ae565b6103ef6004803603606081101561060057600080fd5b508035906001600160a01b0360208201351690604001356118ea565b610383611a04565b6103bb6004803603602081101561063a57600080fd5b50356001600160a01b0316611a0a565b6103bb6004803603602081101561066057600080fd5b50356001600160a01b0316611aa5565b6103bb6004803603606081101561068657600080fd5b506001600160a01b038135811691602081013582169160409091013516611b40565b6103ef600480360360608110156106be57600080fd5b506001600160a01b03813581169160208101359091169060400135611c70565b6103bb600480360360408110156106f457600080fd5b506001600160a01b0381351690602001351515612231565b61034f61234b565b6103ef6004803603602081101561072a57600080fd5b503561235a565b6103bb6004803603604081101561074757600080fd5b506001600160a01b0381358116916020013516612603565b6103ef6004803603602081101561077557600080fd5b50356126ca565b61034f612779565b6103ef6004803603602081101561079a57600080fd5b50356001600160a01b0316612788565b61034f6129d4565b6103bb600480360360208110156107c857600080fd5b50356001600160a01b03166129f8565b61034f612a93565b6103ef612ab7565b6103ef600480360360408110156107fe57600080fd5b81019060208101813564010000000081111561081957600080fd5b82018360208201111561082b57600080fd5b8035906020019184602083028401116401000000008311171561084d57600080fd5b91939092909160208101903564010000000081111561086b57600080fd5b82018360208201111561087d57600080fd5b8035906020019184602083028401116401000000008311171561089f57600080fd5b509092509050612ac0565b6103bb600480360360208110156108c057600080fd5b50356001600160a01b0316612bed565b6103ef600480360360208110156108e657600080fd5b50356001600160a01b0316613037565b6103ef6004803603602081101561090c57600080fd5b503561304c565b61034f6130a3565b61034f6130b2565b6103836130c1565b61034f6130c7565b6103ef6004803603606081101561094957600080fd5b508035906001600160a01b03602082013516906040013515156130d6565b61034f61324f565b6103bb6004803603602081101561098557600080fd5b50356001600160a01b031661325e565b6109bb600480360360208110156109ab57600080fd5b50356001600160a01b03166132f9565b604080516001600160a01b03948516815292909316602083015215158183015290519081900360600190f35b600a546001600160a01b031681565b6008546001600160a01b031681565b7f000000000000000000000000000000000000000000000000000000000000000081565b60115490565b6004546001600160a01b03163314610a76576040805162461bcd60e51b8152602060048201526005602482015264042c2eae8d60db1b604482015290519081900360640190fd5b600480546001600160a01b0383166001600160a01b0319909116811790915560408051918252517f4ffd725fc4a22075e9ec71c59edf9c38cdeb588a91b24fc5b61388c5be41282b9181900360200190a150565b60008060118581548110610ada57fe5b60009182526020909120600360059092020101546001600160a01b03169050338114610b35576040805162461bcd60e51b8152602060048201526005602482015264042c2eae8d60db1b604482015290519081900360640190fd5b610b418585338661332b565b60019150505b9392505050565b60118181548110610b5b57fe5b6000918252602090912060059091020180546001820154600283015460038401546004909401546001600160a01b03938416955091831693908316929081169190811690600160a01b900460ff1686565b600b546000906001600160a01b03163314610bf6576040805162461bcd60e51b8152602060048201526005602482015264042c2eae8d60db1b604482015290519081900360640190fd5b7f00000000000000000000000000000000000000000000000000000000000000006001600160a01b0316631fbd897484846040518363ffffffff1660e01b815260040180838152602001821515815260200192505050600060405180830381600087803b158015610c6657600080fd5b505af1158015610c7a573d6000803e3d6000fd5b50505050600190505b92915050565b6007546001600160a01b031681565b60035481565b6004546001600160a01b03163314610ce5576040805162461bcd60e51b8152602060048201526005602482015264042c2eae8d60db1b604482015290519081900360640190fd5b6010805460ff1916600117905560005b601154811015610e1057600060118281548110610d0e57fe5b906000526020600020906005020190508060040160149054906101000a900460ff1615610d3b5750610e08565b80546002820154604080516301395c5960e31b81526001600160a01b0393841660048201819052928416602482018190529151929391927f0000000000000000000000000000000000000000000000000000000000000000909216916309cae2c8916044808201926020929091908290030181600087803b158015610dbf57600080fd5b505af1925050508015610de457506040513d6020811015610ddf57600080fd5b505160015b610ded57610e04565b5060048301805460ff60a01b1916600160a01b1790555b5050505b600101610cf5565b50565b600e546001600160a01b031681565b60025481565b60105460009060ff1615610e6e576040805162461bcd60e51b815260206004820152600860248201526739b43aba3237bbb760c11b604482015290519081900360640190fd5b600060118581548110610e7d57fe5b600091825260209091206005909102016004810154909150600160a01b900460ff1615610ee2576040805162461bcd60e51b815260206004820152600e60248201526d1c1bdbdb081a5cc818db1bdcd95960921b604482015290519081900360640190fd5b80546001600160a01b0316610f1981337f000000000000000000000000000000000000000000000000000000000000000088613591565b60028201546001600160a01b031680610f6a576040805162461bcd60e51b815260206004820152600e60248201526d2167617567652073657474696e6760901b604482015290519081900360640190fd5b7f00000000000000000000000000000000000000000000000000000000000000006001600160a01b031663f9609f0883836040518363ffffffff1660e01b815260040180836001600160a01b03168152602001826001600160a01b0316815260200192505050602060405180830381600087803b158015610fea57600080fd5b505af1158015610ffe573d6000803e3d6000fd5b505050506040513d602081101561101457600080fd5b505060048301546001600160a01b0316801561109257806001600160a01b031663b87bd4816040518163ffffffff1660e01b8152600401602060405180830381600087803b15801561106557600080fd5b505af1158015611079573d6000803e3d6000fd5b505050506040513d602081101561108f57600080fd5b50505b60018401546001600160a01b031686156111ab57604080516340c10f1960e01b8152306004820152602481018a905290516001600160a01b038316916340c10f1991604480830192600092919082900301818387803b1580156110f457600080fd5b505af1158015611108573d6000803e3d6000fd5b50505060038601546001600160a01b03908116915061112b9083168260006135f1565b61113f6001600160a01b038316828b6135f1565b604080516305dc812160e31b8152336004820152602481018b905290516001600160a01b03831691632ee4090891604480830192600092919082900301818387803b15801561118d57600080fd5b505af11580156111a1573d6000803e3d6000fd5b5050505050611212565b604080516340c10f1960e01b8152336004820152602481018a905290516001600160a01b038316916340c10f1991604480830192600092919082900301818387803b1580156111f957600080fd5b505af115801561120d573d6000803e3d6000fd5b505050505b6040805189815290518a9133917f73a19dd210f1a7f902193214c0ee91dd35ee5b4d920cba8d519eca65a7b488ca9181900360200190a350600198975050505050505050565b60006112668383333361332b565b50600192915050565b6005546001600160a01b031633146112b6576040805162461bcd60e51b8152602060048201526005602482015264042c2eae8d60db1b604482015290519081900360640190fd5b600580546001600160a01b0383166001600160a01b0319909116811790915560408051918252517fe45f5e140399b0a7e12971ab020724b828fbed8ac408c420884dc7d1bbe506b49181900360200190a150565b60005481565b7f000000000000000000000000000000000000000000000000000000000000000081565b6000806011848154811061134457fe5b60009182526020808320600590920290910154604080516370a0823160e01b815233600482015290516001600160a01b03909216945084926370a0823192602480840193829003018186803b15801561139c57600080fd5b505afa1580156113b0573d6000803e3d6000fd5b505050506040513d60208110156113c657600080fd5b505190506113d5858286610e28565b50600195945050505050565b6006546000906001600160a01b0316331461142b576040805162461bcd60e51b8152602060048201526005602482015264042c2eae8d60db1b604482015290519081900360640190fd5b60006011838154811061143a57fe5b60009182526020808320600590920290910180546002820154604080516301395c5960e31b81526001600160a01b0393841660048201529183166024830152519295507f000000000000000000000000000000000000000000000000000000000000000091909116936309cae2c89360448084019491939192918390030190829087803b1580156114ca57600080fd5b505af19250505080156114ef57506040513d60208110156114ea57600080fd5b505160015b6114f8576114fa565b505b60048101805460ff60a01b1916600160a01b17905560028101546001600160a01b0316600090815260126020908152604091829020805460ff19169055815185815291517f2ccd633716c6ce12394d1c984ad04b6173d18aedc4f505d1537a94a98a07b6e79281900390910190a150600192915050565b600c546001600160a01b031681565b60015481565b7f000000000000000000000000000000000000000000000000000000000000000081565b600080601184815481106115ba57fe5b60009182526020909120600460059092020101546001600160a01b03169050338114611615576040805162461bcd60e51b8152602060048201526005602482015264042c2eae8d60db1b604482015290519081900360640190fd5b7f00000000000000000000000000000000000000000000000000000000000000006001600160a01b031663ef5cfb8c846040518263ffffffff1660e01b815260040180826001600160a01b03168152602001915050602060405180830381600087803b15801561168457600080fd5b505af1158015611698573d6000803e3d6000fd5b505050506040513d60208110156113d557600080fd5b6005546001600160a01b031633146116f5576040805162461bcd60e51b8152602060048201526005602482015264042c2eae8d60db1b604482015290519081900360640190fd5b600061170d8261170785818989613704565b90613704565b90506109c4811115611751576040805162461bcd60e51b81526020600482015260086024820152673e4d61784665657360c01b604482015290519081900360640190fd5b61012c851015801561176557506105dc8511155b6117a2576040805162461bcd60e51b8152602060048201526009602482015268216c6f636b4665657360b81b604482015290519081900360640190fd5b61012c84101580156117b657506105dc8411155b6117f5576040805162461bcd60e51b815260206004820152600b60248201526a217374616b65724665657360a81b604482015290519081900360640190fd5b600a8310158015611807575060648311155b611846576040805162461bcd60e51b815260206004820152600b60248201526a2163616c6c65724665657360a81b604482015290519081900360640190fd5b60c8821115611888576040805162461bcd60e51b815260206004820152600960248201526821706c6174666f726d60b81b604482015290519081900360640190fd5b600085905560018490556002839055600382905560408051868152602081018690528082018590526060810184905290517f16e6f67290546b8dd0e587f4b7f67d4f61932ae17ffd8c60d3509dbc05c175fe9181900360800190a15050505050565b600080601185815481106118fa57fe5b60009182526020909120600360059092020101546001600160a01b03169050338114806119315750600e546001600160a01b031633145b61196a576040805162461bcd60e51b8152602060048201526005602482015264042c2eae8d60db1b604482015290519081900360640190fd5b7f00000000000000000000000000000000000000000000000000000000000000006001600160a01b03166340c10f1985856040518363ffffffff1660e01b815260040180836001600160a01b0316815260200182815260200192505050600060405180830381600087803b1580156119e157600080fd5b505af11580156119f5573d6000803e3d6000fd5b50600198975050505050505050565b6109c481565b600b546001600160a01b03163314611a51576040805162461bcd60e51b8152602060048201526005602482015264042c2eae8d60db1b604482015290519081900360640190fd5b600b80546001600160a01b0383166001600160a01b0319909116811790915560408051918252517f49f087c09fe6698eda82449a671bd8d38e44bed601118018a7cc7f1e0c808df49181900360200190a150565b6006546001600160a01b03163314611aec576040805162461bcd60e51b8152602060048201526005602482015264042c2eae8d60db1b604482015290519081900360640190fd5b600680546001600160a01b0383166001600160a01b0319909116811790915560408051918252517f70a64736553c84939f57deec269299882abbbee8dc4f316eccbc6fce57e4d3cf9181900360200190a150565b6004546001600160a01b03163314611b87576040805162461bcd60e51b8152602060048201526005602482015264042c2eae8d60db1b604482015290519081900360640190fd5b600880546001600160a01b0319166001600160a01b038481169190911790915560075416611c2257600780546001600160a01b038086166001600160a01b031992831681179093556009805485831693168317905560408051938452908516602084015282810191909152517f013ea07699fbd5315b997a706906fb94a81c616771f1052b406707d7bfc6aa279181900360600190a1611c6b565b6040805160008082526001600160a01b03851660208301528183015290517f013ea07699fbd5315b997a706906fb94a81c616771f1052b406707d7bfc6aa279181900360600190a15b505050565b6006546000906001600160a01b031633148015611c90575060105460ff16155b611cca576040805162461bcd60e51b815260206004808301919091526024820152630858591960e21b604482015290519081900360640190fd5b6001600160a01b03831615801590611cea57506001600160a01b03841615155b611d24576040805162461bcd60e51b815260206004820152600660248201526521706172616d60d01b604482015290519081900360640190fd5b60115460095460408051630452a26760e21b81526001600160a01b0388811660048301529151600093929092169163114a899c9160248082019260209290919082900301818787803b158015611d7957600080fd5b505af1158015611d8d573d6000803e3d6000fd5b505050506040513d6020811015611da357600080fd5b505160075460408051632f7260f160e01b8152600481018690526001600160a01b0380851660248301528a8116604483015291519394506000939190921691632f7260f191606480830192602092919082900301818787803b158015611e0857600080fd5b505af1158015611e1c573d6000803e3d6000fd5b505050506040513d6020811015611e3257600080fd5b505160085460408051634ce5896f60e11b8152600481018790526001600160a01b038a811660248301527f000000000000000000000000000000000000000000000000000000000000000081166044830152606482018a9052915193945060009391909216916399cb12de91608480830192602092919082900301818787803b158015611ebe57600080fd5b505af1158015611ed2573d6000803e3d6000fd5b505050506040513d6020811015611ee857600080fd5b50516040805160c0810182526001600160a01b03808c16825286811660208381019182528c83168486018181528985166060870190815285891660808801818152600060a08a0181815260118054600181810183559184529b516005909c027f31ecc21a745e3968a04e9570e4425bc18fa8019c68028196b546d1669c200c68810180549d8d166001600160a01b03199e8f1617905599517f31ecc21a745e3968a04e9570e4425bc18fa8019c68028196b546d1669c200c698b018054918d16918e1691909117905595517f31ecc21a745e3968a04e9570e4425bc18fa8019c68028196b546d1669c200c6a8a018054918c16918d1691909117905593517f31ecc21a745e3968a04e9570e4425bc18fa8019c68028196b546d1669c200c6b89018054918b16918c1691909117905590517f31ecc21a745e3968a04e9570e4425bc18fa8019c68028196b546d1669c200c6c909701805493511515600160a01b0260ff60a01b199890991693909916929092179590951695909517909555835260129052929020805460ff19169091179055909150156121c157806011858154811061209057fe5b600091825260208083206004600590930201820180546001600160a01b039586166001600160a01b031990911617905560408051637d1cb25960e11b81528686169381019390935260016024840152517f00000000000000000000000000000000000000000000000000000000000000009094169363fa3964b2936044808501948390030190829087803b15801561212757600080fd5b505af115801561213b573d6000803e3d6000fd5b505050506040513d602081101561215157600080fd5b50506007546040805163b84614a560e01b81526001600160a01b038481166004830152600160248301529151919092169163b84614a591604480830192600092919082900301818387803b1580156121a857600080fd5b505af11580156121bc573d6000803e3d6000fd5b505050505b604080516001600160a01b03808b168252808a1660208301528086168284015280851660608301528316608082015260a0810186905290517fca1a6de26e4422518df9ab614eefa07fac43e4f4c7d704dbf82e903e582659ca9181900360c00190a1506001979650505050505050565b6004546001600160a01b03163314612278576040805162461bcd60e51b8152602060048201526005602482015264042c2eae8d60db1b604482015290519081900360640190fd5b6001600160a01b038281166000908152600f6020526040902054166122d8576040805162461bcd60e51b815260206004820152601160248201527011995948191bd95cdb89dd08195e1a5cdd607a1b604482015290519081900360640190fd5b6001600160a01b0382166000818152600f6020908152604091829020600101805460ff60a01b1916600160a01b8615159081029190911790915582519384529083015280517ff1d91b931944e49fd30c1dc6fd08ad8bb25ef1fe12c369b10a4675c4bf3974409281900390910190a15050565b6004546001600160a01b031681565b6000806011838154811061236a57fe5b60009182526020909120600460059092020101546001600160a01b031690503381146123c5576040805162461bcd60e51b8152602060048201526005602482015264042c2eae8d60db1b604482015290519081900360640190fd5b6000601184815481106123d457fe5b6000918252602080832060026005909302019190910154604080516001600160a01b038781166024808401919091528351808403820181526044938401855295860180516001600160e01b0316635efcc08b60e11b1781529351635b0e93fb60e11b815294821660048601818152918601889052606093860193845286516064870152865190985095967f00000000000000000000000000000000000000000000000000000000000000009092169563b61d27f6958995939489949092608490920191808383895b838110156124b457818101518382015260200161249c565b50505050905090810190601f1680156124e15780820380516001836020036101000a031916815260200191505b50945050505050600060405180830381600087803b15801561250257600080fd5b505af1158015612516573d6000803e3d6000fd5b505050506040513d6000823e601f3d908101601f19168201604090815281101561253f57600080fd5b81516020830180516040519294929383019291908464010000000082111561256657600080fd5b90830190602082018581111561257b57600080fd5b825164010000000081118282018810171561259557600080fd5b82525081516020918201929091019080838360005b838110156125c25781810151838201526020016125aa565b50505050905090810190601f1680156125ef5780820380516001836020036101000a031916815260200191505b506040525060019998505050505050505050565b6004546001600160a01b0316331461264a576040805162461bcd60e51b8152602060048201526005602482015264042c2eae8d60db1b604482015290519081900360640190fd5b600e546001600160a01b03166126c657600e80546001600160a01b038085166001600160a01b03199283168117909355600d805491851691909216811790915560408051928352602083019190915280517f601d75fd094819eb2644514a732ecc4ff7953787e92258e47c118aa83b0311159281900390910190a15b5050565b600080601183815481106126da57fe5b6000918252602080832060016005909302019190910154604080516370a0823160e01b815233600482015290516001600160a01b03909216945084926370a0823192602480840193829003018186803b15801561273657600080fd5b505afa15801561274a573d6000803e3d6000fd5b505050506040513d602081101561276057600080fd5b5051905061276e8482611258565b506001949350505050565b600b546001600160a01b031681565b600061279261410d565b506001600160a01b038281166000908152600f6020908152604091829020825160608101845281548516815260019091015493841691810191909152600160a01b90920460ff161515908201819052612824576040805162461bcd60e51b815260206004820152600f60248201526e496e6163746976652064697374726f60881b604482015290519081900360640190fd5b7f00000000000000000000000000000000000000000000000000000000000000006001600160a01b0316632dbfa7358483600001516040518363ffffffff1660e01b815260040180836001600160a01b03168152602001826001600160a01b0316815260200192505050602060405180830381600087803b1580156128a857600080fd5b505af11580156128bc573d6000803e3d6000fd5b505050506040513d60208110156128d257600080fd5b50508051604080516370a0823160e01b815230600482015290516000926001600160a01b0316916370a08231916024808301926020929190829003018186803b15801561291e57600080fd5b505afa158015612932573d6000803e3d6000fd5b505050506040513d602081101561294857600080fd5b505160208301518351919250612968916001600160a01b0316908361375e565b81602001516001600160a01b031663590a41f5826040518263ffffffff1660e01b815260040180828152602001915050600060405180830381600087803b1580156129b257600080fd5b505af11580156129c6573d6000803e3d6000fd5b506001979650505050505050565b7f000000000000000000000000000000000000000000000000000000000000000081565b6004546001600160a01b03163314612a3f576040805162461bcd60e51b8152602060048201526005602482015264042c2eae8d60db1b604482015290519081900360640190fd5b600a80546001600160a01b0383166001600160a01b0319909116811790915560408051918252517f961c543f04f95b46a6d6af9e463eb4f186ceea8ca52f869ec568c0197080401b9181900360200190a150565b7f000000000000000000000000000000000000000000000000000000000000000081565b60105460ff1681565b600b546000906001600160a01b03163314612b0a576040805162461bcd60e51b8152602060048201526005602482015264042c2eae8d60db1b604482015290519081900360640190fd5b60005b848110156113d5577f00000000000000000000000000000000000000000000000000000000000000006001600160a01b0316635d7e9bcb878784818110612b5057fe5b905060200201356001600160a01b0316868685818110612b6c57fe5b905060200201356040518363ffffffff1660e01b815260040180836001600160a01b0316815260200182815260200192505050602060405180830381600087803b158015612bb957600080fd5b505af1158015612bcd573d6000803e3d6000fd5b505050506040513d6020811015612be357600080fd5b5050600101612b0d565b6004546001600160a01b03163314612c34576040805162461bcd60e51b8152602060048201526005602482015264042c2eae8d60db1b604482015290519081900360640190fd5b6001600160a01b038181166000908152600f60205260409020541615612c92576040805162461bcd60e51b815260206004820152600e60248201526d416c72656164792065786973747360901b604482015290519081900360640190fd5b600e546001600160a01b031615801590612cb657506007546001600160a01b031615155b612d00576040805162461bcd60e51b815260206004820152601660248201527514de5cdd195b481b9bdd081a5b9a5d1a585b1a5cd95960521b604482015290519081900360640190fd5b6000816001600160a01b031663fc0c546a6040518163ffffffff1660e01b815260040160206040518083038186803b158015612d3b57600080fd5b505afa158015612d4f573d6000803e3d6000fd5b505050506040513d6020811015612d6557600080fd5b505190506001600160a01b038116612dc4576040805162461bcd60e51b815260206004820152601a60248201527f4665652064697374726f206e6f7420696e697469616c69736564000000000000604482015290519081900360640190fd5b7f00000000000000000000000000000000000000000000000000000000000000006001600160a01b0316816001600160a01b03161415612ee65760408051606080820183526001600160a01b037f00000000000000000000000000000000000000000000000000000000000000008116808452600e80548316602080870191825260018789018181528b87166000818152600f85528b902099518a549089166001600160a01b0319918216178b55945199909201805491511515600160a01b0260ff60a01b199a891692909516919091179890981692909217909655905486519182529481019190915292168284015291517f125af409731fa78089d37e0f7f166b726398745c97b932f061cf486d6ee4fcc8929181900390910190a16126c6565b600754600e5460408051637c6b091760e11b81526001600160a01b03858116600483015292831660248201523060448201529051600093929092169163f8d6122e9160648082019260209290919082900301818787803b158015612f4957600080fd5b505af1158015612f5d573d6000803e3d6000fd5b505050506040513d6020811015612f7357600080fd5b505160408051606080820183526001600160a01b03808716808452818616602085810182815260018789018181528d87166000818152600f86528b902099518a549089166001600160a01b0319918216178b55935199909201805491511515600160a01b0260ff60a01b199a909816919093161797909716949094179093558551948552918401919091528284015291519293507f125af409731fa78089d37e0f7f166b726398745c97b932f061cf486d6ee4fcc8929081900390910190a1505050565b60126020526000908152604090205460ff1681565b60105460009060ff1615613092576040805162461bcd60e51b815260206004820152600860248201526739b43aba3237bbb760c11b604482015290519081900360640190fd5b61309b826137b0565b506001919050565b600d546001600160a01b031681565b6005546001600160a01b031681565b61271081565b6006546001600160a01b031681565b600b546000906001600160a01b03163314613120576040805162461bcd60e51b8152602060048201526005602482015264042c2eae8d60db1b604482015290519081900360640190fd5b7f00000000000000000000000000000000000000000000000000000000000000006001600160a01b0316836001600160a01b0316148061319157507f00000000000000000000000000000000000000000000000000000000000000006001600160a01b0316836001600160a01b0316145b6131ce576040805162461bcd60e51b815260206004820152600960248201526810bb37ba32a0b2323960b91b604482015290519081900360640190fd5b7f00000000000000000000000000000000000000000000000000000000000000006001600160a01b031663e2cdd42a8585856040518463ffffffff1660e01b815260040180848152602001836001600160a01b0316815260200182151581526020019350505050602060405180830381600087803b15801561168457600080fd5b6009546001600160a01b031681565b6005546001600160a01b031633146132a5576040805162461bcd60e51b8152602060048201526005602482015264042c2eae8d60db1b604482015290519081900360640190fd5b600c80546001600160a01b0383166001600160a01b0319909116811790915560408051918252517f7dae230f18360d76a040c81f050aa14eb9d6dc7901b20fc5d855e2a20fe814d19181900360200190a150565b600f60205260009081526040902080546001909101546001600160a01b0391821691811690600160a01b900460ff1683565b60006011858154811061333a57fe5b60009182526020822060059091020180546002820154600183015460408051632770a7eb60e21b81526001600160a01b038a81166004830152602482018c9052915195975093811695928116949116928392639dc29fac9260448084019382900301818387803b1580156133ad57600080fd5b505af11580156133c1573d6000803e3d6000fd5b505050506004840154600160a01b900460ff1661348d577f00000000000000000000000000000000000000000000000000000000000000006001600160a01b031663d9caed1284848a6040518463ffffffff1660e01b815260040180846001600160a01b03168152602001836001600160a01b031681526020018281526020019350505050602060405180830381600087803b15801561346057600080fd5b505af1158015613474573d6000803e3d6000fd5b505050506040513d602081101561348a57600080fd5b50505b60048401546001600160a01b031680158015906134ad575060105460ff16155b80156134c557506004850154600160a01b900460ff16155b1561353257806001600160a01b031663b87bd4816040518163ffffffff1660e01b8152600401602060405180830381600087803b15801561350557600080fd5b505af1158015613519573d6000803e3d6000fd5b505050506040513d602081101561352f57600080fd5b50505b6135466001600160a01b038516878a61375e565b6040805189815290518a916001600160a01b038916917f92ccf450a286a957af52509bc1c9939d1a6a481783e142e41e2499f0bb66ebc69181900360200190a3505050505050505050565b604080516001600160a01b0380861660248301528416604482015260648082018490528251808303909101815260849091019091526020810180516001600160e01b03166323b872dd60e01b1790526135eb908590613d22565b50505050565b801580613677575060408051636eb1769f60e11b81523060048201526001600160a01b03848116602483015291519185169163dd62ed3e91604480820192602092909190829003018186803b15801561364957600080fd5b505afa15801561365d573d6000803e3d6000fd5b505050506040513d602081101561367357600080fd5b5051155b6136b25760405162461bcd60e51b815260040180806020018281038252603681526020018061419f6036913960400191505060405180910390fd5b604080516001600160a01b038416602482015260448082018490528251808303909101815260649091019091526020810180516001600160e01b031663095ea7b360e01b179052611c6b908490613d22565b600082820183811015610b47576040805162461bcd60e51b815260206004820152601b60248201527f536166654d6174683a206164646974696f6e206f766572666c6f770000000000604482015290519081900360640190fd5b604080516001600160a01b038416602482015260448082018490528251808303909101815260649091019091526020810180516001600160e01b031663a9059cbb60e01b179052611c6b908490613d22565b6000601182815481106137bf57fe5b600091825260209091206005909102016004810154909150600160a01b900460ff1615613824576040805162461bcd60e51b815260206004820152600e60248201526d1c1bdbdb081a5cc818db1bdcd95960921b604482015290519081900360640190fd5b600281015460408051631ff4de0360e11b81526001600160a01b0392831660048201819052915191927f00000000000000000000000000000000000000000000000000000000000000001691633fe9bc06916024808201926020929091908290030181600087803b15801561389857600080fd5b505af11580156138ac573d6000803e3d6000fd5b505050506040513d60208110156138c257600080fd5b505060048201546001600160a01b031680156139ae57806001600160a01b031663372500ab6040518163ffffffff1660e01b8152600401602060405180830381600087803b15801561391357600080fd5b505af1158015613927573d6000803e3d6000fd5b505050506040513d602081101561393d57600080fd5b50506040805163654580bb60e11b815290516001600160a01b0383169163ca8b01769160048083019260209291908290030181600087803b15801561398157600080fd5b505af1158015613995573d6000803e3d6000fd5b505050506040513d60208110156139ab57600080fd5b50505b60007f00000000000000000000000000000000000000000000000000000000000000006001600160a01b03166370a08231306040518263ffffffff1660e01b815260040180826001600160a01b0316815260200191505060206040518083038186803b158015613a1d57600080fd5b505afa158015613a31573d6000803e3d6000fd5b505050506040513d6020811015613a4757600080fd5b505190508015613d1b576000613a74612710613a6e60005485613dd390919063ffffffff16565b90613e2c565b90506000613a93612710613a6e60015486613dd390919063ffffffff16565b90506000613ab2612710613a6e60025487613dd390919063ffffffff16565b600c549091506001600160a01b031615801590613ada5750600c546001600160a01b03163014155b8015613ae857506000600354115b15613b55576000613b0a612710613a6e60035488613dd390919063ffffffff16565b9050613b168582613e93565b600c54909550613b53906001600160a01b037f0000000000000000000000000000000000000000000000000000000000000000811691168361375e565b505b613b6b82613b6583818888613e93565b90613e93565b9350613ba16001600160a01b037f000000000000000000000000000000000000000000000000000000000000000016338361375e565b60038701546001600160a01b0390811690613bdf907f000000000000000000000000000000000000000000000000000000000000000016828761375e565b806001600160a01b031663590a41f5866040518263ffffffff1660e01b815260040180828152602001915050600060405180830381600087803b158015613c2557600080fd5b505af1158015613c39573d6000803e3d6000fd5b5050600e54613c7792506001600160a01b037f000000000000000000000000000000000000000000000000000000000000000081169250168661375e565b600e546040805163590a41f560e01b81526004810187905290516001600160a01b039092169163590a41f59160248082019260009290919082900301818387803b158015613cc457600080fd5b505af1158015613cd8573d6000803e3d6000fd5b5050600d54613d1692506001600160a01b037f000000000000000000000000000000000000000000000000000000000000000081169250168561375e565b505050505b5050505050565b6060613d77826040518060400160405280602081526020017f5361666545524332303a206c6f772d6c6576656c2063616c6c206661696c6564815250856001600160a01b0316613ef09092919063ffffffff16565b805190915015611c6b57808060200190516020811015613d9657600080fd5b5051611c6b5760405162461bcd60e51b815260040180806020018281038252602a815260200180614175602a913960400191505060405180910390fd5b600082613de257506000610c83565b82820282848281613def57fe5b0414610b475760405162461bcd60e51b81526004018080602001828103825260218152602001806141546021913960400191505060405180910390fd5b6000808211613e82576040805162461bcd60e51b815260206004820152601a60248201527f536166654d6174683a206469766973696f6e206279207a65726f000000000000604482015290519081900360640190fd5b818381613e8b57fe5b049392505050565b600082821115613eea576040805162461bcd60e51b815260206004820152601e60248201527f536166654d6174683a207375627472616374696f6e206f766572666c6f770000604482015290519081900360640190fd5b50900390565b6060613eff8484600085613f07565b949350505050565b606082471015613f485760405162461bcd60e51b815260040180806020018281038252602681526020018061412e6026913960400191505060405180910390fd5b613f5185614063565b613fa2576040805162461bcd60e51b815260206004820152601d60248201527f416464726573733a2063616c6c20746f206e6f6e2d636f6e7472616374000000604482015290519081900360640190fd5b60006060866001600160a01b031685876040518082805190602001908083835b60208310613fe15780518252601f199092019160209182019101613fc2565b6001836020036101000a03801982511681845116808217855250505050505090500191505060006040518083038185875af1925050503d8060008114614043576040519150601f19603f3d011682016040523d82523d6000602084013e614048565b606091505b5091509150614058828286614069565b979650505050505050565b3b151590565b60608315614078575081610b47565b8251156140885782518084602001fd5b8160405162461bcd60e51b81526004018080602001828103825283818151815260200191508051906020019080838360005b838110156140d25781810151838201526020016140ba565b50505050905090810190601f1680156140ff5780820380516001836020036101000a031916815260200191505b509250505060405180910390fd5b60408051606081018252600080825260208201819052918101919091529056fe416464726573733a20696e73756666696369656e742062616c616e636520666f722063616c6c536166654d6174683a206d756c7469706c69636174696f6e206f766572666c6f775361666545524332303a204552433230206f7065726174696f6e20646964206e6f7420737563636565645361666545524332303a20617070726f76652066726f6d206e6f6e2d7a65726f20746f206e6f6e2d7a65726f20616c6c6f77616e6365a2646970667358221220039ddac07836eab33034da9861801a8b01fa3030203df987ab47eb1e5b44a7dd64736f6c634300060c0033",
  "linkReferences": {},
  "deployedLinkReferences": {}
}