{
  "_format": "hh-sol-artifact-1",
  "contractName": "Booster",
  "sourceName": "convex-platform/contracts/contracts/Booster.sol",
  "abi": [
    {
      "inputs": [
        {
          "internalType": "address",
          "name": "_staker",
          "type": "address"
        },
        {
          "internalType": "address",
          "name": "_minter",
          "type": "address"
        },
        {
          "internalType": "address",
          "name": "_crv",
          "type": "address"
        },
        {
          "internalType": "address",
          "name": "_voteOwnership",
          "type": "address"
        },
        {
          "internalType": "address",
          "name": "_voteParameter",
          "type": "address"
        }
      ],
      "stateMutability": "nonpayable",
      "type": "constructor"
    },
    {
      "anonymous": false,
      "inputs": [
        {
          "indexed": false,
          "internalType": "address",
          "name": "newArbitrator",
          "type": "address"
        }
      ],
      "name": "ArbitratorUpdated",
      "type": "event"
    },
    {
      "anonymous": false,
      "inputs": [
        {
          "indexed": true,
          "internalType": "address",
          "name": "user",
          "type": "address"
        },
        {
          "indexed": true,
          "internalType": "uint256",
          "name": "poolid",
          "type": "uint256"
        },
        {
          "indexed": false,
          "internalType": "uint256",
          "name": "amount",
          "type": "uint256"
        }
      ],
      "name": "Deposited",
      "type": "event"
    },
    {
      "anonymous": false,
      "inputs": [
        {
          "indexed": false,
          "internalType": "address",
          "name": "rewardFactory",
          "type": "address"
        },
        {
          "indexed": false,
          "internalType": "address",
          "name": "stashFactory",
          "type": "address"
        },
        {
          "indexed": false,
          "internalType": "address",
          "name": "tokenFactory",
          "type": "address"
        }
      ],
      "name": "FactoriesUpdated",
      "type": "event"
    },
    {
      "anonymous": false,
      "inputs": [
        {
          "indexed": false,
          "internalType": "address",
          "name": "feeDistro",
          "type": "address"
        },
        {
          "indexed": false,
          "internalType": "bool",
          "name": "active",
          "type": "bool"
        }
      ],
      "name": "FeeInfoChanged",
      "type": "event"
    },
    {
      "anonymous": false,
      "inputs": [
        {
          "indexed": false,
          "internalType": "address",
          "name": "feeDistro",
          "type": "address"
        },
        {
          "indexed": false,
          "internalType": "address",
          "name": "lockFees",
          "type": "address"
        },
        {
          "indexed": false,
          "internalType": "address",
          "name": "feeToken",
          "type": "address"
        }
      ],
      "name": "FeeInfoUpdated",
      "type": "event"
    },
    {
      "anonymous": false,
      "inputs": [
        {
          "indexed": false,
          "internalType": "address",
          "name": "newFeeManager",
          "type": "address"
        }
      ],
      "name": "FeeManagerUpdated",
      "type": "event"
    },
    {
      "anonymous": false,
      "inputs": [
        {
          "indexed": false,
          "internalType": "uint256",
          "name": "lockIncentive",
          "type": "uint256"
        },
        {
          "indexed": false,
          "internalType": "uint256",
          "name": "stakerIncentive",
          "type": "uint256"
        },
        {
          "indexed": false,
          "internalType": "uint256",
          "name": "earmarkIncentive",
          "type": "uint256"
        },
        {
          "indexed": false,
          "internalType": "uint256",
          "name": "platformFee",
          "type": "uint256"
        }
      ],
      "name": "FeesUpdated",
      "type": "event"
    },
    {
      "anonymous": false,
      "inputs": [
        {
          "indexed": false,
          "internalType": "address",
          "name": "newOwner",
          "type": "address"
        }
      ],
      "name": "OwnerUpdated",
      "type": "event"
    },
    {
      "anonymous": false,
      "inputs": [
        {
          "indexed": false,
          "internalType": "address",
          "name": "lpToken",
          "type": "address"
        },
        {
          "indexed": false,
          "internalType": "address",
          "name": "gauge",
          "type": "address"
        },
        {
          "indexed": false,
          "internalType": "address",
          "name": "token",
          "type": "address"
        },
        {
          "indexed": false,
          "internalType": "address",
          "name": "rewardPool",
          "type": "address"
        },
        {
          "indexed": false,
          "internalType": "address",
          "name": "stash",
          "type": "address"
        },
        {
          "indexed": false,
          "internalType": "uint256",
          "name": "pid",
          "type": "uint256"
        }
      ],
      "name": "PoolAdded",
      "type": "event"
    },
    {
      "anonymous": false,
      "inputs": [
        {
          "indexed": false,
          "internalType": "address",
          "name": "newPoolManager",
          "type": "address"
        }
      ],
      "name": "PoolManagerUpdated",
      "type": "event"
    },
    {
      "anonymous": false,
      "inputs": [
        {
          "indexed": false,
          "internalType": "uint256",
          "name": "poolId",
          "type": "uint256"
        }
      ],
      "name": "PoolShutdown",
      "type": "event"
    },
    {
      "anonymous": false,
      "inputs": [
        {
          "indexed": false,
          "internalType": "address",
          "name": "lockRewards",
          "type": "address"
        },
        {
          "indexed": false,
          "internalType": "address",
          "name": "stakerRewards",
          "type": "address"
        }
      ],
      "name": "RewardContractsUpdated",
      "type": "event"
    },
    {
      "anonymous": false,
      "inputs": [
        {
          "indexed": false,
          "internalType": "address",
          "name": "newTreasury",
          "type": "address"
        }
      ],
      "name": "TreasuryUpdated",
      "type": "event"
    },
    {
      "anonymous": false,
      "inputs": [
        {
          "indexed": false,
          "internalType": "address",
          "name": "newVoteDelegate",
          "type": "address"
        }
      ],
      "name": "VoteDelegateUpdated",
      "type": "event"
    },
    {
      "anonymous": false,
      "inputs": [
        {
          "indexed": true,
          "internalType": "address",
          "name": "user",
          "type": "address"
        },
        {
          "indexed": true,
          "internalType": "uint256",
          "name": "poolid",
          "type": "uint256"
        },
        {
          "indexed": false,
          "internalType": "uint256",
          "name": "amount",
          "type": "uint256"
        }
      ],
      "name": "Withdrawn",
      "type": "event"
    },
    {
      "inputs": [],
      "name": "FEE_DENOMINATOR",
      "outputs": [
        {
          "internalType": "uint256",
          "name": "",
          "type": "uint256"
        }
      ],
      "stateMutability": "view",
      "type": "function"
    },
    {
      "inputs": [],
      "name": "MaxFees",
      "outputs": [
        {
          "internalType": "uint256",
          "name": "",
          "type": "uint256"
        }
      ],
      "stateMutability": "view",
      "type": "function"
    },
    {
      "inputs": [
        {
          "internalType": "address",
          "name": "_lptoken",
          "type": "address"
        },
        {
          "internalType": "address",
          "name": "_gauge",
          "type": "address"
        },
        {
          "internalType": "uint256",
          "name": "_stashVersion",
          "type": "uint256"
        }
      ],
      "name": "addPool",
      "outputs": [
        {
          "internalType": "bool",
          "name": "",
          "type": "bool"
        }
      ],
      "stateMutability": "nonpayable",
      "type": "function"
    },
    {
      "inputs": [
        {
          "internalType": "uint256",
          "name": "_pid",
          "type": "uint256"
        },
        {
          "internalType": "address",
          "name": "_gauge",
          "type": "address"
        }
      ],
      "name": "claimRewards",
      "outputs": [
        {
          "internalType": "bool",
          "name": "",
          "type": "bool"
        }
      ],
      "stateMutability": "nonpayable",
      "type": "function"
    },
    {
      "inputs": [],
      "name": "crv",
      "outputs": [
        {
          "internalType": "address",
          "name": "",
          "type": "address"
        }
      ],
      "stateMutability": "view",
      "type": "function"
    },
    {
      "inputs": [
        {
          "internalType": "uint256",
          "name": "_pid",
          "type": "uint256"
        },
        {
          "internalType": "uint256",
          "name": "_amount",
          "type": "uint256"
        },
        {
          "internalType": "bool",
          "name": "_stake",
          "type": "bool"
        }
      ],
      "name": "deposit",
      "outputs": [
        {
          "internalType": "bool",
          "name": "",
          "type": "bool"
        }
      ],
      "stateMutability": "nonpayable",
      "type": "function"
    },
    {
      "inputs": [
        {
          "internalType": "uint256",
          "name": "_pid",
          "type": "uint256"
        },
        {
          "internalType": "bool",
          "name": "_stake",
          "type": "bool"
        }
      ],
      "name": "depositAll",
      "outputs": [
        {
          "internalType": "bool",
          "name": "",
          "type": "bool"
        }
      ],
      "stateMutability": "nonpayable",
      "type": "function"
    },
    {
      "inputs": [
        {
          "internalType": "address",
          "name": "_feeToken",
          "type": "address"
        }
      ],
      "name": "earmarkFees",
      "outputs": [
        {
          "internalType": "bool",
          "name": "",
          "type": "bool"
        }
      ],
      "stateMutability": "nonpayable",
      "type": "function"
    },
    {
      "inputs": [],
      "name": "earmarkIncentive",
      "outputs": [
        {
          "internalType": "uint256",
          "name": "",
          "type": "uint256"
        }
      ],
      "stateMutability": "view",
      "type": "function"
    },
    {
      "inputs": [
        {
          "internalType": "uint256",
          "name": "_pid",
          "type": "uint256"
        }
      ],
      "name": "earmarkRewards",
      "outputs": [
        {
          "internalType": "bool",
          "name": "",
          "type": "bool"
        }
      ],
      "stateMutability": "nonpayable",
      "type": "function"
    },
    {
      "inputs": [],
      "name": "feeManager",
      "outputs": [
        {
          "internalType": "address",
          "name": "",
          "type": "address"
        }
      ],
      "stateMutability": "view",
      "type": "function"
    },
    {
      "inputs": [
        {
          "internalType": "address",
          "name": "",
          "type": "address"
        }
      ],
      "name": "feeTokens",
      "outputs": [
        {
          "internalType": "address",
          "name": "distro",
          "type": "address"
        },
        {
          "internalType": "address",
          "name": "rewards",
          "type": "address"
        },
        {
          "internalType": "bool",
          "name": "active",
          "type": "bool"
        }
      ],
      "stateMutability": "view",
      "type": "function"
    },
    {
      "inputs": [
        {
          "internalType": "address",
          "name": "",
          "type": "address"
        }
      ],
      "name": "gaugeMap",
      "outputs": [
        {
          "internalType": "bool",
          "name": "",
          "type": "bool"
        }
      ],
      "stateMutability": "view",
      "type": "function"
    },
    {
      "inputs": [],
      "name": "isShutdown",
      "outputs": [
        {
          "internalType": "bool",
          "name": "",
          "type": "bool"
        }
      ],
      "stateMutability": "view",
      "type": "function"
    },
    {
      "inputs": [],
      "name": "lockIncentive",
      "outputs": [
        {
          "internalType": "uint256",
          "name": "",
          "type": "uint256"
        }
      ],
      "stateMutability": "view",
      "type": "function"
    },
    {
      "inputs": [],
      "name": "lockRewards",
      "outputs": [
        {
          "internalType": "address",
          "name": "",
          "type": "address"
        }
      ],
      "stateMutability": "view",
      "type": "function"
    },
    {
      "inputs": [],
      "name": "minter",
      "outputs": [
        {
          "internalType": "address",
          "name": "",
          "type": "address"
        }
      ],
      "stateMutability": "view",
      "type": "function"
    },
    {
      "inputs": [],
      "name": "owner",
      "outputs": [
        {
          "internalType": "address",
          "name": "",
          "type": "address"
        }
      ],
      "stateMutability": "view",
      "type": "function"
    },
    {
      "inputs": [],
      "name": "platformFee",
      "outputs": [
        {
          "internalType": "uint256",
          "name": "",
          "type": "uint256"
        }
      ],
      "stateMutability": "view",
      "type": "function"
    },
    {
      "inputs": [
        {
          "internalType": "uint256",
          "name": "",
          "type": "uint256"
        }
      ],
      "name": "poolInfo",
      "outputs": [
        {
          "internalType": "address",
          "name": "lptoken",
          "type": "address"
        },
        {
          "internalType": "address",
          "name": "token",
          "type": "address"
        },
        {
          "internalType": "address",
          "name": "gauge",
          "type": "address"
        },
        {
          "internalType": "address",
          "name": "crvRewards",
          "type": "address"
        },
        {
          "internalType": "address",
          "name": "stash",
          "type": "address"
        },
        {
          "internalType": "bool",
          "name": "shutdown",
          "type": "bool"
        }
      ],
      "stateMutability": "view",
      "type": "function"
    },
    {
      "inputs": [],
      "name": "poolLength",
      "outputs": [
        {
          "internalType": "uint256",
          "name": "",
          "type": "uint256"
        }
      ],
      "stateMutability": "view",
      "type": "function"
    },
    {
      "inputs": [],
      "name": "poolManager",
      "outputs": [
        {
          "internalType": "address",
          "name": "",
          "type": "address"
        }
      ],
      "stateMutability": "view",
      "type": "function"
    },
    {
      "inputs": [],
      "name": "rewardArbitrator",
      "outputs": [
        {
          "internalType": "address",
          "name": "",
          "type": "address"
        }
      ],
      "stateMutability": "view",
      "type": "function"
    },
    {
      "inputs": [
        {
          "internalType": "uint256",
          "name": "_pid",
          "type": "uint256"
        },
        {
          "internalType": "address",
          "name": "_address",
          "type": "address"
        },
        {
          "internalType": "uint256",
          "name": "_amount",
          "type": "uint256"
        }
      ],
      "name": "rewardClaimed",
      "outputs": [
        {
          "internalType": "bool",
          "name": "",
          "type": "bool"
        }
      ],
      "stateMutability": "nonpayable",
      "type": "function"
    },
    {
      "inputs": [],
      "name": "rewardFactory",
      "outputs": [
        {
          "internalType": "address",
          "name": "",
          "type": "address"
        }
      ],
      "stateMutability": "view",
      "type": "function"
    },
    {
      "inputs": [
        {
          "internalType": "address",
          "name": "_arb",
          "type": "address"
        }
      ],
      "name": "setArbitrator",
      "outputs": [],
      "stateMutability": "nonpayable",
      "type": "function"
    },
    {
      "inputs": [
        {
          "internalType": "address",
          "name": "_rfactory",
          "type": "address"
        },
        {
          "internalType": "address",
          "name": "_sfactory",
          "type": "address"
        },
        {
          "internalType": "address",
          "name": "_tfactory",
          "type": "address"
        }
      ],
      "name": "setFactories",
      "outputs": [],
      "stateMutability": "nonpayable",
      "type": "function"
    },
    {
      "inputs": [
        {
          "internalType": "address",
          "name": "_feeToken",
          "type": "address"
        },
        {
          "internalType": "address",
          "name": "_feeDistro",
          "type": "address"
        }
      ],
      "name": "setFeeInfo",
      "outputs": [],
      "stateMutability": "nonpayable",
      "type": "function"
    },
    {
      "inputs": [
        {
          "internalType": "address",
          "name": "_feeM",
          "type": "address"
        }
      ],
      "name": "setFeeManager",
      "outputs": [],
      "stateMutability": "nonpayable",
      "type": "function"
    },
    {
      "inputs": [
        {
          "internalType": "uint256",
          "name": "_lockFees",
          "type": "uint256"
        },
        {
          "internalType": "uint256",
          "name": "_stakerFees",
          "type": "uint256"
        },
        {
          "internalType": "uint256",
          "name": "_callerFees",
          "type": "uint256"
        },
        {
          "internalType": "uint256",
          "name": "_platform",
          "type": "uint256"
        }
      ],
      "name": "setFees",
      "outputs": [],
      "stateMutability": "nonpayable",
      "type": "function"
    },
    {
      "inputs": [
        {
          "internalType": "uint256",
          "name": "_pid",
          "type": "uint256"
        }
      ],
      "name": "setGaugeRedirect",
      "outputs": [
        {
          "internalType": "bool",
          "name": "",
          "type": "bool"
        }
      ],
      "stateMutability": "nonpayable",
      "type": "function"
    },
    {
      "inputs": [
        {
          "internalType": "address",
          "name": "_owner",
          "type": "address"
        }
      ],
      "name": "setOwner",
      "outputs": [],
      "stateMutability": "nonpayable",
      "type": "function"
    },
    {
      "inputs": [
        {
          "internalType": "address",
          "name": "_poolM",
          "type": "address"
        }
      ],
      "name": "setPoolManager",
      "outputs": [],
      "stateMutability": "nonpayable",
      "type": "function"
    },
    {
      "inputs": [
        {
          "internalType": "address",
          "name": "_rewards",
          "type": "address"
        },
        {
          "internalType": "address",
          "name": "_stakerRewards",
          "type": "address"
        }
      ],
      "name": "setRewardContracts",
      "outputs": [],
      "stateMutability": "nonpayable",
      "type": "function"
    },
    {
      "inputs": [
        {
          "internalType": "address",
          "name": "_treasury",
          "type": "address"
        }
      ],
      "name": "setTreasury",
      "outputs": [],
      "stateMutability": "nonpayable",
      "type": "function"
    },
    {
      "inputs": [
        {
          "internalType": "bytes32",
          "name": "_hash",
          "type": "bytes32"
        },
        {
          "internalType": "bool",
          "name": "valid",
          "type": "bool"
        }
      ],
      "name": "setVote",
      "outputs": [
        {
          "internalType": "bool",
          "name": "",
          "type": "bool"
        }
      ],
      "stateMutability": "nonpayable",
      "type": "function"
    },
    {
      "inputs": [
        {
          "internalType": "address",
          "name": "_voteDelegate",
          "type": "address"
        }
      ],
      "name": "setVoteDelegate",
      "outputs": [],
      "stateMutability": "nonpayable",
      "type": "function"
    },
    {
      "inputs": [
        {
          "internalType": "uint256",
          "name": "_pid",
          "type": "uint256"
        }
      ],
      "name": "shutdownPool",
      "outputs": [
        {
          "internalType": "bool",
          "name": "",
          "type": "bool"
        }
      ],
      "stateMutability": "nonpayable",
      "type": "function"
    },
    {
      "inputs": [],
      "name": "shutdownSystem",
      "outputs": [],
      "stateMutability": "nonpayable",
      "type": "function"
    },
    {
      "inputs": [],
      "name": "staker",
      "outputs": [
        {
          "internalType": "address",
          "name": "",
          "type": "address"
        }
      ],
      "stateMutability": "view",
      "type": "function"
    },
    {
      "inputs": [],
      "name": "stakerIncentive",
      "outputs": [
        {
          "internalType": "uint256",
          "name": "",
          "type": "uint256"
        }
      ],
      "stateMutability": "view",
      "type": "function"
    },
    {
      "inputs": [],
      "name": "stakerRewards",
      "outputs": [
        {
          "internalType": "address",
          "name": "",
          "type": "address"
        }
      ],
      "stateMutability": "view",
      "type": "function"
    },
    {
      "inputs": [],
      "name": "stashFactory",
      "outputs": [
        {
          "internalType": "address",
          "name": "",
          "type": "address"
        }
      ],
      "stateMutability": "view",
      "type": "function"
    },
    {
      "inputs": [],
      "name": "tokenFactory",
      "outputs": [
        {
          "internalType": "address",
          "name": "",
          "type": "address"
        }
      ],
      "stateMutability": "view",
      "type": "function"
    },
    {
      "inputs": [],
      "name": "treasury",
      "outputs": [
        {
          "internalType": "address",
          "name": "",
          "type": "address"
        }
      ],
      "stateMutability": "view",
      "type": "function"
    },
    {
      "inputs": [
        {
          "internalType": "address",
          "name": "_feeToken",
          "type": "address"
        },
        {
          "internalType": "bool",
          "name": "_active",
          "type": "bool"
        }
      ],
      "name": "updateFeeInfo",
      "outputs": [],
      "stateMutability": "nonpayable",
      "type": "function"
    },
    {
      "inputs": [
        {
          "internalType": "uint256",
          "name": "_voteId",
          "type": "uint256"
        },
        {
          "internalType": "address",
          "name": "_votingAddress",
          "type": "address"
        },
        {
          "internalType": "bool",
          "name": "_support",
          "type": "bool"
        }
      ],
      "name": "vote",
      "outputs": [
        {
          "internalType": "bool",
          "name": "",
          "type": "bool"
        }
      ],
      "stateMutability": "nonpayable",
      "type": "function"
    },
    {
      "inputs": [],
      "name": "voteDelegate",
      "outputs": [
        {
          "internalType": "address",
          "name": "",
          "type": "address"
        }
      ],
      "stateMutability": "view",
      "type": "function"
    },
    {
      "inputs": [
        {
          "internalType": "address[]",
          "name": "_gauge",
          "type": "address[]"
        },
        {
          "internalType": "uint256[]",
          "name": "_weight",
          "type": "uint256[]"
        }
      ],
      "name": "voteGaugeWeight",
      "outputs": [
        {
          "internalType": "bool",
          "name": "",
          "type": "bool"
        }
      ],
      "stateMutability": "nonpayable",
      "type": "function"
    },
    {
      "inputs": [],
      "name": "voteOwnership",
      "outputs": [
        {
          "internalType": "address",
          "name": "",
          "type": "address"
        }
      ],
      "stateMutability": "view",
      "type": "function"
    },
    {
      "inputs": [],
      "name": "voteParameter",
      "outputs": [
        {
          "internalType": "address",
          "name": "",
          "type": "address"
        }
      ],
      "stateMutability": "view",
      "type": "function"
    },
    {
      "inputs": [
        {
          "internalType": "uint256",
          "name": "_pid",
          "type": "uint256"
        },
        {
          "internalType": "uint256",
          "name": "_amount",
          "type": "uint256"
        }
      ],
      "name": "withdraw",
      "outputs": [
        {
          "internalType": "bool",
          "name": "",
          "type": "bool"
        }
      ],
      "stateMutability": "nonpayable",
      "type": "function"
    },
    {
      "inputs": [
        {
          "internalType": "uint256",
          "name": "_pid",
          "type": "uint256"
        }
      ],
      "name": "withdrawAll",
      "outputs": [
        {
          "internalType": "bool",
          "name": "",
          "type": "bool"
        }
      ],
      "stateMutability": "nonpayable",
      "type": "function"
    },
    {
      "inputs": [
        {
          "internalType": "uint256",
          "name": "_pid",
          "type": "uint256"
        },
        {
          "internalType": "uint256",
          "name": "_amount",
          "type": "uint256"
        },
        {
          "internalType": "address",
          "name": "_to",
          "type": "address"
        }
      ],
      "name": "withdrawTo",
      "outputs": [
        {
          "internalType": "bool",
          "name": "",
          "type": "bool"
        }
      ],
      "stateMutability": "nonpayable",
      "type": "function"
    }
  ],
  "bytecode": "0x6101206040526103396000556103396001556032600255600060035534801561002757600080fd5b50604051620047e2380380620047e2833981810160405260a081101561004c57600080fd5b5080516020808301516040808501516060808701516080978801516001600160601b031988841b811660e05286841b81166101005284841b811690995281831b891660a0529182901b90971660c0526010805460ff19169055600480546001600160a01b031990811633908117909255600b80548216831790556005805482168317905560068054821683179055600c805490911690558351908152925195969395919490927f4ffd725fc4a22075e9ec71c59edf9c38cdeb588a91b24fc5b61388c5be41282b929081900390910190a16040805133815290517f49f087c09fe6698eda82449a671bd8d38e44bed601118018a7cc7f1e0c808df49181900360200190a16040805133815290517fe45f5e140399b0a7e12971ab020724b828fbed8ac408c420884dc7d1bbe506b49181900360200190a16040805133815290517f70a64736553c84939f57deec269299882abbbee8dc4f316eccbc6fce57e4d3cf9181900360200190a1505050505060805160601c60a05160601c60c05160601c60e05160601c6101005160601c61455b6200028760003980610a0f52806119a6525080610c325280610dae5280610f2e5280610fa6528061134c52806114b95280611651528061250a528061278e5280612b0c528061301b52806132e45280613553528061372b5280613bfd52508061326252806134e05250806131a352806134a55250806115c25280611cb95280611d225280613d605280613ed85280613f285280613f665280613ffb528061409a525061455b6000f3fe608060405234801561001057600080fd5b50600436106103425760003560e01c8063728706ed116101b8578063a386a08011610104578063cfb9cfba116100a2578063dc4c90d31161007c578063dc4c90d314610985578063e2cdd42a1461098d578063e77772fe146109c1578063f0f44260146109c957610342565b8063cfb9cfba1461096d578063d0fb020314610975578063d73792a91461097d57610342565b8063bf86d690116100de578063bf86d69014610860578063bfad96ba14610868578063cb0d5b521461092a578063cc956f3f1461095057610342565b8063a386a0801461082a578063b0eefabe14610832578063b42eda711461085857610342565b80637e8df27a1161017157806395539a1d1161014b57806395539a1d146107b1578063958e2d31146107df5780639f00332b146107fc578063a0e0c54d1461080457610342565b80637e8df27a1461075e5780638da5cb5b1461078c5780639123d4041461079457610342565b8063728706ed1461066e5780637303df9a1461069c57806374874323146106a45780637aef6715146106ca5780637bd3b995146106f05780637e29d6c21461072857610342565b80633a088cd21161029257806360cafe84116102305780636a4874a11161020a5780636a4874a1146105d95780636c7b69cb146105e15780636fcba3771461060d57806371192b171461063c57610342565b806360cafe84146105ac57806361d027b3146105c957806362d28ac7146105d157610342565b8063472d35b91161026c578063472d35b91461055157806350940618146105775780635ebaf1db1461057f57806360759fce1461058757610342565b80633a088cd2146104fb57806343a0d06614610503578063441a3e701461052e57610342565b80631526fe27116102ff578063245e4bf0116102d9578063245e4bf0146104db57806326232a2e146104e3578063354af919146104eb578063376d771a146104f357610342565b80631526fe271461040357806316605a0d146104645780631fbd8974146104b657610342565b8063043b684a14610347578063068eb19e1461036b5780630754617214610373578063081e3eda1461037b57806313af40351461039557806314cd70e4146103bd575b600080fd5b61034f6109ef565b604080516001600160a01b039092168252519081900360200190f35b61034f6109fe565b61034f610a0d565b610383610a31565b60408051918252519081900360200190f35b6103bb600480360360208110156103ab57600080fd5b50356001600160a01b0316610a37565b005b6103ef600480360360608110156103d357600080fd5b50803590602081013590604001356001600160a01b0316610ad2565b604080519115158252519081900360200190f35b6104206004803603602081101561041957600080fd5b5035610b56565b604080516001600160a01b0397881681529587166020870152938616858501529185166060850152909316608083015291151560a082015290519081900360c00190f35b61048a6004803603602081101561047a57600080fd5b50356001600160a01b0316610bb4565b604080516001600160a01b03948516815292909316602083015215158183015290519081900360600190f35b6103ef600480360360408110156104cc57600080fd5b50803590602001351515610be6565b61034f610cc3565b610383610cd2565b6103bb610cd8565b61034f610e4d565b610383610e5c565b6103ef6004803603606081101561051957600080fd5b50803590602081013590604001351515610e62565b6103ef6004803603604081101561054457600080fd5b5080359060200135611292565b6103bb6004803603602081101561056757600080fd5b50356001600160a01b03166112a9565b610383611344565b61034f61134a565b6103ef6004803603604081101561059d57600080fd5b5080359060200135151561136e565b6103ef600480360360208110156105c257600080fd5b503561141b565b61034f6115ab565b6103836115ba565b61034f6115c0565b6103ef600480360360408110156105f757600080fd5b50803590602001356001600160a01b03166115e4565b6103bb6004803603608081101561062357600080fd5b50803590602081013590604081013590606001356116e8565b6103ef6004803603606081101561065257600080fd5b508035906001600160a01b036020820135169060400135611924565b6103bb6004803603604081101561068457600080fd5b506001600160a01b0381358116916020013516611a3e565b61038361205a565b6103bb600480360360208110156106ba57600080fd5b50356001600160a01b0316612060565b6103bb600480360360208110156106e057600080fd5b50356001600160a01b03166120fb565b6103bb6004803603606081101561070657600080fd5b506001600160a01b038135811691602081013582169160409091013516612196565b6103ef6004803603606081101561073e57600080fd5b506001600160a01b038135811691602081013590911690604001356122c6565b6103bb6004803603604081101561077457600080fd5b506001600160a01b03813516906020013515156128dd565b61034f6129f7565b6103ef600480360360208110156107aa57600080fd5b5035612a06565b6103bb600480360360408110156107c757600080fd5b506001600160a01b0381358116916020013516612caf565b6103ef600480360360208110156107f557600080fd5b5035612d75565b61034f612e24565b6103ef6004803603602081101561081a57600080fd5b50356001600160a01b0316612e33565b61034f6131a1565b6103bb6004803603602081101561084857600080fd5b50356001600160a01b03166131c5565b61034f613260565b6103ef613284565b6103ef6004803603604081101561087e57600080fd5b81019060208101813564010000000081111561089957600080fd5b8201836020820111156108ab57600080fd5b803590602001918460208302840111640100000000831117156108cd57600080fd5b9193909290916020810190356401000000008111156108eb57600080fd5b8201836020820111156108fd57600080fd5b8035906020019184602083028401116401000000008311171561091f57600080fd5b50909250905061328d565b6103ef6004803603602081101561094057600080fd5b50356001600160a01b03166133ba565b6103ef6004803603602081101561096657600080fd5b50356133cf565b61034f613426565b61034f613435565b610383613444565b61034f61344a565b6103ef600480360360608110156109a357600080fd5b508035906001600160a01b0360208201351690604001351515613459565b61034f6135d2565b6103bb600480360360208110156109df57600080fd5b50356001600160a01b03166135e1565b600a546001600160a01b031681565b6008546001600160a01b031681565b7f000000000000000000000000000000000000000000000000000000000000000081565b60115490565b6004546001600160a01b03163314610a7e576040805162461bcd60e51b8152602060048201526005602482015264042c2eae8d60db1b604482015290519081900360640190fd5b600480546001600160a01b0383166001600160a01b0319909116811790915560408051918252517f4ffd725fc4a22075e9ec71c59edf9c38cdeb588a91b24fc5b61388c5be41282b9181900360200190a150565b60008060118581548110610ae257fe5b60009182526020909120600360059092020101546001600160a01b03169050338114610b3d576040805162461bcd60e51b8152602060048201526005602482015264042c2eae8d60db1b604482015290519081900360640190fd5b610b498585338661367c565b60019150505b9392505050565b60118181548110610b6357fe5b6000918252602090912060059091020180546001820154600283015460038401546004909401546001600160a01b03938416955091831693908316929081169190811690600160a01b900460ff1686565b600f60205260009081526040902080546001909101546001600160a01b0391821691811690600160a01b900460ff1683565b600b546000906001600160a01b03163314610c30576040805162461bcd60e51b8152602060048201526005602482015264042c2eae8d60db1b604482015290519081900360640190fd5b7f00000000000000000000000000000000000000000000000000000000000000006001600160a01b0316631fbd897484846040518363ffffffff1660e01b815260040180838152602001821515815260200192505050600060405180830381600087803b158015610ca057600080fd5b505af1158015610cb4573d6000803e3d6000fd5b50505050600190505b92915050565b6007546001600160a01b031681565b60035481565b6004546001600160a01b03163314610d1f576040805162461bcd60e51b8152602060048201526005602482015264042c2eae8d60db1b604482015290519081900360640190fd5b6010805460ff1916600117905560005b601154811015610e4a57600060118281548110610d4857fe5b906000526020600020906005020190508060040160149054906101000a900460ff1615610d755750610e42565b80546002820154604080516301395c5960e31b81526001600160a01b0393841660048201819052928416602482018190529151929391927f0000000000000000000000000000000000000000000000000000000000000000909216916309cae2c8916044808201926020929091908290030181600087803b158015610df957600080fd5b505af1925050508015610e1e57506040513d6020811015610e1957600080fd5b505160015b610e2757610e3e565b5060048301805460ff60a01b1916600160a01b1790555b5050505b600101610d2f565b50565b600e546001600160a01b031681565b60025481565b60105460009060ff1615610ea8576040805162461bcd60e51b815260206004820152600860248201526739b43aba3237bbb760c11b604482015290519081900360640190fd5b600060118581548110610eb757fe5b600091825260209091206005909102016004810154909150600160a01b900460ff1615610f1c576040805162461bcd60e51b815260206004820152600e60248201526d1c1bdbdb081a5cc818db1bdcd95960921b604482015290519081900360640190fd5b80546001600160a01b0316610f5381337f0000000000000000000000000000000000000000000000000000000000000000886138e2565b60028201546001600160a01b031680610fa4576040805162461bcd60e51b815260206004820152600e60248201526d2167617567652073657474696e6760901b604482015290519081900360640190fd5b7f00000000000000000000000000000000000000000000000000000000000000006001600160a01b031663f9609f0883836040518363ffffffff1660e01b815260040180836001600160a01b03168152602001826001600160a01b0316815260200192505050602060405180830381600087803b15801561102457600080fd5b505af1158015611038573d6000803e3d6000fd5b505050506040513d602081101561104e57600080fd5b505060048301546001600160a01b031680156110cc57806001600160a01b031663b87bd4816040518163ffffffff1660e01b8152600401602060405180830381600087803b15801561109f57600080fd5b505af11580156110b3573d6000803e3d6000fd5b505050506040513d60208110156110c957600080fd5b50505b60018401546001600160a01b031686156111e557604080516340c10f1960e01b8152306004820152602481018a905290516001600160a01b038316916340c10f1991604480830192600092919082900301818387803b15801561112e57600080fd5b505af1158015611142573d6000803e3d6000fd5b50505060038601546001600160a01b039081169150611165908316826000613942565b6111796001600160a01b038316828b613942565b604080516305dc812160e31b8152336004820152602481018b905290516001600160a01b03831691632ee4090891604480830192600092919082900301818387803b1580156111c757600080fd5b505af11580156111db573d6000803e3d6000fd5b505050505061124c565b604080516340c10f1960e01b8152336004820152602481018a905290516001600160a01b038316916340c10f1991604480830192600092919082900301818387803b15801561123357600080fd5b505af1158015611247573d6000803e3d6000fd5b505050505b6040805189815290518a9133917f73a19dd210f1a7f902193214c0ee91dd35ee5b4d920cba8d519eca65a7b488ca9181900360200190a350600198975050505050505050565b60006112a08383333361367c565b50600192915050565b6004546001600160a01b031633146112f0576040805162461bcd60e51b8152602060048201526005602482015264042c2eae8d60db1b604482015290519081900360640190fd5b600580546001600160a01b0383166001600160a01b0319909116811790915560408051918252517fe45f5e140399b0a7e12971ab020724b828fbed8ac408c420884dc7d1bbe506b49181900360200190a150565b60005481565b7f000000000000000000000000000000000000000000000000000000000000000081565b6000806011848154811061137e57fe5b60009182526020808320600590920290910154604080516370a0823160e01b815233600482015290516001600160a01b03909216945084926370a0823192602480840193829003018186803b1580156113d657600080fd5b505afa1580156113ea573d6000803e3d6000fd5b505050506040513d602081101561140057600080fd5b5051905061140f858286610e62565b50600195945050505050565b6006546000906001600160a01b03163314611465576040805162461bcd60e51b8152602060048201526005602482015264042c2eae8d60db1b604482015290519081900360640190fd5b60006011838154811061147457fe5b60009182526020808320600590920290910180546002820154604080516301395c5960e31b81526001600160a01b0393841660048201529183166024830152519295507f000000000000000000000000000000000000000000000000000000000000000091909116936309cae2c89360448084019491939192918390030190829087803b15801561150457600080fd5b505af192505050801561152957506040513d602081101561152457600080fd5b505160015b61153257611534565b505b60048101805460ff60a01b1916600160a01b17905560028101546001600160a01b0316600090815260126020908152604091829020805460ff19169055815185815291517f2ccd633716c6ce12394d1c984ad04b6173d18aedc4f505d1537a94a98a07b6e79281900390910190a150600192915050565b600c546001600160a01b031681565b60015481565b7f000000000000000000000000000000000000000000000000000000000000000081565b600080601184815481106115f457fe5b60009182526020909120600460059092020101546001600160a01b0316905033811461164f576040805162461bcd60e51b8152602060048201526005602482015264042c2eae8d60db1b604482015290519081900360640190fd5b7f00000000000000000000000000000000000000000000000000000000000000006001600160a01b031663ef5cfb8c846040518263ffffffff1660e01b815260040180826001600160a01b03168152602001915050602060405180830381600087803b1580156116be57600080fd5b505af11580156116d2573d6000803e3d6000fd5b505050506040513d602081101561140f57600080fd5b6005546001600160a01b0316331461172f576040805162461bcd60e51b8152602060048201526005602482015264042c2eae8d60db1b604482015290519081900360640190fd5b60006117478261174185818989613a55565b90613a55565b90506109c481111561178b576040805162461bcd60e51b81526020600482015260086024820152673e4d61784665657360c01b604482015290519081900360640190fd5b61012c851015801561179f57506105dc8511155b6117dc576040805162461bcd60e51b8152602060048201526009602482015268216c6f636b4665657360b81b604482015290519081900360640190fd5b61012c84101580156117f057506105dc8411155b61182f576040805162461bcd60e51b815260206004820152600b60248201526a217374616b65724665657360a81b604482015290519081900360640190fd5b600a8310158015611841575060648311155b611880576040805162461bcd60e51b815260206004820152600b60248201526a2163616c6c65724665657360a81b604482015290519081900360640190fd5b60c88211156118c2576040805162461bcd60e51b815260206004820152600960248201526821706c6174666f726d60b81b604482015290519081900360640190fd5b600085905560018490556002839055600382905560408051868152602081018690528082018590526060810184905290517f16e6f67290546b8dd0e587f4b7f67d4f61932ae17ffd8c60d3509dbc05c175fe9181900360800190a15050505050565b6000806011858154811061193457fe5b60009182526020909120600360059092020101546001600160a01b031690503381148061196b5750600e546001600160a01b031633145b6119a4576040805162461bcd60e51b8152602060048201526005602482015264042c2eae8d60db1b604482015290519081900360640190fd5b7f00000000000000000000000000000000000000000000000000000000000000006001600160a01b03166340c10f1985856040518363ffffffff1660e01b815260040180836001600160a01b0316815260200182815260200192505050600060405180830381600087803b158015611a1b57600080fd5b505af1158015611a2f573d6000803e3d6000fd5b50600198975050505050505050565b6004546001600160a01b03163314611a85576040805162461bcd60e51b8152602060048201526005602482015264042c2eae8d60db1b604482015290519081900360640190fd5b60105460ff1615611ac8576040805162461bcd60e51b815260206004820152600860248201526739b43aba3237bbb760c11b604482015290519081900360640190fd5b600e546001600160a01b031615801590611aec57506007546001600160a01b031615155b611b2c576040805162461bcd60e51b815260206004820152600c60248201526b085a5b9a5d1a585b1a5cd95960a21b604482015290519081900360640190fd5b6001600160a01b03821615801590611b4c57506001600160a01b03811615155b611b8a576040805162461bcd60e51b815260206004820152600a6024820152692161646472657373657360b01b604482015290519081900360640190fd5b6000816001600160a01b031663acbc1428846040518263ffffffff1660e01b815260040180826001600160a01b0316815260200191505060206040518083038186803b158015611bd957600080fd5b505afa158015611bed573d6000803e3d6000fd5b505050506040513d6020811015611c0357600080fd5b505111611c41576040805162461bcd60e51b81526020600482015260076024820152662164697374726f60c81b604482015290519081900360640190fd5b6001600160a01b038281166000908152600f602052604090205416611fe6576001600160a01b03821660009081526012602052604090205460ff1615611cb7576040805162461bcd60e51b815260206004820152600660248201526510ba37b5b2b760d11b604482015290519081900360640190fd5b7f00000000000000000000000000000000000000000000000000000000000000006001600160a01b0316826001600160a01b03161415611dda5760408051606080820183526001600160a01b03808516808452600e80548316602080870191825260018789018181527f000000000000000000000000000000000000000000000000000000000000000087166000818152600f85528b902099518a549089166001600160a01b0319918216178b55945199909201805491511515600160a01b0260ff60a01b199a89169290951691909117989098169290921790965590548651928352909216938101939093528284015291517f125af409731fa78089d37e0f7f166b726398745c97b932f061cf486d6ee4fcc8929181900390910190a1611fe1565b600e546040805163355688fd60e21b81529051600a926001600160a01b03169163d55a23f4916004808301926020929190829003018186803b158015611e1f57600080fd5b505afa158015611e33573d6000803e3d6000fd5b505050506040513d6020811015611e4957600080fd5b505110611e90576040805162461bcd60e51b815260206004820152601060248201526f746f6f206d616e79207265776172647360801b604482015290519081900360640190fd5b600754600e5460408051637c6b091760e11b81526001600160a01b03868116600483015292831660248201523060448201529051600093929092169163f8d6122e9160648082019260209290919082900301818787803b158015611ef357600080fd5b505af1158015611f07573d6000803e3d6000fd5b505050506040513d6020811015611f1d57600080fd5b505160408051606080820183526001600160a01b03808716808452818616602085810182815260018789018181528d87166000818152600f86528b902099518a549089166001600160a01b0319918216178b55935199909201805491511515600160a01b0260ff60a01b199a909816919093161797909716949094179093558551918252918101919091528084019290925291519293507f125af409731fa78089d37e0f7f166b726398745c97b932f061cf486d6ee4fcc8929081900390910190a1505b612056565b6001600160a01b038083166000818152600f6020908152604080832080549587166001600160a01b03199096168617905580519485529084019190915282810191909152517f125af409731fa78089d37e0f7f166b726398745c97b932f061cf486d6ee4fcc89181900360600190a15b5050565b6109c481565b6004546001600160a01b031633146120a7576040805162461bcd60e51b8152602060048201526005602482015264042c2eae8d60db1b604482015290519081900360640190fd5b600b80546001600160a01b0383166001600160a01b0319909116811790915560408051918252517f49f087c09fe6698eda82449a671bd8d38e44bed601118018a7cc7f1e0c808df49181900360200190a150565b6006546001600160a01b03163314612142576040805162461bcd60e51b8152602060048201526005602482015264042c2eae8d60db1b604482015290519081900360640190fd5b600680546001600160a01b0383166001600160a01b0319909116811790915560408051918252517f70a64736553c84939f57deec269299882abbbee8dc4f316eccbc6fce57e4d3cf9181900360200190a150565b6004546001600160a01b031633146121dd576040805162461bcd60e51b8152602060048201526005602482015264042c2eae8d60db1b604482015290519081900360640190fd5b600880546001600160a01b0319166001600160a01b03848116919091179091556007541661227857600780546001600160a01b038086166001600160a01b031992831681179093556009805485831693168317905560408051938452908516602084015282810191909152517f013ea07699fbd5315b997a706906fb94a81c616771f1052b406707d7bfc6aa279181900360600190a16122c1565b6040805160008082526001600160a01b03851660208301528183015290517f013ea07699fbd5315b997a706906fb94a81c616771f1052b406707d7bfc6aa279181900360600190a15b505050565b6006546000906001600160a01b0316331480156122e6575060105460ff16155b612320576040805162461bcd60e51b815260206004808301919091526024820152630858591960e21b604482015290519081900360640190fd5b6001600160a01b0383161580159061234057506001600160a01b03841615155b61237a576040805162461bcd60e51b815260206004820152600660248201526521706172616d60d01b604482015290519081900360640190fd5b6001600160a01b038381166000908152600f602052604090205416156123d0576040805162461bcd60e51b815260206004820152600660248201526521676175676560d01b604482015290519081900360640190fd5b60115460095460408051630452a26760e21b81526001600160a01b0388811660048301529151600093929092169163114a899c9160248082019260209290919082900301818787803b15801561242557600080fd5b505af1158015612439573d6000803e3d6000fd5b505050506040513d602081101561244f57600080fd5b505160075460408051632f7260f160e01b8152600481018690526001600160a01b0380851660248301528a8116604483015291519394506000939190921691632f7260f191606480830192602092919082900301818787803b1580156124b457600080fd5b505af11580156124c8573d6000803e3d6000fd5b505050506040513d60208110156124de57600080fd5b505160085460408051634ce5896f60e11b8152600481018790526001600160a01b038a811660248301527f000000000000000000000000000000000000000000000000000000000000000081166044830152606482018a9052915193945060009391909216916399cb12de91608480830192602092919082900301818787803b15801561256a57600080fd5b505af115801561257e573d6000803e3d6000fd5b505050506040513d602081101561259457600080fd5b50516040805160c0810182526001600160a01b03808c16825286811660208381019182528c83168486018181528985166060870190815285891660808801818152600060a08a0181815260118054600181810183559184529b516005909c027f31ecc21a745e3968a04e9570e4425bc18fa8019c68028196b546d1669c200c68810180549d8d166001600160a01b03199e8f1617905599517f31ecc21a745e3968a04e9570e4425bc18fa8019c68028196b546d1669c200c698b018054918d16918e1691909117905595517f31ecc21a745e3968a04e9570e4425bc18fa8019c68028196b546d1669c200c6a8a018054918c16918d1691909117905593517f31ecc21a745e3968a04e9570e4425bc18fa8019c68028196b546d1669c200c6b89018054918b16918c1691909117905590517f31ecc21a745e3968a04e9570e4425bc18fa8019c68028196b546d1669c200c6c909701805493511515600160a01b0260ff60a01b199890991693909916929092179590951695909517909555835260129052929020805460ff191690911790559091501561286d57806011858154811061273c57fe5b600091825260208083206004600590930201820180546001600160a01b039586166001600160a01b031990911617905560408051637d1cb25960e11b81528686169381019390935260016024840152517f00000000000000000000000000000000000000000000000000000000000000009094169363fa3964b2936044808501948390030190829087803b1580156127d357600080fd5b505af11580156127e7573d6000803e3d6000fd5b505050506040513d60208110156127fd57600080fd5b50506007546040805163b84614a560e01b81526001600160a01b038481166004830152600160248301529151919092169163b84614a591604480830192600092919082900301818387803b15801561285457600080fd5b505af1158015612868573d6000803e3d6000fd5b505050505b604080516001600160a01b03808b168252808a1660208301528086168284015280851660608301528316608082015260a0810186905290517fca1a6de26e4422518df9ab614eefa07fac43e4f4c7d704dbf82e903e582659ca9181900360c00190a1506001979650505050505050565b6004546001600160a01b03163314612924576040805162461bcd60e51b8152602060048201526005602482015264042c2eae8d60db1b604482015290519081900360640190fd5b6001600160a01b038281166000908152600f602052604090205416612984576040805162461bcd60e51b815260206004820152601160248201527011995948191bd95cdb89dd08195e1a5cdd607a1b604482015290519081900360640190fd5b6001600160a01b0382166000818152600f6020908152604091829020600101805460ff60a01b1916600160a01b8615159081029190911790915582519384529083015280517ff1d91b931944e49fd30c1dc6fd08ad8bb25ef1fe12c369b10a4675c4bf3974409281900390910190a15050565b6004546001600160a01b031681565b60008060118381548110612a1657fe5b60009182526020909120600460059092020101546001600160a01b03169050338114612a71576040805162461bcd60e51b8152602060048201526005602482015264042c2eae8d60db1b604482015290519081900360640190fd5b600060118481548110612a8057fe5b6000918252602080832060026005909302019190910154604080516001600160a01b038781166024808401919091528351808403820181526044938401855295860180516001600160e01b0316635efcc08b60e11b1781529351635b0e93fb60e11b815294821660048601818152918601889052606093860193845286516064870152865190985095967f00000000000000000000000000000000000000000000000000000000000000009092169563b61d27f6958995939489949092608490920191808383895b83811015612b60578181015183820152602001612b48565b50505050905090810190601f168015612b8d5780820380516001836020036101000a031916815260200191505b50945050505050600060405180830381600087803b158015612bae57600080fd5b505af1158015612bc2573d6000803e3d6000fd5b505050506040513d6000823e601f3d908101601f191682016040908152811015612beb57600080fd5b815160208301805160405192949293830192919084640100000000821115612c1257600080fd5b908301906020820185811115612c2757600080fd5b8251640100000000811182820188101715612c4157600080fd5b82525081516020918201929091019080838360005b83811015612c6e578181015183820152602001612c56565b50505050905090810190601f168015612c9b5780820380516001836020036101000a031916815260200191505b506040525060019998505050505050505050565b6004546001600160a01b03163314612cf6576040805162461bcd60e51b8152602060048201526005602482015264042c2eae8d60db1b604482015290519081900360640190fd5b600e546001600160a01b031661205657600e80546001600160a01b038085166001600160a01b03199283168117909355600d805491851691909216811790915560408051928352602083019190915280517f601d75fd094819eb2644514a732ecc4ff7953787e92258e47c118aa83b0311159281900390910190a15050565b60008060118381548110612d8557fe5b6000918252602080832060016005909302019190910154604080516370a0823160e01b815233600482015290516001600160a01b03909216945084926370a0823192602480840193829003018186803b158015612de157600080fd5b505afa158015612df5573d6000803e3d6000fd5b505050506040513d6020811015612e0b57600080fd5b50519050612e198482611292565b506001949350505050565b600b546001600160a01b031681565b60105460009060ff1615612e79576040805162461bcd60e51b815260206004820152600860248201526739b43aba3237bbb760c11b604482015290519081900360640190fd5b612e8161445e565b506001600160a01b038281166000908152600f6020908152604091829020825160608101845281548516815260019091015493841691810191909152600160a01b90920460ff161515908201819052612f13576040805162461bcd60e51b815260206004820152600f60248201526e496e6163746976652064697374726f60881b604482015290519081900360640190fd5b6001600160a01b03831660009081526012602052604090205460ff1615612f71576040805162461bcd60e51b815260206004820152600d60248201526c24b73b30b634b2103a37b5b2b760991b604482015290519081900360640190fd5b6000836001600160a01b03166370a08231306040518263ffffffff1660e01b815260040180826001600160a01b0316815260200191505060206040518083038186803b158015612fc057600080fd5b505afa158015612fd4573d6000803e3d6000fd5b505050506040513d6020811015612fea57600080fd5b5051825160408051632dbfa73560e01b81526001600160a01b039283166004820152878316602482015290519293507f000000000000000000000000000000000000000000000000000000000000000090911691632dbfa735916044808201926020929091908290030181600087803b15801561306657600080fd5b505af115801561307a573d6000803e3d6000fd5b505050506040513d602081101561309057600080fd5b5050604080516370a0823160e01b815230600482015290516000916001600160a01b038716916370a0823191602480820192602092909190829003018186803b1580156130dc57600080fd5b505afa1580156130f0573d6000803e3d6000fd5b505050506040513d602081101561310657600080fd5b5051905060006131168284613aaf565b6020850151909150613133906001600160a01b0388169083613b0c565b83602001516001600160a01b031663590a41f5826040518263ffffffff1660e01b815260040180828152602001915050600060405180830381600087803b15801561317d57600080fd5b505af1158015613191573d6000803e3d6000fd5b5060019998505050505050505050565b7f000000000000000000000000000000000000000000000000000000000000000081565b6004546001600160a01b0316331461320c576040805162461bcd60e51b8152602060048201526005602482015264042c2eae8d60db1b604482015290519081900360640190fd5b600a80546001600160a01b0383166001600160a01b0319909116811790915560408051918252517f961c543f04f95b46a6d6af9e463eb4f186ceea8ca52f869ec568c0197080401b9181900360200190a150565b7f000000000000000000000000000000000000000000000000000000000000000081565b60105460ff1681565b600b546000906001600160a01b031633146132d7576040805162461bcd60e51b8152602060048201526005602482015264042c2eae8d60db1b604482015290519081900360640190fd5b60005b8481101561140f577f00000000000000000000000000000000000000000000000000000000000000006001600160a01b0316635d7e9bcb87878481811061331d57fe5b905060200201356001600160a01b031686868581811061333957fe5b905060200201356040518363ffffffff1660e01b815260040180836001600160a01b0316815260200182815260200192505050602060405180830381600087803b15801561338657600080fd5b505af115801561339a573d6000803e3d6000fd5b505050506040513d60208110156133b057600080fd5b50506001016132da565b60126020526000908152604090205460ff1681565b60105460009060ff1615613415576040805162461bcd60e51b815260206004820152600860248201526739b43aba3237bbb760c11b604482015290519081900360640190fd5b61341e82613b5e565b506001919050565b600d546001600160a01b031681565b6005546001600160a01b031681565b61271081565b6006546001600160a01b031681565b600b546000906001600160a01b031633146134a3576040805162461bcd60e51b8152602060048201526005602482015264042c2eae8d60db1b604482015290519081900360640190fd5b7f00000000000000000000000000000000000000000000000000000000000000006001600160a01b0316836001600160a01b0316148061351457507f00000000000000000000000000000000000000000000000000000000000000006001600160a01b0316836001600160a01b0316145b613551576040805162461bcd60e51b815260206004820152600960248201526810bb37ba32a0b2323960b91b604482015290519081900360640190fd5b7f00000000000000000000000000000000000000000000000000000000000000006001600160a01b031663e2cdd42a8585856040518463ffffffff1660e01b815260040180848152602001836001600160a01b0316815260200182151581526020019350505050602060405180830381600087803b1580156116be57600080fd5b6009546001600160a01b031681565b6005546001600160a01b03163314613628576040805162461bcd60e51b8152602060048201526005602482015264042c2eae8d60db1b604482015290519081900360640190fd5b600c80546001600160a01b0383166001600160a01b0319909116811790915560408051918252517f7dae230f18360d76a040c81f050aa14eb9d6dc7901b20fc5d855e2a20fe814d19181900360200190a150565b60006011858154811061368b57fe5b60009182526020822060059091020180546002820154600183015460408051632770a7eb60e21b81526001600160a01b038a81166004830152602482018c9052915195975093811695928116949116928392639dc29fac9260448084019382900301818387803b1580156136fe57600080fd5b505af1158015613712573d6000803e3d6000fd5b505050506004840154600160a01b900460ff166137de577f00000000000000000000000000000000000000000000000000000000000000006001600160a01b031663d9caed1284848a6040518463ffffffff1660e01b815260040180846001600160a01b03168152602001836001600160a01b031681526020018281526020019350505050602060405180830381600087803b1580156137b157600080fd5b505af11580156137c5573d6000803e3d6000fd5b505050506040513d60208110156137db57600080fd5b50505b60048401546001600160a01b031680158015906137fe575060105460ff16155b801561381657506004850154600160a01b900460ff16155b1561388357806001600160a01b031663b87bd4816040518163ffffffff1660e01b8152600401602060405180830381600087803b15801561385657600080fd5b505af115801561386a573d6000803e3d6000fd5b505050506040513d602081101561388057600080fd5b50505b6138976001600160a01b038516878a613b0c565b6040805189815290518a916001600160a01b038916917f92ccf450a286a957af52509bc1c9939d1a6a481783e142e41e2499f0bb66ebc69181900360200190a3505050505050505050565b604080516001600160a01b0380861660248301528416604482015260648082018490528251808303909101815260849091019091526020810180516001600160e01b03166323b872dd60e01b17905261393c9085906140d0565b50505050565b8015806139c8575060408051636eb1769f60e11b81523060048201526001600160a01b03848116602483015291519185169163dd62ed3e91604480820192602092909190829003018186803b15801561399a57600080fd5b505afa1580156139ae573d6000803e3d6000fd5b505050506040513d60208110156139c457600080fd5b5051155b613a035760405162461bcd60e51b81526004018080602001828103825260368152602001806144f06036913960400191505060405180910390fd5b604080516001600160a01b038416602482015260448082018490528251808303909101815260649091019091526020810180516001600160e01b031663095ea7b360e01b1790526122c19084906140d0565b600082820183811015610b4f576040805162461bcd60e51b815260206004820152601b60248201527f536166654d6174683a206164646974696f6e206f766572666c6f770000000000604482015290519081900360640190fd5b600082821115613b06576040805162461bcd60e51b815260206004820152601e60248201527f536166654d6174683a207375627472616374696f6e206f766572666c6f770000604482015290519081900360640190fd5b50900390565b604080516001600160a01b038416602482015260448082018490528251808303909101815260649091019091526020810180516001600160e01b031663a9059cbb60e01b1790526122c19084906140d0565b600060118281548110613b6d57fe5b600091825260209091206005909102016004810154909150600160a01b900460ff1615613bd2576040805162461bcd60e51b815260206004820152600e60248201526d1c1bdbdb081a5cc818db1bdcd95960921b604482015290519081900360640190fd5b600281015460408051631ff4de0360e11b81526001600160a01b0392831660048201819052915191927f00000000000000000000000000000000000000000000000000000000000000001691633fe9bc06916024808201926020929091908290030181600087803b158015613c4657600080fd5b505af1158015613c5a573d6000803e3d6000fd5b505050506040513d6020811015613c7057600080fd5b505060048201546001600160a01b03168015613d5c57806001600160a01b031663372500ab6040518163ffffffff1660e01b8152600401602060405180830381600087803b158015613cc157600080fd5b505af1158015613cd5573d6000803e3d6000fd5b505050506040513d6020811015613ceb57600080fd5b50506040805163654580bb60e11b815290516001600160a01b0383169163ca8b01769160048083019260209291908290030181600087803b158015613d2f57600080fd5b505af1158015613d43573d6000803e3d6000fd5b505050506040513d6020811015613d5957600080fd5b50505b60007f00000000000000000000000000000000000000000000000000000000000000006001600160a01b03166370a08231306040518263ffffffff1660e01b815260040180826001600160a01b0316815260200191505060206040518083038186803b158015613dcb57600080fd5b505afa158015613ddf573d6000803e3d6000fd5b505050506040513d6020811015613df557600080fd5b5051905080156140c9576000613e22612710613e1c6000548561418190919063ffffffff16565b906141da565b90506000613e41612710613e1c6001548661418190919063ffffffff16565b90506000613e60612710613e1c6002548761418190919063ffffffff16565b600c549091506001600160a01b031615801590613e885750600c546001600160a01b03163014155b8015613e9657506000600354115b15613f03576000613eb8612710613e1c6003548861418190919063ffffffff16565b9050613ec48582613aaf565b600c54909550613f01906001600160a01b037f00000000000000000000000000000000000000000000000000000000000000008116911683613b0c565b505b613f1982613f1383818888613aaf565b90613aaf565b9350613f4f6001600160a01b037f0000000000000000000000000000000000000000000000000000000000000000163383613b0c565b60038701546001600160a01b0390811690613f8d907f0000000000000000000000000000000000000000000000000000000000000000168287613b0c565b806001600160a01b031663590a41f5866040518263ffffffff1660e01b815260040180828152602001915050600060405180830381600087803b158015613fd357600080fd5b505af1158015613fe7573d6000803e3d6000fd5b5050600e5461402592506001600160a01b037f0000000000000000000000000000000000000000000000000000000000000000811692501686613b0c565b600e546040805163590a41f560e01b81526004810187905290516001600160a01b039092169163590a41f59160248082019260009290919082900301818387803b15801561407257600080fd5b505af1158015614086573d6000803e3d6000fd5b5050600d546140c492506001600160a01b037f0000000000000000000000000000000000000000000000000000000000000000811692501685613b0c565b505050505b5050505050565b6060614125826040518060400160405280602081526020017f5361666545524332303a206c6f772d6c6576656c2063616c6c206661696c6564815250856001600160a01b03166142419092919063ffffffff16565b8051909150156122c15780806020019051602081101561414457600080fd5b50516122c15760405162461bcd60e51b815260040180806020018281038252602a8152602001806144c6602a913960400191505060405180910390fd5b60008261419057506000610cbd565b8282028284828161419d57fe5b0414610b4f5760405162461bcd60e51b81526004018080602001828103825260218152602001806144a56021913960400191505060405180910390fd5b6000808211614230576040805162461bcd60e51b815260206004820152601a60248201527f536166654d6174683a206469766973696f6e206279207a65726f000000000000604482015290519081900360640190fd5b81838161423957fe5b049392505050565b60606142508484600085614258565b949350505050565b6060824710156142995760405162461bcd60e51b815260040180806020018281038252602681526020018061447f6026913960400191505060405180910390fd5b6142a2856143b4565b6142f3576040805162461bcd60e51b815260206004820152601d60248201527f416464726573733a2063616c6c20746f206e6f6e2d636f6e7472616374000000604482015290519081900360640190fd5b60006060866001600160a01b031685876040518082805190602001908083835b602083106143325780518252601f199092019160209182019101614313565b6001836020036101000a03801982511681845116808217855250505050505090500191505060006040518083038185875af1925050503d8060008114614394576040519150601f19603f3d011682016040523d82523d6000602084013e614399565b606091505b50915091506143a98282866143ba565b979650505050505050565b3b151590565b606083156143c9575081610b4f565b8251156143d95782518084602001fd5b8160405162461bcd60e51b81526004018080602001828103825283818151815260200191508051906020019080838360005b8381101561442357818101518382015260200161440b565b50505050905090810190601f1680156144505780820380516001836020036101000a031916815260200191505b509250505060405180910390fd5b60408051606081018252600080825260208201819052918101919091529056fe416464726573733a20696e73756666696369656e742062616c616e636520666f722063616c6c536166654d6174683a206d756c7469706c69636174696f6e206f766572666c6f775361666545524332303a204552433230206f7065726174696f6e20646964206e6f7420737563636565645361666545524332303a20617070726f76652066726f6d206e6f6e2d7a65726f20746f206e6f6e2d7a65726f20616c6c6f77616e6365a2646970667358221220420a956f959da09e179eaa9d27e2345af08c75b70a816be751a8789f01a790c964736f6c634300060c0033",
  "linkReferences": {},
  "deployedLinkReferences": {}
}