{
  "_format": "hh-sol-artifact-1",
  "contractName": "ConvexMasterChef",
  "sourceName": "convex-platform/contracts/contracts/ConvexMasterChef.sol",
  "abi": [
    {
      "inputs": [
        {
          "internalType": "contract IERC20",
          "name": "_cvx",
          "type": "address"
        },
        {
          "internalType": "uint256",
          "name": "_rewardPerBlock",
          "type": "uint256"
        },
        {
          "internalType": "uint256",
          "name": "_startBlock",
          "type": "uint256"
        },
        {
          "internalType": "uint256",
          "name": "_endBlock",
          "type": "uint256"
        }
      ],
      "stateMutability": "nonpayable",
      "type": "constructor"
    },
    {
      "anonymous": false,
      "inputs": [
        {
          "indexed": true,
          "internalType": "address",
          "name": "user",
          "type": "address"
        },
        {
          "indexed": true,
          "internalType": "uint256",
          "name": "pid",
          "type": "uint256"
        },
        {
          "indexed": false,
          "internalType": "uint256",
          "name": "amount",
          "type": "uint256"
        }
      ],
      "name": "Deposit",
      "type": "event"
    },
    {
      "anonymous": false,
      "inputs": [
        {
          "indexed": true,
          "internalType": "address",
          "name": "user",
          "type": "address"
        },
        {
          "indexed": true,
          "internalType": "uint256",
          "name": "pid",
          "type": "uint256"
        },
        {
          "indexed": false,
          "internalType": "uint256",
          "name": "amount",
          "type": "uint256"
        }
      ],
      "name": "EmergencyWithdraw",
      "type": "event"
    },
    {
      "anonymous": false,
      "inputs": [
        {
          "indexed": true,
          "internalType": "address",
          "name": "previousOwner",
          "type": "address"
        },
        {
          "indexed": true,
          "internalType": "address",
          "name": "newOwner",
          "type": "address"
        }
      ],
      "name": "OwnershipTransferred",
      "type": "event"
    },
    {
      "anonymous": false,
      "inputs": [
        {
          "indexed": true,
          "internalType": "address",
          "name": "user",
          "type": "address"
        },
        {
          "indexed": true,
          "internalType": "uint256",
          "name": "pid",
          "type": "uint256"
        },
        {
          "indexed": false,
          "internalType": "uint256",
          "name": "amount",
          "type": "uint256"
        }
      ],
      "name": "RewardPaid",
      "type": "event"
    },
    {
      "anonymous": false,
      "inputs": [
        {
          "indexed": true,
          "internalType": "address",
          "name": "user",
          "type": "address"
        },
        {
          "indexed": true,
          "internalType": "uint256",
          "name": "pid",
          "type": "uint256"
        },
        {
          "indexed": false,
          "internalType": "uint256",
          "name": "amount",
          "type": "uint256"
        }
      ],
      "name": "Withdraw",
      "type": "event"
    },
    {
      "inputs": [],
      "name": "BONUS_MULTIPLIER",
      "outputs": [
        {
          "internalType": "uint256",
          "name": "",
          "type": "uint256"
        }
      ],
      "stateMutability": "view",
      "type": "function"
    },
    {
      "inputs": [
        {
          "internalType": "uint256",
          "name": "_allocPoint",
          "type": "uint256"
        },
        {
          "internalType": "contract IERC20",
          "name": "_lpToken",
          "type": "address"
        },
        {
          "internalType": "contract IRewarder",
          "name": "_rewarder",
          "type": "address"
        }
      ],
      "name": "add",
      "outputs": [],
      "stateMutability": "nonpayable",
      "type": "function"
    },
    {
      "inputs": [
        {
          "internalType": "uint256",
          "name": "_pid",
          "type": "uint256"
        },
        {
          "internalType": "address",
          "name": "_account",
          "type": "address"
        }
      ],
      "name": "claim",
      "outputs": [],
      "stateMutability": "nonpayable",
      "type": "function"
    },
    {
      "inputs": [],
      "name": "cvx",
      "outputs": [
        {
          "internalType": "contract IERC20",
          "name": "",
          "type": "address"
        }
      ],
      "stateMutability": "view",
      "type": "function"
    },
    {
      "inputs": [
        {
          "internalType": "uint256",
          "name": "_pid",
          "type": "uint256"
        },
        {
          "internalType": "uint256",
          "name": "_amount",
          "type": "uint256"
        }
      ],
      "name": "deposit",
      "outputs": [],
      "stateMutability": "nonpayable",
      "type": "function"
    },
    {
      "inputs": [
        {
          "internalType": "uint256",
          "name": "_pid",
          "type": "uint256"
        }
      ],
      "name": "emergencyWithdraw",
      "outputs": [],
      "stateMutability": "nonpayable",
      "type": "function"
    },
    {
      "inputs": [],
      "name": "endBlock",
      "outputs": [
        {
          "internalType": "uint256",
          "name": "",
          "type": "uint256"
        }
      ],
      "stateMutability": "view",
      "type": "function"
    },
    {
      "inputs": [
        {
          "internalType": "uint256",
          "name": "_from",
          "type": "uint256"
        },
        {
          "internalType": "uint256",
          "name": "_to",
          "type": "uint256"
        }
      ],
      "name": "getMultiplier",
      "outputs": [
        {
          "internalType": "uint256",
          "name": "",
          "type": "uint256"
        }
      ],
      "stateMutability": "view",
      "type": "function"
    },
    {
      "inputs": [
        {
          "internalType": "address",
          "name": "",
          "type": "address"
        }
      ],
      "name": "isAddedPool",
      "outputs": [
        {
          "internalType": "bool",
          "name": "",
          "type": "bool"
        }
      ],
      "stateMutability": "view",
      "type": "function"
    },
    {
      "inputs": [],
      "name": "massUpdatePools",
      "outputs": [],
      "stateMutability": "nonpayable",
      "type": "function"
    },
    {
      "inputs": [],
      "name": "owner",
      "outputs": [
        {
          "internalType": "address",
          "name": "",
          "type": "address"
        }
      ],
      "stateMutability": "view",
      "type": "function"
    },
    {
      "inputs": [
        {
          "internalType": "uint256",
          "name": "_pid",
          "type": "uint256"
        },
        {
          "internalType": "address",
          "name": "_user",
          "type": "address"
        }
      ],
      "name": "pendingCvx",
      "outputs": [
        {
          "internalType": "uint256",
          "name": "",
          "type": "uint256"
        }
      ],
      "stateMutability": "view",
      "type": "function"
    },
    {
      "inputs": [
        {
          "internalType": "uint256",
          "name": "",
          "type": "uint256"
        }
      ],
      "name": "poolInfo",
      "outputs": [
        {
          "internalType": "contract IERC20",
          "name": "lpToken",
          "type": "address"
        },
        {
          "internalType": "uint256",
          "name": "allocPoint",
          "type": "uint256"
        },
        {
          "internalType": "uint256",
          "name": "lastRewardBlock",
          "type": "uint256"
        },
        {
          "internalType": "uint256",
          "name": "accCvxPerShare",
          "type": "uint256"
        },
        {
          "internalType": "contract IRewarder",
          "name": "rewarder",
          "type": "address"
        }
      ],
      "stateMutability": "view",
      "type": "function"
    },
    {
      "inputs": [],
      "name": "poolLength",
      "outputs": [
        {
          "internalType": "uint256",
          "name": "",
          "type": "uint256"
        }
      ],
      "stateMutability": "view",
      "type": "function"
    },
    {
      "inputs": [],
      "name": "renounceOwnership",
      "outputs": [],
      "stateMutability": "nonpayable",
      "type": "function"
    },
    {
      "inputs": [],
      "name": "rewardPerBlock",
      "outputs": [
        {
          "internalType": "uint256",
          "name": "",
          "type": "uint256"
        }
      ],
      "stateMutability": "view",
      "type": "function"
    },
    {
      "inputs": [
        {
          "internalType": "uint256",
          "name": "_pid",
          "type": "uint256"
        },
        {
          "internalType": "uint256",
          "name": "_allocPoint",
          "type": "uint256"
        },
        {
          "internalType": "contract IRewarder",
          "name": "_rewarder",
          "type": "address"
        },
        {
          "internalType": "bool",
          "name": "_updateRewarder",
          "type": "bool"
        }
      ],
      "name": "set",
      "outputs": [],
      "stateMutability": "nonpayable",
      "type": "function"
    },
    {
      "inputs": [],
      "name": "startBlock",
      "outputs": [
        {
          "internalType": "uint256",
          "name": "",
          "type": "uint256"
        }
      ],
      "stateMutability": "view",
      "type": "function"
    },
    {
      "inputs": [],
      "name": "totalAllocPoint",
      "outputs": [
        {
          "internalType": "uint256",
          "name": "",
          "type": "uint256"
        }
      ],
      "stateMutability": "view",
      "type": "function"
    },
    {
      "inputs": [
        {
          "internalType": "address",
          "name": "newOwner",
          "type": "address"
        }
      ],
      "name": "transferOwnership",
      "outputs": [],
      "stateMutability": "nonpayable",
      "type": "function"
    },
    {
      "inputs": [
        {
          "internalType": "uint256",
          "name": "_pid",
          "type": "uint256"
        }
      ],
      "name": "updatePool",
      "outputs": [],
      "stateMutability": "nonpayable",
      "type": "function"
    },
    {
      "inputs": [
        {
          "internalType": "uint256",
          "name": "",
          "type": "uint256"
        },
        {
          "internalType": "address",
          "name": "",
          "type": "address"
        }
      ],
      "name": "userInfo",
      "outputs": [
        {
          "internalType": "uint256",
          "name": "amount",
          "type": "uint256"
        },
        {
          "internalType": "uint256",
          "name": "rewardDebt",
          "type": "uint256"
        }
      ],
      "stateMutability": "view",
      "type": "function"
    },
    {
      "inputs": [
        {
          "internalType": "uint256",
          "name": "_pid",
          "type": "uint256"
        },
        {
          "internalType": "uint256",
          "name": "_amount",
          "type": "uint256"
        }
      ],
      "name": "withdraw",
      "outputs": [],
      "stateMutability": "nonpayable",
      "type": "function"
    }
  ],
  "bytecode": "0x610100604052600060055534801561001657600080fd5b50604051611fc3380380611fc38339818101604052608081101561003957600080fd5b5080516020820151604083015160609093015191929091600061005a6100f1565b600080546001600160a01b0319166001600160a01b0383169081178255604051929350917f8be0079c531659141344cd1fd0a4f28419497f9722a3daafe3b4186f6b6457e0908290a35060018080556001600160601b0319606086901b166080526001600160a01b039094166000908152600360205260409020805460ff191690941790935560a09190915260c05260e0526100f5565b3390565b60805160601c60a05160c05160e051611e5f610164600039806104495280610e4d5280610e7a5280610ea05280610ecd52508061072d52806110d752806110fe5250806108305280610be25280610e17525080610f045280611861528061190f52806119485250611e5f6000f3fe608060405234801561001057600080fd5b506004361061014d5760003560e01c806388bba42f116100c357806393f1a40b1161007c57806393f1a40b14610319578063ab7de0981461035e578063d972824714610392578063ddd5e1b2146103cc578063e2bbb158146103f8578063f2fde38b1461041b5761014d565b806388bba42f146102805780638aa28550146102ba5780638ae39cac146102c25780638da5cb5b146102ca5780638dbb1e3a146102ee578063923c1d61146103115761014d565b806348cd4cb11161011557806348cd4cb11461020257806351eb05a61461020a5780635312ea8e14610227578063630b5ba114610244578063715018a61461024c5780637ca7d8bf146102545761014d565b8063081e3eda14610152578063083c63231461016c5780631526fe271461017457806317caf6f1146101d5578063441a3e70146101dd575b600080fd5b61015a610441565b60408051918252519081900360200190f35b61015a610447565b6101916004803603602081101561018a57600080fd5b503561046b565b60405180866001600160a01b03168152602001858152602001848152602001838152602001826001600160a01b031681526020019550505050505060405180910390f35b61015a6104b6565b610200600480360360408110156101f357600080fd5b50803590602001356104bc565b005b61015a61072b565b6102006004803603602081101561022057600080fd5b503561074f565b6102006004803603602081101561023d57600080fd5b503561089d565b610200610a19565b610200610a3c565b61015a6004803603604081101561026a57600080fd5b50803590602001356001600160a01b0316610ae8565b6102006004803603608081101561029657600080fd5b508035906020810135906001600160a01b0360408201351690606001351515610c69565b61015a610e10565b61015a610e15565b6102d2610e39565b604080516001600160a01b039092168252519081900360200190f35b61015a6004803603604081101561030457600080fd5b5080359060200135610e48565b6102d2610f02565b6103456004803603604081101561032f57600080fd5b50803590602001356001600160a01b0316610f26565b6040805192835260208301919091528051918290030190f35b6102006004803603606081101561037457600080fd5b508035906001600160a01b0360208201358116916040013516610f4a565b6103b8600480360360208110156103a857600080fd5b50356001600160a01b0316611265565b604080519115158252519081900360200190f35b610200600480360360408110156103e257600080fd5b50803590602001356001600160a01b031661127a565b6102006004803603604081101561040e57600080fd5b508035906020013561144e565b6102006004803603602081101561043157600080fd5b50356001600160a01b0316611637565b60025490565b7f000000000000000000000000000000000000000000000000000000000000000081565b6002818154811061047857fe5b6000918252602090912060059091020180546001820154600283015460038401546004909401546001600160a01b0393841695509193909290911685565b60055481565b60026001541415610502576040805162461bcd60e51b815260206004820152601f6024820152600080516020611d53833981519152604482015290519081900360640190fd5b600260018190555060006002838154811061051957fe5b60009182526020808320868452600482526040808520338652909252922080546005909202909201925083111561058c576040805162461bcd60e51b81526020600482015260126024820152711dda5d1a191c985dce881b9bdd0819dbdbd960721b604482015290519081900360640190fd5b6105958461074f565b60006105cf82600101546105c964e8d4a510006105c38760030154876000015461173990919063ffffffff16565b90611799565b90611800565b90506105db338261185d565b81546105e79085611800565b80835560038401546106049164e8d4a51000916105c39190611739565b6001830155825461061f906001600160a01b03163386611974565b60048301546001600160a01b031680156106b1578254604080516344af0fa760e01b81526004810189905233602482018190526044820152606481018590526084810192909252516001600160a01b038316916344af0fa79160a480830192600092919082900301818387803b15801561069857600080fd5b505af11580156106ac573d6000803e3d6000fd5b505050505b604080518381529051879133917fd6f2c8500df5b44f11e9e48b91ff9f1b9d81bc496d55570c2b1b75bf65243f519181900360200190a3604080518681529051879133917ff279e6a1f5e320cca91135676d9cb6e44ca8a08c0b88342bcdb1144f6511b5689181900360200190a350506001805550505050565b7f000000000000000000000000000000000000000000000000000000000000000081565b60006002828154811061075e57fe5b906000526020600020906005020190508060020154431161077f575061089a565b8054604080516370a0823160e01b815230600482015290516000926001600160a01b0316916370a08231916024808301926020929190829003018186803b1580156107c957600080fd5b505afa1580156107dd573d6000803e3d6000fd5b505050506040513d60208110156107f357600080fd5b505190508061080957504360029091015561089a565b6000610819836002015443610e48565b905060006108646005546105c3866001015461085e7f00000000000000000000000000000000000000000000000000000000000000008761173990919063ffffffff16565b90611739565b905061088761087c846105c38464e8d4a51000611739565b6003860154906119c6565b6003850155505043600290920191909155505b50565b600260015414156108e3576040805162461bcd60e51b815260206004820152601f6024820152600080516020611d53833981519152604482015290519081900360640190fd5b60026001819055506000600282815481106108fa57fe5b6000918252602080832085845260048252604080852033808752935290932080546005909302909301805490945061093f926001600160a01b03919091169190611974565b80546040805191825251849133917fbb757047c2b5f3974fe26b7c10f732e7bce710b0952a71082702781e62ae05959181900360200190a36000808255600182015560048201546001600160a01b03168015610a0f57604080516344af0fa760e01b815260048101869052336024820181905260448201526000606482018190526084820181905291516001600160a01b038416926344af0fa79260a4808201939182900301818387803b1580156109f657600080fd5b505af1158015610a0a573d6000803e3d6000fd5b505050505b5050600180555050565b60025460005b81811015610a3857610a308161074f565b600101610a1f565b5050565b610a44611a20565b6001600160a01b0316610a55610e39565b6001600160a01b031614610a9e576040805162461bcd60e51b81526020600482018190526024820152600080516020611de0833981519152604482015290519081900360640190fd5b600080546040516001600160a01b03909116907f8be0079c531659141344cd1fd0a4f28419497f9722a3daafe3b4186f6b6457e0908390a3600080546001600160a01b0319169055565b60008060028481548110610af857fe5b60009182526020808320878452600480835260408086206001600160a01b038a811688529085528187206005969096029093016003810154815483516370a0823160e01b81523095810195909552925191985095969491909316926370a08231926024808201939291829003018186803b158015610b7557600080fd5b505afa158015610b89573d6000803e3d6000fd5b505050506040513d6020811015610b9f57600080fd5b5051600285015490915043118015610bb657508015155b15610c34576000610bcb856002015443610e48565b90506000610c106005546105c3886001015461085e7f00000000000000000000000000000000000000000000000000000000000000008761173990919063ffffffff16565b9050610c2f610c28846105c38464e8d4a51000611739565b85906119c6565b935050505b610c5c83600101546105c964e8d4a510006105c386886000015461173990919063ffffffff16565b9450505050505b92915050565b610c71611a20565b6001600160a01b0316610c82610e39565b6001600160a01b031614610ccb576040805162461bcd60e51b81526020600482018190526024820152600080516020611de0833981519152604482015290519081900360640190fd5b60026001541415610d11576040805162461bcd60e51b815260206004820152601f6024820152600080516020611d53833981519152604482015290519081900360640190fd5b6002600155610d1e610a19565b610d5b83610d5560028781548110610d3257fe5b90600052602060002090600502016001015460055461180090919063ffffffff16565b906119c6565b6005819055610d9a576040805162461bcd60e51b815260206004820152600660248201526521616c6c6f6360d01b604482015290519081900360640190fd5b8260028581548110610da857fe5b9060005260206000209060050201600101819055508015610a0f578160028581548110610dd157fe5b906000526020600020906005020160040160006101000a8154816001600160a01b0302191690836001600160a01b031602179055505050600180555050565b600281565b7f000000000000000000000000000000000000000000000000000000000000000081565b6000546001600160a01b031690565b6000807f00000000000000000000000000000000000000000000000000000000000000008311610e785782610e9a565b7f00000000000000000000000000000000000000000000000000000000000000005b905060007f00000000000000000000000000000000000000000000000000000000000000008511610ecb5784610eed565b7f00000000000000000000000000000000000000000000000000000000000000005b9050610ef98282611800565b95945050505050565b7f000000000000000000000000000000000000000000000000000000000000000081565b60046020908152600092835260408084209091529082529020805460019091015482565b610f52611a20565b6001600160a01b0316610f63610e39565b6001600160a01b031614610fac576040805162461bcd60e51b81526020600482018190526024820152600080516020611de0833981519152604482015290519081900360640190fd5b60026001541415610ff2576040805162461bcd60e51b815260206004820152601f6024820152600080516020611d53833981519152604482015290519081900360640190fd5b600260018190555460201161103a576040805162461bcd60e51b81526020600482015260096024820152686d617820706f6f6c7360b81b604482015290519081900360640190fd5b6001600160a01b03821660009081526003602052604090205460ff16156110a8576040805162461bcd60e51b815260206004820152601860248201527f6164643a204475706c696361746564204c5020546f6b656e0000000000000000604482015290519081900360640190fd5b6001600160a01b0382166000908152600360205260409020805460ff191660011790556110d3610a19565b60007f00000000000000000000000000000000000000000000000000000000000000004311611122577f0000000000000000000000000000000000000000000000000000000000000000611124565b435b60055490915061113490856119c6565b60059081556040805160a0810182526001600160a01b03958616815260208101968752908101928352600060608201818152948616608083019081526002805460018181018355919093529251919093027f405787fa12a823e0f2b7631cc41b3ba8828b3321ca811111fa75cd3aa3bb5ace810180549288166001600160a01b031993841617905596517f405787fa12a823e0f2b7631cc41b3ba8828b3321ca811111fa75cd3aa3bb5acf88015592517f405787fa12a823e0f2b7631cc41b3ba8828b3321ca811111fa75cd3aa3bb5ad087015592517f405787fa12a823e0f2b7631cc41b3ba8828b3321ca811111fa75cd3aa3bb5ad1860155517f405787fa12a823e0f2b7631cc41b3ba8828b3321ca811111fa75cd3aa3bb5ad290940180549490931693169290921790558055565b60036020526000908152604090205460ff1681565b600260015414156112c0576040805162461bcd60e51b815260206004820152601f6024820152600080516020611d53833981519152604482015290519081900360640190fd5b60026001819055506000600283815481106112d757fe5b600091825260208083208684526004825260408085206001600160a01b03881686529092529220600590910290910191506113118461074f565b600061133f82600101546105c964e8d4a510006105c38760030154876000015461173990919063ffffffff16565b905061134b848261185d565b600383015482546113669164e8d4a51000916105c391611739565b600183015560048301546001600160a01b03168015611402578254604080516344af0fa760e01b8152600481018990526001600160a01b038881166024830181905260448301526064820186905260848201939093529051918316916344af0fa79160a48082019260009290919082900301818387803b1580156113e957600080fd5b505af11580156113fd573d6000803e3d6000fd5b505050505b60408051838152905187916001600160a01b038816917fd6f2c8500df5b44f11e9e48b91ff9f1b9d81bc496d55570c2b1b75bf65243f519181900360200190a350506001805550505050565b60026001541415611494576040805162461bcd60e51b815260206004820152601f6024820152600080516020611d53833981519152604482015290519081900360640190fd5b60026001819055506000600283815481106114ab57fe5b600091825260208083208684526004825260408085203386529092529220600590910290910191506114dc8461074f565b80541561151f57600061151182600101546105c964e8d4a510006105c38760030154876000015461173990919063ffffffff16565b905061151d338261185d565b505b8154611536906001600160a01b0316333086611a24565b805461154290846119c6565b808255600383015461155f9164e8d4a51000916105c39190611739565b600182015560048201546001600160a01b031680156115f5578154604080516344af0fa760e01b81526004810188905233602482018190526044820152600060648201819052608482019390935290516001600160a01b038416926344af0fa79260a4808201939182900301818387803b1580156115dc57600080fd5b505af11580156115f0573d6000803e3d6000fd5b505050505b604080518581529051869133917f90890809c654f11d6e72a28fa60149770a0d11ec6c92319d6ceb2bb0a4ea1a159181900360200190a3505060018055505050565b61163f611a20565b6001600160a01b0316611650610e39565b6001600160a01b031614611699576040805162461bcd60e51b81526020600482018190526024820152600080516020611de0833981519152604482015290519081900360640190fd5b6001600160a01b0381166116de5760405162461bcd60e51b8152600401808060200182810382526026815260200180611d736026913960400191505060405180910390fd5b600080546040516001600160a01b03808516939216917f8be0079c531659141344cd1fd0a4f28419497f9722a3daafe3b4186f6b6457e091a3600080546001600160a01b0319166001600160a01b0392909216919091179055565b60008261174857506000610c63565b8282028284828161175557fe5b04146117925760405162461bcd60e51b8152600401808060200182810382526021815260200180611dbf6021913960400191505060405180910390fd5b9392505050565b60008082116117ef576040805162461bcd60e51b815260206004820152601a60248201527f536166654d6174683a206469766973696f6e206279207a65726f000000000000604482015290519081900360640190fd5b8183816117f857fe5b049392505050565b600082821115611857576040805162461bcd60e51b815260206004820152601e60248201527f536166654d6174683a207375627472616374696f6e206f766572666c6f770000604482015290519081900360640190fd5b50900390565b60007f00000000000000000000000000000000000000000000000000000000000000006001600160a01b03166370a08231306040518263ffffffff1660e01b815260040180826001600160a01b0316815260200191505060206040518083038186803b1580156118cc57600080fd5b505afa1580156118e0573d6000803e3d6000fd5b505050506040513d60208110156118f657600080fd5b505190508082111561193b576119366001600160a01b037f0000000000000000000000000000000000000000000000000000000000000000168483611974565b61196f565b61196f6001600160a01b037f0000000000000000000000000000000000000000000000000000000000000000168484611974565b505050565b604080516001600160a01b038416602482015260448082018490528251808303909101815260649091019091526020810180516001600160e01b031663a9059cbb60e01b17905261196f908490611a84565b600082820183811015611792576040805162461bcd60e51b815260206004820152601b60248201527f536166654d6174683a206164646974696f6e206f766572666c6f770000000000604482015290519081900360640190fd5b3390565b604080516001600160a01b0380861660248301528416604482015260648082018490528251808303909101815260849091019091526020810180516001600160e01b03166323b872dd60e01b179052611a7e908590611a84565b50505050565b6060611ad9826040518060400160405280602081526020017f5361666545524332303a206c6f772d6c6576656c2063616c6c206661696c6564815250856001600160a01b0316611b359092919063ffffffff16565b80519091501561196f57808060200190516020811015611af857600080fd5b505161196f5760405162461bcd60e51b815260040180806020018281038252602a815260200180611e00602a913960400191505060405180910390fd5b6060611b448484600085611b4c565b949350505050565b606082471015611b8d5760405162461bcd60e51b8152600401808060200182810382526026815260200180611d996026913960400191505060405180910390fd5b611b9685611ca8565b611be7576040805162461bcd60e51b815260206004820152601d60248201527f416464726573733a2063616c6c20746f206e6f6e2d636f6e7472616374000000604482015290519081900360640190fd5b60006060866001600160a01b031685876040518082805190602001908083835b60208310611c265780518252601f199092019160209182019101611c07565b6001836020036101000a03801982511681845116808217855250505050505090500191505060006040518083038185875af1925050503d8060008114611c88576040519150601f19603f3d011682016040523d82523d6000602084013e611c8d565b606091505b5091509150611c9d828286611cae565b979650505050505050565b3b151590565b60608315611cbd575081611792565b825115611ccd5782518084602001fd5b8160405162461bcd60e51b81526004018080602001828103825283818151815260200191508051906020019080838360005b83811015611d17578181015183820152602001611cff565b50505050905090810190601f168015611d445780820380516001836020036101000a031916815260200191505b509250505060405180910390fdfe5265656e7472616e637947756172643a207265656e7472616e742063616c6c004f776e61626c653a206e6577206f776e657220697320746865207a65726f2061646472657373416464726573733a20696e73756666696369656e742062616c616e636520666f722063616c6c536166654d6174683a206d756c7469706c69636174696f6e206f766572666c6f774f776e61626c653a2063616c6c6572206973206e6f7420746865206f776e65725361666545524332303a204552433230206f7065726174696f6e20646964206e6f742073756363656564a2646970667358221220fe798fa53b1cbb338b7e705f19b1f43e8120b5e58237abf6594ecefe71c62faa64736f6c634300060c0033",
  "linkReferences": {},
  "deployedLinkReferences": {}
}