{
  "_format": "hh-sol-artifact-1",
  "contractName": "ConvexMasterChef",
  "sourceName": "convex-platform/contracts/contracts/ConvexMasterChef.sol",
  "abi": [
    {
      "inputs": [
        {
          "internalType": "contract IERC20",
          "name": "_cvx",
          "type": "address"
        },
        {
          "internalType": "uint256",
          "name": "_rewardPerBlock",
          "type": "uint256"
        },
        {
          "internalType": "uint256",
          "name": "_startBlock",
          "type": "uint256"
        },
        {
          "internalType": "uint256",
          "name": "_endBlock",
          "type": "uint256"
        }
      ],
      "stateMutability": "nonpayable",
      "type": "constructor"
    },
    {
      "anonymous": false,
      "inputs": [
        {
          "indexed": true,
          "internalType": "address",
          "name": "user",
          "type": "address"
        },
        {
          "indexed": true,
          "internalType": "uint256",
          "name": "pid",
          "type": "uint256"
        },
        {
          "indexed": false,
          "internalType": "uint256",
          "name": "amount",
          "type": "uint256"
        }
      ],
      "name": "Deposit",
      "type": "event"
    },
    {
      "anonymous": false,
      "inputs": [
        {
          "indexed": true,
          "internalType": "address",
          "name": "user",
          "type": "address"
        },
        {
          "indexed": true,
          "internalType": "uint256",
          "name": "pid",
          "type": "uint256"
        },
        {
          "indexed": false,
          "internalType": "uint256",
          "name": "amount",
          "type": "uint256"
        }
      ],
      "name": "EmergencyWithdraw",
      "type": "event"
    },
    {
      "anonymous": false,
      "inputs": [
        {
          "indexed": true,
          "internalType": "address",
          "name": "previousOwner",
          "type": "address"
        },
        {
          "indexed": true,
          "internalType": "address",
          "name": "newOwner",
          "type": "address"
        }
      ],
      "name": "OwnershipTransferred",
      "type": "event"
    },
    {
      "anonymous": false,
      "inputs": [
        {
          "indexed": true,
          "internalType": "address",
          "name": "user",
          "type": "address"
        },
        {
          "indexed": true,
          "internalType": "uint256",
          "name": "pid",
          "type": "uint256"
        },
        {
          "indexed": false,
          "internalType": "uint256",
          "name": "amount",
          "type": "uint256"
        }
      ],
      "name": "RewardPaid",
      "type": "event"
    },
    {
      "anonymous": false,
      "inputs": [
        {
          "indexed": true,
          "internalType": "address",
          "name": "user",
          "type": "address"
        },
        {
          "indexed": true,
          "internalType": "uint256",
          "name": "pid",
          "type": "uint256"
        },
        {
          "indexed": false,
          "internalType": "uint256",
          "name": "amount",
          "type": "uint256"
        }
      ],
      "name": "Withdraw",
      "type": "event"
    },
    {
      "inputs": [],
      "name": "BONUS_MULTIPLIER",
      "outputs": [
        {
          "internalType": "uint256",
          "name": "",
          "type": "uint256"
        }
      ],
      "stateMutability": "view",
      "type": "function"
    },
    {
      "inputs": [
        {
          "internalType": "uint256",
          "name": "_allocPoint",
          "type": "uint256"
        },
        {
          "internalType": "contract IERC20",
          "name": "_lpToken",
          "type": "address"
        },
        {
          "internalType": "contract IRewarder",
          "name": "_rewarder",
          "type": "address"
        },
        {
          "internalType": "bool",
          "name": "_withUpdate",
          "type": "bool"
        }
      ],
      "name": "add",
      "outputs": [],
      "stateMutability": "nonpayable",
      "type": "function"
    },
    {
      "inputs": [
        {
          "internalType": "uint256",
          "name": "_pid",
          "type": "uint256"
        },
        {
          "internalType": "address",
          "name": "_account",
          "type": "address"
        }
      ],
      "name": "claim",
      "outputs": [],
      "stateMutability": "nonpayable",
      "type": "function"
    },
    {
      "inputs": [],
      "name": "cvx",
      "outputs": [
        {
          "internalType": "contract IERC20",
          "name": "",
          "type": "address"
        }
      ],
      "stateMutability": "view",
      "type": "function"
    },
    {
      "inputs": [
        {
          "internalType": "uint256",
          "name": "_pid",
          "type": "uint256"
        },
        {
          "internalType": "uint256",
          "name": "_amount",
          "type": "uint256"
        }
      ],
      "name": "deposit",
      "outputs": [],
      "stateMutability": "nonpayable",
      "type": "function"
    },
    {
      "inputs": [
        {
          "internalType": "uint256",
          "name": "_pid",
          "type": "uint256"
        }
      ],
      "name": "emergencyWithdraw",
      "outputs": [],
      "stateMutability": "nonpayable",
      "type": "function"
    },
    {
      "inputs": [],
      "name": "endBlock",
      "outputs": [
        {
          "internalType": "uint256",
          "name": "",
          "type": "uint256"
        }
      ],
      "stateMutability": "view",
      "type": "function"
    },
    {
      "inputs": [
        {
          "internalType": "uint256",
          "name": "_from",
          "type": "uint256"
        },
        {
          "internalType": "uint256",
          "name": "_to",
          "type": "uint256"
        }
      ],
      "name": "getMultiplier",
      "outputs": [
        {
          "internalType": "uint256",
          "name": "",
          "type": "uint256"
        }
      ],
      "stateMutability": "view",
      "type": "function"
    },
    {
      "inputs": [],
      "name": "massUpdatePools",
      "outputs": [],
      "stateMutability": "nonpayable",
      "type": "function"
    },
    {
      "inputs": [],
      "name": "owner",
      "outputs": [
        {
          "internalType": "address",
          "name": "",
          "type": "address"
        }
      ],
      "stateMutability": "view",
      "type": "function"
    },
    {
      "inputs": [
        {
          "internalType": "uint256",
          "name": "_pid",
          "type": "uint256"
        },
        {
          "internalType": "address",
          "name": "_user",
          "type": "address"
        }
      ],
      "name": "pendingCvx",
      "outputs": [
        {
          "internalType": "uint256",
          "name": "",
          "type": "uint256"
        }
      ],
      "stateMutability": "view",
      "type": "function"
    },
    {
      "inputs": [
        {
          "internalType": "uint256",
          "name": "",
          "type": "uint256"
        }
      ],
      "name": "poolInfo",
      "outputs": [
        {
          "internalType": "contract IERC20",
          "name": "lpToken",
          "type": "address"
        },
        {
          "internalType": "uint256",
          "name": "allocPoint",
          "type": "uint256"
        },
        {
          "internalType": "uint256",
          "name": "lastRewardBlock",
          "type": "uint256"
        },
        {
          "internalType": "uint256",
          "name": "accCvxPerShare",
          "type": "uint256"
        },
        {
          "internalType": "contract IRewarder",
          "name": "rewarder",
          "type": "address"
        }
      ],
      "stateMutability": "view",
      "type": "function"
    },
    {
      "inputs": [],
      "name": "poolLength",
      "outputs": [
        {
          "internalType": "uint256",
          "name": "",
          "type": "uint256"
        }
      ],
      "stateMutability": "view",
      "type": "function"
    },
    {
      "inputs": [],
      "name": "renounceOwnership",
      "outputs": [],
      "stateMutability": "nonpayable",
      "type": "function"
    },
    {
      "inputs": [],
      "name": "rewardPerBlock",
      "outputs": [
        {
          "internalType": "uint256",
          "name": "",
          "type": "uint256"
        }
      ],
      "stateMutability": "view",
      "type": "function"
    },
    {
      "inputs": [
        {
          "internalType": "uint256",
          "name": "_pid",
          "type": "uint256"
        },
        {
          "internalType": "uint256",
          "name": "_allocPoint",
          "type": "uint256"
        },
        {
          "internalType": "contract IRewarder",
          "name": "_rewarder",
          "type": "address"
        },
        {
          "internalType": "bool",
          "name": "_withUpdate",
          "type": "bool"
        },
        {
          "internalType": "bool",
          "name": "_updateRewarder",
          "type": "bool"
        }
      ],
      "name": "set",
      "outputs": [],
      "stateMutability": "nonpayable",
      "type": "function"
    },
    {
      "inputs": [],
      "name": "startBlock",
      "outputs": [
        {
          "internalType": "uint256",
          "name": "",
          "type": "uint256"
        }
      ],
      "stateMutability": "view",
      "type": "function"
    },
    {
      "inputs": [],
      "name": "totalAllocPoint",
      "outputs": [
        {
          "internalType": "uint256",
          "name": "",
          "type": "uint256"
        }
      ],
      "stateMutability": "view",
      "type": "function"
    },
    {
      "inputs": [
        {
          "internalType": "address",
          "name": "newOwner",
          "type": "address"
        }
      ],
      "name": "transferOwnership",
      "outputs": [],
      "stateMutability": "nonpayable",
      "type": "function"
    },
    {
      "inputs": [
        {
          "internalType": "uint256",
          "name": "_pid",
          "type": "uint256"
        }
      ],
      "name": "updatePool",
      "outputs": [],
      "stateMutability": "nonpayable",
      "type": "function"
    },
    {
      "inputs": [
        {
          "internalType": "uint256",
          "name": "",
          "type": "uint256"
        },
        {
          "internalType": "address",
          "name": "",
          "type": "address"
        }
      ],
      "name": "userInfo",
      "outputs": [
        {
          "internalType": "uint256",
          "name": "amount",
          "type": "uint256"
        },
        {
          "internalType": "uint256",
          "name": "rewardDebt",
          "type": "uint256"
        }
      ],
      "stateMutability": "view",
      "type": "function"
    },
    {
      "inputs": [
        {
          "internalType": "uint256",
          "name": "_pid",
          "type": "uint256"
        },
        {
          "internalType": "uint256",
          "name": "_amount",
          "type": "uint256"
        }
      ],
      "name": "withdraw",
      "outputs": [],
      "stateMutability": "nonpayable",
      "type": "function"
    }
  ],
  "bytecode": "0x610100604052600060035534801561001657600080fd5b50604051611c41380380611c418339818101604052608081101561003957600080fd5b5080516020820151604083015160609093015191929091600061005a6100c8565b600080546001600160a01b0319166001600160a01b0383169081178255604051929350917f8be0079c531659141344cd1fd0a4f28419497f9722a3daafe3b4186f6b6457e0908290a35060609390931b6001600160601b03191660805260a09190915260c05260e0526100cc565b3390565b60805160601c60a05160c05160e051611b0661013b600039806104165280610cf35280610d205280610d465280610d735250806107cf5280610e645280610e8b5250806108d25280610c2f5280610cbd525080610daa5280611590528061163e52806116775250611b066000f3fe608060405234801561001057600080fd5b50600436106101425760003560e01c80637ca7d8bf116100b8578063923c1d611161007c578063923c1d611461030e57806393f1a40b14610316578063c71b4b431461035b578063ddd5e1b214610399578063e2bbb158146103c5578063f2fde38b146103e857610142565b80637ca7d8bf1461028b5780638aa28550146102b75780638ae39cac146102bf5780638da5cb5b146102c75780638dbb1e3a146102eb57610142565b8063441a3e701161010a578063441a3e701461021657806348cd4cb11461023957806351eb05a6146102415780635312ea8e1461025e578063630b5ba11461027b578063715018a61461028357610142565b8063081e3eda14610147578063083c6323146101615780631526fe271461016957806317caf6f1146101ca5780633deb2c10146101d2575b600080fd5b61014f61040e565b60408051918252519081900360200190f35b61014f610414565b6101866004803603602081101561017f57600080fd5b5035610438565b60405180866001600160a01b03168152602001858152602001848152602001838152602001826001600160a01b031681526020019550505050505060405180910390f35b61014f610483565b610214600480360360a08110156101e857600080fd5b508035906020810135906001600160a01b03604082013516906060810135151590608001351515610489565b005b6102146004803603604081101561022c57600080fd5b50803590602001356105b0565b61014f6107cd565b6102146004803603602081101561025757600080fd5b50356107f1565b6102146004803603602081101561027457600080fd5b503561093f565b610214610a69565b610214610a8c565b61014f600480360360408110156102a157600080fd5b50803590602001356001600160a01b0316610b38565b61014f610cb6565b61014f610cbb565b6102cf610cdf565b604080516001600160a01b039092168252519081900360200190f35b61014f6004803603604081101561030157600080fd5b5080359060200135610cee565b6102cf610da8565b6103426004803603604081101561032c57600080fd5b50803590602001356001600160a01b0316610dcc565b6040805192835260208301919091528051918290030190f35b6102146004803603608081101561037157600080fd5b508035906001600160a01b036020820135811691604081013590911690606001351515610df0565b610214600480360360408110156103af57600080fd5b50803590602001356001600160a01b0316610fef565b610214600480360360408110156103db57600080fd5b5080359060200135611171565b610214600480360360208110156103fe57600080fd5b50356001600160a01b0316611308565b60015490565b7f000000000000000000000000000000000000000000000000000000000000000081565b6001818154811061044557fe5b6000918252602090912060059091020180546001820154600283015460038401546004909401546001600160a01b0393841695509193909290911685565b60035481565b61049161140a565b6001600160a01b03166104a2610cdf565b6001600160a01b0316146104eb576040805162461bcd60e51b81526020600482018190526024820152600080516020611a87833981519152604482015290519081900360640190fd5b81156104f9576104f9610a69565b610536846105306001888154811061050d57fe5b90600052602060002090600502016001015460035461140e90919063ffffffff16565b9061146b565b600381905550836001868154811061054a57fe5b90600052602060002090600502016001018190555080156105a957826001868154811061057357fe5b906000526020600020906005020160040160006101000a8154816001600160a01b0302191690836001600160a01b031602179055505b5050505050565b6000600183815481106105bf57fe5b600091825260208083208684526002825260408085203386529092529220805460059092029092019250831115610632576040805162461bcd60e51b81526020600482015260126024820152711dda5d1a191c985dce881b9bdd0819dbdbd960721b604482015290519081900360640190fd5b61063b846107f1565b6000610675826001015461066f64e8d4a51000610669876003015487600001546114cc90919063ffffffff16565b90611525565b9061140e565b9050610681338261158c565b815461068d908561140e565b80835560038401546106aa9164e8d4a510009161066991906114cc565b600183015582546106c5906001600160a01b031633866116a3565b60048301546001600160a01b03168015610757578254604080516344af0fa760e01b81526004810189905233602482018190526044820152606481018590526084810192909252516001600160a01b038316916344af0fa79160a480830192600092919082900301818387803b15801561073e57600080fd5b505af1158015610752573d6000803e3d6000fd5b505050505b604080518381529051879133917fd6f2c8500df5b44f11e9e48b91ff9f1b9d81bc496d55570c2b1b75bf65243f519181900360200190a3604080518681529051879133917ff279e6a1f5e320cca91135676d9cb6e44ca8a08c0b88342bcdb1144f6511b5689181900360200190a3505050505050565b7f000000000000000000000000000000000000000000000000000000000000000081565b60006001828154811061080057fe5b9060005260206000209060050201905080600201544311610821575061093c565b8054604080516370a0823160e01b815230600482015290516000926001600160a01b0316916370a08231916024808301926020929190829003018186803b15801561086b57600080fd5b505afa15801561087f573d6000803e3d6000fd5b505050506040513d602081101561089557600080fd5b50519050806108ab57504360029091015561093c565b60006108bb836002015443610cee565b9050600061090660035461066986600101546109007f0000000000000000000000000000000000000000000000000000000000000000876114cc90919063ffffffff16565b906114cc565b905061092961091e846106698464e8d4a510006114cc565b60038601549061146b565b6003850155505043600290920191909155505b50565b60006001828154811061094e57fe5b60009182526020808320858452600282526040808520338087529352909320805460059093029093018054909450610993926001600160a01b039190911691906116a3565b80546040805191825251849133917fbb757047c2b5f3974fe26b7c10f732e7bce710b0952a71082702781e62ae05959181900360200190a36000808255600182015560048201546001600160a01b03168015610a6357604080516344af0fa760e01b815260048101869052336024820181905260448201526000606482018190526084820181905291516001600160a01b038416926344af0fa79260a4808201939182900301818387803b158015610a4a57600080fd5b505af1158015610a5e573d6000803e3d6000fd5b505050505b50505050565b60015460005b81811015610a8857610a80816107f1565b600101610a6f565b5050565b610a9461140a565b6001600160a01b0316610aa5610cdf565b6001600160a01b031614610aee576040805162461bcd60e51b81526020600482018190526024820152600080516020611a87833981519152604482015290519081900360640190fd5b600080546040516001600160a01b03909116907f8be0079c531659141344cd1fd0a4f28419497f9722a3daafe3b4186f6b6457e0908390a3600080546001600160a01b0319169055565b60008060018481548110610b4857fe5b600091825260208083208784526002825260408085206001600160a01b0389811687529084528186206005959095029092016003810154815483516370a0823160e01b815230600482015293519298509596909590949316926370a082319260248082019391829003018186803b158015610bc257600080fd5b505afa158015610bd6573d6000803e3d6000fd5b505050506040513d6020811015610bec57600080fd5b5051600285015490915043118015610c0357508015155b15610c81576000610c18856002015443610cee565b90506000610c5d60035461066988600101546109007f0000000000000000000000000000000000000000000000000000000000000000876114cc90919063ffffffff16565b9050610c7c610c75846106698464e8d4a510006114cc565b859061146b565b935050505b610ca9836001015461066f64e8d4a510006106698688600001546114cc90919063ffffffff16565b9450505050505b92915050565b600281565b7f000000000000000000000000000000000000000000000000000000000000000081565b6000546001600160a01b031690565b6000807f00000000000000000000000000000000000000000000000000000000000000008311610d1e5782610d40565b7f00000000000000000000000000000000000000000000000000000000000000005b905060007f00000000000000000000000000000000000000000000000000000000000000008511610d715784610d93565b7f00000000000000000000000000000000000000000000000000000000000000005b9050610d9f828261140e565b95945050505050565b7f000000000000000000000000000000000000000000000000000000000000000081565b60026020908152600092835260408084209091529082529020805460019091015482565b610df861140a565b6001600160a01b0316610e09610cdf565b6001600160a01b031614610e52576040805162461bcd60e51b81526020600482018190526024820152600080516020611a87833981519152604482015290519081900360640190fd5b8015610e6057610e60610a69565b60007f00000000000000000000000000000000000000000000000000000000000000004311610eaf577f0000000000000000000000000000000000000000000000000000000000000000610eb1565b435b600354909150610ec1908661146b565b6003556040805160a0810182526001600160a01b03958616815260208101968752908101918252600060608201818152948616608083019081526001805480820182559252915160059091027fb10e2d527612073b26eecdfd717e6a320cf44b4afac2b0732d9fcbe2b7fa0cf6810180549288166001600160a01b031993841617905596517fb10e2d527612073b26eecdfd717e6a320cf44b4afac2b0732d9fcbe2b7fa0cf788015591517fb10e2d527612073b26eecdfd717e6a320cf44b4afac2b0732d9fcbe2b7fa0cf887015592517fb10e2d527612073b26eecdfd717e6a320cf44b4afac2b0732d9fcbe2b7fa0cf986015591517fb10e2d527612073b26eecdfd717e6a320cf44b4afac2b0732d9fcbe2b7fa0cfa9094018054949093169390911692909217905550565b600060018381548110610ffe57fe5b600091825260208083208684526002825260408085206001600160a01b0388168652909252922060059091029091019150611038846107f1565b6000611066826001015461066f64e8d4a51000610669876003015487600001546114cc90919063ffffffff16565b9050611072848261158c565b6003830154825461108d9164e8d4a5100091610669916114cc565b600183015560048301546001600160a01b03168015611129578254604080516344af0fa760e01b8152600481018990526001600160a01b038881166024830181905260448301526064820186905260848201939093529051918316916344af0fa79160a48082019260009290919082900301818387803b15801561111057600080fd5b505af1158015611124573d6000803e3d6000fd5b505050505b60408051838152905187916001600160a01b038816917fd6f2c8500df5b44f11e9e48b91ff9f1b9d81bc496d55570c2b1b75bf65243f519181900360200190a3505050505050565b60006001838154811061118057fe5b600091825260208083208684526002825260408085203386529092529220600590910290910191506111b1846107f1565b8054156111f45760006111e6826001015461066f64e8d4a51000610669876003015487600001546114cc90919063ffffffff16565b90506111f2338261158c565b505b815461120b906001600160a01b03163330866116f5565b8054611217908461146b565b80825560038301546112349164e8d4a510009161066991906114cc565b600182015560048201546001600160a01b031680156112ca578154604080516344af0fa760e01b81526004810188905233602482018190526044820152600060648201819052608482019390935290516001600160a01b038416926344af0fa79260a4808201939182900301818387803b1580156112b157600080fd5b505af11580156112c5573d6000803e3d6000fd5b505050505b604080518581529051869133917f90890809c654f11d6e72a28fa60149770a0d11ec6c92319d6ceb2bb0a4ea1a159181900360200190a35050505050565b61131061140a565b6001600160a01b0316611321610cdf565b6001600160a01b03161461136a576040805162461bcd60e51b81526020600482018190526024820152600080516020611a87833981519152604482015290519081900360640190fd5b6001600160a01b0381166113af5760405162461bcd60e51b8152600401808060200182810382526026815260200180611a1a6026913960400191505060405180910390fd5b600080546040516001600160a01b03808516939216917f8be0079c531659141344cd1fd0a4f28419497f9722a3daafe3b4186f6b6457e091a3600080546001600160a01b0319166001600160a01b0392909216919091179055565b3390565b600082821115611465576040805162461bcd60e51b815260206004820152601e60248201527f536166654d6174683a207375627472616374696f6e206f766572666c6f770000604482015290519081900360640190fd5b50900390565b6000828201838110156114c5576040805162461bcd60e51b815260206004820152601b60248201527f536166654d6174683a206164646974696f6e206f766572666c6f770000000000604482015290519081900360640190fd5b9392505050565b6000826114db57506000610cb0565b828202828482816114e857fe5b04146114c55760405162461bcd60e51b8152600401808060200182810382526021815260200180611a666021913960400191505060405180910390fd5b600080821161157b576040805162461bcd60e51b815260206004820152601a60248201527f536166654d6174683a206469766973696f6e206279207a65726f000000000000604482015290519081900360640190fd5b81838161158457fe5b049392505050565b60007f00000000000000000000000000000000000000000000000000000000000000006001600160a01b03166370a08231306040518263ffffffff1660e01b815260040180826001600160a01b0316815260200191505060206040518083038186803b1580156115fb57600080fd5b505afa15801561160f573d6000803e3d6000fd5b505050506040513d602081101561162557600080fd5b505190508082111561166a576116656001600160a01b037f00000000000000000000000000000000000000000000000000000000000000001684836116a3565b61169e565b61169e6001600160a01b037f00000000000000000000000000000000000000000000000000000000000000001684846116a3565b505050565b604080516001600160a01b038416602482015260448082018490528251808303909101815260649091019091526020810180516001600160e01b031663a9059cbb60e01b17905261169e90849061174b565b604080516001600160a01b0380861660248301528416604482015260648082018490528251808303909101815260849091019091526020810180516001600160e01b03166323b872dd60e01b179052610a639085905b60606117a0826040518060400160405280602081526020017f5361666545524332303a206c6f772d6c6576656c2063616c6c206661696c6564815250856001600160a01b03166117fc9092919063ffffffff16565b80519091501561169e578080602001905160208110156117bf57600080fd5b505161169e5760405162461bcd60e51b815260040180806020018281038252602a815260200180611aa7602a913960400191505060405180910390fd5b606061180b8484600085611813565b949350505050565b6060824710156118545760405162461bcd60e51b8152600401808060200182810382526026815260200180611a406026913960400191505060405180910390fd5b61185d8561196f565b6118ae576040805162461bcd60e51b815260206004820152601d60248201527f416464726573733a2063616c6c20746f206e6f6e2d636f6e7472616374000000604482015290519081900360640190fd5b60006060866001600160a01b031685876040518082805190602001908083835b602083106118ed5780518252601f1990920191602091820191016118ce565b6001836020036101000a03801982511681845116808217855250505050505090500191505060006040518083038185875af1925050503d806000811461194f576040519150601f19603f3d011682016040523d82523d6000602084013e611954565b606091505b5091509150611964828286611975565b979650505050505050565b3b151590565b606083156119845750816114c5565b8251156119945782518084602001fd5b8160405162461bcd60e51b81526004018080602001828103825283818151815260200191508051906020019080838360005b838110156119de5781810151838201526020016119c6565b50505050905090810190601f168015611a0b5780820380516001836020036101000a031916815260200191505b509250505060405180910390fdfe4f776e61626c653a206e6577206f776e657220697320746865207a65726f2061646472657373416464726573733a20696e73756666696369656e742062616c616e636520666f722063616c6c536166654d6174683a206d756c7469706c69636174696f6e206f766572666c6f774f776e61626c653a2063616c6c6572206973206e6f7420746865206f776e65725361666545524332303a204552433230206f7065726174696f6e20646964206e6f742073756363656564a2646970667358221220208ccdd4764d8fd82d7d7711b75dc81a90d13e57d10bf5e340857e8e79880da164736f6c634300060c0033",
  "linkReferences": {},
  "deployedLinkReferences": {}
}