{
  "_format": "hh-sol-artifact-1",
  "contractName": "RewardFactory",
  "sourceName": "convex-platform/contracts/contracts/RewardFactory.sol",
  "abi": [
    {
      "inputs": [
        {
          "internalType": "address",
          "name": "_operator",
          "type": "address"
        },
        {
          "internalType": "address",
          "name": "_crv",
          "type": "address"
        }
      ],
      "stateMutability": "nonpayable",
      "type": "constructor"
    },
    {
      "anonymous": false,
      "inputs": [
        {
          "indexed": false,
          "internalType": "address",
          "name": "stash",
          "type": "address"
        },
        {
          "indexed": false,
          "internalType": "bool",
          "name": "hasAccess",
          "type": "bool"
        }
      ],
      "name": "AccessChanged",
      "type": "event"
    },
    {
      "anonymous": false,
      "inputs": [
        {
          "indexed": false,
          "internalType": "address",
          "name": "rewardPool",
          "type": "address"
        },
        {
          "indexed": false,
          "internalType": "uint256",
          "name": "_pid",
          "type": "uint256"
        },
        {
          "indexed": false,
          "internalType": "address",
          "name": "depositToken",
          "type": "address"
        }
      ],
      "name": "RewardPoolCreated",
      "type": "event"
    },
    {
      "anonymous": false,
      "inputs": [
        {
          "indexed": false,
          "internalType": "address",
          "name": "rewardPool",
          "type": "address"
        },
        {
          "indexed": false,
          "internalType": "address",
          "name": "token",
          "type": "address"
        },
        {
          "indexed": false,
          "internalType": "address",
          "name": "mainRewards",
          "type": "address"
        },
        {
          "indexed": false,
          "internalType": "address",
          "name": "operator",
          "type": "address"
        }
      ],
      "name": "TokenRewardPoolCreated",
      "type": "event"
    },
    {
      "inputs": [
        {
          "internalType": "uint256",
          "name": "_pid",
          "type": "uint256"
        },
        {
          "internalType": "address",
          "name": "_depositToken",
          "type": "address"
        },
        {
          "internalType": "address",
          "name": "_lptoken",
          "type": "address"
        }
      ],
      "name": "CreateCrvRewards",
      "outputs": [
        {
          "internalType": "address",
          "name": "",
          "type": "address"
        }
      ],
      "stateMutability": "nonpayable",
      "type": "function"
    },
    {
      "inputs": [
        {
          "internalType": "address",
          "name": "_token",
          "type": "address"
        },
        {
          "internalType": "address",
          "name": "_mainRewards",
          "type": "address"
        },
        {
          "internalType": "address",
          "name": "_operator",
          "type": "address"
        }
      ],
      "name": "CreateTokenRewards",
      "outputs": [
        {
          "internalType": "address",
          "name": "",
          "type": "address"
        }
      ],
      "stateMutability": "nonpayable",
      "type": "function"
    },
    {
      "inputs": [],
      "name": "crv",
      "outputs": [
        {
          "internalType": "address",
          "name": "",
          "type": "address"
        }
      ],
      "stateMutability": "view",
      "type": "function"
    },
    {
      "inputs": [],
      "name": "operator",
      "outputs": [
        {
          "internalType": "address",
          "name": "",
          "type": "address"
        }
      ],
      "stateMutability": "view",
      "type": "function"
    },
    {
      "inputs": [
        {
          "internalType": "address",
          "name": "",
          "type": "address"
        },
        {
          "internalType": "uint256",
          "name": "",
          "type": "uint256"
        }
      ],
      "name": "rewardActiveList",
      "outputs": [
        {
          "internalType": "uint256",
          "name": "",
          "type": "uint256"
        }
      ],
      "stateMutability": "view",
      "type": "function"
    },
    {
      "inputs": [
        {
          "internalType": "address",
          "name": "_stash",
          "type": "address"
        },
        {
          "internalType": "bool",
          "name": "_status",
          "type": "bool"
        }
      ],
      "name": "setAccess",
      "outputs": [],
      "stateMutability": "nonpayable",
      "type": "function"
    }
  ],
  "bytecode": "0x60c060405234801561001057600080fd5b506040516142863803806142868339818101604052604081101561003357600080fd5b5080516020909101516001600160601b0319606092831b8116608052911b1660a05260805160601c60a05160601c6141ef610097600039806101da52806102f852508061017a52806101fb52806102d45280610353528061041c52506141ef6000f3fe608060405234801561001057600080fd5b50600436106100625760003560e01c80632f7260f114610067578063570ca735146100b75780636a4874a1146100bf5780638d9622d9146100c7578063b84614a514610105578063f8d6122e14610135575b600080fd5b61009b6004803603606081101561007d57600080fd5b508035906001600160a01b036020820135811691604001351661016d565b604080516001600160a01b039092168252519081900360200190f35b61009b6102d2565b61009b6102f6565b6100f3600480360360408110156100dd57600080fd5b506001600160a01b03813516906020013561031a565b60408051918252519081900360200190f35b6101336004803603604081101561011b57600080fd5b506001600160a01b0381351690602001351515610348565b005b61009b6004803603606081101561014b57600080fd5b506001600160a01b03813581169160208101358216916040909101351661040f565b6000336001600160a01b037f000000000000000000000000000000000000000000000000000000000000000016146101d4576040805162461bcd60e51b8152602060048201526005602482015264042c2eae8d60db1b604482015290519081900360640190fd5b600084847f00000000000000000000000000000000000000000000000000000000000000007f00000000000000000000000000000000000000000000000000000000000000003087604051610228906105b1565b9586526001600160a01b039485166020870152928416604080870191909152918416606086015283166080850152911660a0830152519081900360c001906000f08015801561027b573d6000803e3d6000fd5b50604080516001600160a01b0380841682526020820189905287168183015290519192507f3da1a39f85ff8081f7aea9e62932968ca8719469f121a56e84afe7c2ab45d1db919081900360600190a1949350505050565b7f000000000000000000000000000000000000000000000000000000000000000081565b7f000000000000000000000000000000000000000000000000000000000000000081565b6001602052816000526040600020818154811061033357fe5b90600052602060002001600091509150505481565b336001600160a01b037f000000000000000000000000000000000000000000000000000000000000000016146103ad576040805162461bcd60e51b8152602060048201526005602482015264042c2eae8d60db1b604482015290519081900360640190fd5b6001600160a01b03821660008181526020818152604091829020805460ff191685151590811790915582519384529083015280517fa4db2f7b38cef7c9aa9b5b2ae37b4a06e94048ba87583a6de6b5fd51e45b29fb9281900390910190a15050565b6000336001600160a01b037f000000000000000000000000000000000000000000000000000000000000000016148061045c57503360009081526020819052604090205460ff1615156001145b610495576040805162461bcd60e51b8152602060048201526005602482015264042c2eae8d60db1b604482015290519081900360640190fd5b60008385846040516104a6906105bf565b6001600160a01b03938416815291831660208301529091166040808301919091525190819003606001906000f0801580156104e5573d6000803e3d6000fd5b5090506000819050846001600160a01b0316635e43c47b826040518263ffffffff1660e01b815260040180826001600160a01b03168152602001915050600060405180830381600087803b15801561053c57600080fd5b505af1158015610550573d6000803e3d6000fd5b5050604080516001600160a01b038086168252808b166020830152808a16828401528816606082015290517fc27fd230b2cc26a634f90e66b9bd9c1568a54452cace74c7a6a985f631813ead9350908190036080019150a195945050505050565b61299880620005ce83390190565b6112548062002f668339019056fe6101206040526000805560006001556000600455600060055560006006553480156200002a57600080fd5b506040516200299838038062002998833981810160405260c08110156200005057600080fd5b508051602080830151604084015160608086015160808088015160a09889015161010089905286851b6001600160601b0319908116909a5285851b8a1690925282841b891660c0529283901b90971660e0526001600c55600d80546001600160a01b0319166001600160a01b03808a16919091179182905596979496939591949293620000ef92911690859060001990620000fb811b6200197917901c565b5050505050506200050e565b80158062000185575060408051636eb1769f60e11b81523060048201526001600160a01b03848116602483015291519185169163dd62ed3e91604480820192602092909190829003018186803b1580156200015557600080fd5b505afa1580156200016a573d6000803e3d6000fd5b505050506040513d60208110156200018157600080fd5b5051155b620001c25760405162461bcd60e51b8152600401808060200182810382526036815260200180620029626036913960400191505060405180910390fd5b604080516001600160a01b038416602482015260448082018490528251808303909101815260649091019091526020810180516001600160e01b0390811663095ea7b360e01b179091526200021a9185916200021f16565b505050565b60606200027b826040518060400160405280602081526020017f5361666545524332303a206c6f772d6c6576656c2063616c6c206661696c6564815250856001600160a01b0316620002db60201b62001a91179092919060201c565b8051909150156200021a578080602001905160208110156200029c57600080fd5b50516200021a5760405162461bcd60e51b815260040180806020018281038252602a81526020018062002938602a913960400191505060405180910390fd5b6060620002ec8484600085620002f6565b90505b9392505050565b606082471015620003395760405162461bcd60e51b8152600401808060200182810382526026815260200180620029126026913960400191505060405180910390fd5b62000344856200045e565b62000396576040805162461bcd60e51b815260206004820152601d60248201527f416464726573733a2063616c6c20746f206e6f6e2d636f6e7472616374000000604482015290519081900360640190fd5b60006060866001600160a01b031685876040518082805190602001908083835b60208310620003d75780518252601f199092019160209182019101620003b6565b6001836020036101000a03801982511681845116808217855250505050505090500191505060006040518083038185875af1925050503d80600081146200043b576040519150601f19603f3d011682016040523d82523d6000602084013e62000440565b606091505b5090925090506200045382828662000464565b979650505050505050565b3b151590565b6060831562000475575081620002ef565b825115620004865782518084602001fd5b8160405162461bcd60e51b81526004018080602001828103825283818151815260200191508051906020019080838360005b83811015620004d2578181015183820152602001620004b8565b50505050905090810190601f168015620005005780820380516001836020036101000a031916815260200191505b509250505060405180910390fd5b60805160601c60a05160601c60c05160601c60e05160601c6101005161236d620005a560003980610faa52806111fd528061177d52806118e752508061085a52806108e75280610df5525080610cc45280610cf35280610f7b52806111ce52806117b45250806109535280610b4d528061138252806113cf52806114ac5250806111a552806119185280611957525061236d6000f3fe608060405234801561001057600080fd5b506004361061030b5760003560e01c806370a082311161019d578063c63d75b6116100e9578063d905777e116100a2578063ef8b30f71161007c578063ef8b30f71461039d578063f1068454146107a2578063f14faf6f146107aa578063f7c618c1146107c75761030b565b8063d905777e1461076c578063df136d6514610792578063ebe2b12b1461079a5761030b565b8063c63d75b614610708578063c6e6f59214610380578063c8f33c911461072e578063cd3daf9d14610736578063ce96cb771461073e578063d55a23f4146107645761030b565b8063901a7d5311610156578063b3d7f6b911610130578063b3d7f6b91461039d578063b460af941461067b578063ba087652146106af578063c32e7202146106e35761030b565b8063901a7d531461062a57806394bf804d14610632578063a694fc3a1461065e5761030b565b806370a08231146105be57806372f702f3146105e45780637b0a47ee146105ec57806380faa57d146105f45780638b876347146105fc5780638dcb4061146106225761030b565b806338d52e0f1161025c578063570ca7351161021557806363d38c3b116101ef57806363d38c3b146105545780636c8bcee81461055c5780636e553f65146105645780637050ccd9146105905761030b565b8063570ca73514610509578063590a41f5146105115780635e43c47b1461052e5761030b565b806338d52e0f1461047a5780633d18b91214610482578063402d267d1461048a57806340c35446146104b057806349f039a2146104cd5780634cdad506146104ec5761030b565b80630f4ef8a6116102c95780631c1c6fe5116102a35780631c1c6fe5146103ee578063262d3d6d1461040d5780632ee409081461041557806338d07436146104555761030b565b80630f4ef8a6146103ba5780630fb5a6b4146103de57806318160ddd146103e65761030b565b80628cc2621461031057806301e1d114146103485780630569d388146103505780630700037d1461035a57806307a2d13a146103805780630a28a4771461039d575b600080fd5b6103366004803603602081101561032657600080fd5b50356001600160a01b03166107cf565b60408051918252519081900360200190f35b61033661083f565b61035861084f565b005b6103366004803603602081101561037057600080fd5b50356001600160a01b03166108c8565b6103366004803603602081101561039657600080fd5b503561084c565b610336600480360360208110156103b357600080fd5b50356108da565b6103c26108e5565b604080516001600160a01b039092168252519081900360200190f35b610336610909565b610336610910565b6103586004803603602081101561040457600080fd5b50351515610916565b610336610934565b6104416004803603604081101561042b57600080fd5b506001600160a01b03813516906020013561093a565b604080519115158252519081900360200190f35b6104416004803603604081101561046b57600080fd5b508035906020013515156109c4565b6103c2610bcf565b610441610bde565b610336600480360360208110156104a057600080fd5b50356001600160a01b0316610bf3565b6103c2600480360360208110156104c657600080fd5b5035610c76565b610358600480360360208110156104e357600080fd5b50351515610c9d565b6103366004803603602081101561050257600080fd5b5035610cb7565b6103c2610cc2565b6104416004803603602081101561052757600080fd5b5035610ce6565b6104416004803603602081101561054457600080fd5b50356001600160a01b0316610de8565b610336610ef6565b610336610efc565b6103366004803603604081101561057a57600080fd5b50803590602001356001600160a01b0316610f02565b610441600480360360408110156105a657600080fd5b506001600160a01b0381351690602001351515611115565b610336600480360360208110156105d457600080fd5b50356001600160a01b0316611365565b6103c2611380565b6103366113a4565b6103366113aa565b6103366004803603602081101561061257600080fd5b50356001600160a01b03166113b8565b6104416113ca565b61033661147a565b6103366004803603604081101561064857600080fd5b50803590602001356001600160a01b0316611480565b6104416004803603602081101561067457600080fd5b5035611493565b6103366004803603606081101561069157600080fd5b508035906001600160a01b0360208201358116916040013516611512565b610336600480360360608110156106c557600080fd5b508035906001600160a01b036020820135811691604001351661162b565b610441600480360360408110156106f957600080fd5b50803590602001351515611640565b6103366004803603602081101561071e57600080fd5b50356001600160a01b031661185e565b610336611869565b61033661186f565b6103366004803603602081101561075457600080fd5b50356001600160a01b03166118bd565b6103366118c8565b6103366004803603602081101561078257600080fd5b50356001600160a01b03166118ce565b6103366118d9565b6103366118df565b6103366118e5565b610441600480360360208110156107c057600080fd5b5035611909565b6103c2611955565b6001600160a01b0381166000908152600960209081526040808320546008909252822054610837919061083190670de0b6b3a76400009061082b9061081c9061081661186f565b90611aa0565b61082588611365565b90611afd565b90611b56565b90611bbd565b90505b919050565b6000610849610910565b90505b90565b336001600160a01b037f000000000000000000000000000000000000000000000000000000000000000016146108ba576040805162461bcd60e51b815260206004820152600b60248201526a08585d5d1a1bdc9a5e995960aa1b604482015290519081900360640190fd5b6108c6600b6000612256565b565b60096020526000908152604090205481565b60006108378261084c565b7f000000000000000000000000000000000000000000000000000000000000000081565b62093a8081565b60075490565b336000908152600a602052604090205461093090826109c4565b5050565b60065481565b60006109468284611c17565b61097b6001600160a01b037f000000000000000000000000000000000000000000000000000000000000000016333085611db3565b6040805183815290516001600160a01b038516917f9e71bc8eea02a63969f509818f2dafb9254532904319f9dbda79b67bd34a5f3d919081900360200190a25060015b92915050565b6000336109cf61186f565b6003556109da6113aa565b6002556001600160a01b03811615610a21576109f5816107cf565b6001600160a01b0382166000908152600960209081526040808320939093556003546008909152919020555b60008411610a76576040805162461bcd60e51b815260206004820152601e60248201527f526577617264506f6f6c203a2043616e6e6f7420776974686472617720300000604482015290519081900360640190fd5b60005b600b54811015610b0957600b8181548110610a9057fe5b60009182526020822001546040805163f3fef3a360e01b81523360048201526024810189905290516001600160a01b039092169263f3fef3a39260448084019382900301818387803b158015610ae557600080fd5b505af1158015610af9573d6000803e3d6000fd5b505060019092019150610a799050565b50600754610b179085611aa0565b600755336000908152600a6020526040902054610b349085611aa0565b336000818152600a6020526040902091909155610b7c907f00000000000000000000000000000000000000000000000000000000000000006001600160a01b03169086611e13565b60408051858152905133917f7084f5476618d8e60b11ef0d7d3f06914655adb8793e28ff7f018d4c76d505d5919081900360200190a28215610bc557610bc3336001611115565b505b5060019392505050565b600d546001600160a01b031681565b6000610beb336001611115565b506001905090565b600d54604080516370a0823160e01b81526001600160a01b038481166004830152915160009392909216916370a0823191602480820192602092909190829003018186803b158015610c4457600080fd5b505afa158015610c58573d6000803e3d6000fd5b505050506040513d6020811015610c6e57600080fd5b505192915050565b600b8181548110610c8357fe5b6000918252602090912001546001600160a01b0316905081565b336000908152600a60205260409020546109309082611640565b6000610837826108da565b7f000000000000000000000000000000000000000000000000000000000000000081565b6000336001600160a01b037f00000000000000000000000000000000000000000000000000000000000000001614610d53576040805162461bcd60e51b815260206004820152600b60248201526a08585d5d1a1bdc9a5e995960aa1b604482015290519081900360640190fd5b600454610d61908390611bbd565b91506000544210610d8257610d7582611e65565b506000600455600161083a565b60008054610d9e90610d979062093a80611aa0565b4290611aa0565b60015490915081026000610db88561082b846103e8611afd565b905061033e811015610dd757610dcd85611e65565b6000600455610ddd565b60048590555b506001949350505050565b6000336001600160a01b037f00000000000000000000000000000000000000000000000000000000000000001614610e55576040805162461bcd60e51b815260206004820152600b60248201526a08585d5d1a1bdc9a5e995960aa1b604482015290519081900360640190fd5b6001600160a01b038216610ea2576040805162461bcd60e51b815260206004820152600f60248201526e217265776172642073657474696e6760881b604482015290519081900360640190fd5b50600b8054600181810183556000929092527f0175b7a638427703f0dbe7bb9bbf987a2551717b34e79f33b5b1008d1fa01db90180546001600160a01b0384166001600160a01b0319909116179055919050565b60045481565b61033e81565b60006002600c541415610f5c576040805162461bcd60e51b815260206004820152601f60248201527f5265656e7472616e637947756172643a207265656e7472616e742063616c6c00604482015290519081900360640190fd5b6002600c55600d54610f79906001600160a01b0316333086611db3565b7f00000000000000000000000000000000000000000000000000000000000000006001600160a01b03166343a0d0667f00000000000000000000000000000000000000000000000000000000000000008560006040518463ffffffff1660e01b81526004018084815260200183815260200182151581526020019350505050602060405180830381600087803b15801561101257600080fd5b505af1158015611026573d6000803e3d6000fd5b505050506040513d602081101561103c57600080fd5b505161107a576040805162461bcd60e51b81526020600482015260086024820152670859195c1bdcda5d60c21b604482015290519081900360640190fd5b6110848383611c17565b604080518481526020810185905281516001600160a01b0385169233927fdcbc1c05240f31ff3ad067ef1ee35ce4997762752e3a095284754544f4c709d7929081900390910190a36040805184815290516001600160a01b038416917f9e71bc8eea02a63969f509818f2dafb9254532904319f9dbda79b67bd34a5f3d919081900360200190a250506001600c5590565b60008261112061186f565b60035561112b6113aa565b6002556001600160a01b0381161561117257611146816107cf565b6001600160a01b0382166000908152600960209081526040808320939093556003546008909152919020555b600061117d856107cf565b905080156112c3576001600160a01b038086166000908152600960205260408120556111cc907f0000000000000000000000000000000000000000000000000000000000000000168683611e13565b7f00000000000000000000000000000000000000000000000000000000000000006001600160a01b03166371192b177f000000000000000000000000000000000000000000000000000000000000000087846040518463ffffffff1660e01b815260040180848152602001836001600160a01b031681526020018281526020019350505050600060405180830381600087803b15801561126b57600080fd5b505af115801561127f573d6000803e3d6000fd5b50506040805184815290516001600160a01b03891693507fe2403640ba68fed3a2f88b7557551d1993f84b99bb10ff833f0cf8db0c5e048692509081900360200190a25b8315610ddd5760005b600b5481101561135957600b81815481106112e357fe5b600091825260208220015460408051630c00007b60e41b81526001600160a01b038a811660048301529151919092169263c00007b0926024808201939182900301818387803b15801561133557600080fd5b505af1158015611349573d6000803e3d6000fd5b5050600190920191506112cc9050565b50506001949350505050565b6001600160a01b03166000908152600a602052604090205490565b7f000000000000000000000000000000000000000000000000000000000000000081565b60015481565b600061084942600054611f89565b60086020526000908152604090205481565b6000807f00000000000000000000000000000000000000000000000000000000000000006001600160a01b03166370a08231336040518263ffffffff1660e01b815260040180826001600160a01b0316815260200191505060206040518083038186803b15801561143a57600080fd5b505afa15801561144e573d6000803e3d6000fd5b505050506040513d602081101561146457600080fd5b5051905061147181611493565b50600191505090565b60055481565b600061148c8383610f02565b9392505050565b600061149f8233611c17565b6114d46001600160a01b037f000000000000000000000000000000000000000000000000000000000000000016333085611db3565b60408051838152905133917f9e71bc8eea02a63969f509818f2dafb9254532904319f9dbda79b67bd34a5f3d919081900360200190a2506001919050565b60006002600c54141561156c576040805162461bcd60e51b815260206004820152601f60248201527f5265656e7472616e637947756172643a207265656e7472616e742063616c6c00604482015290519081900360640190fd5b6002600c556001600160a01b0383163314801561159157506001600160a01b03821633145b6115cc576040805162461bcd60e51b815260206004820152600760248201526610b9b2b73232b960c91b604482015290519081900360640190fd5b6115d7846001611640565b50604080518581526020810186905281516001600160a01b0386169233927ff341246adaac6f497bc2a656f546ab9e182111d630394f0c57c710a59a2cb567929081900390910190a350506001600c555090565b6000611638848484611512565b949350505050565b60003361164b61186f565b6003556116566113aa565b6002556001600160a01b0381161561169d57611671816107cf565b6001600160a01b0382166000908152600960209081526040808320939093556003546008909152919020555b60005b600b5481101561173057600b81815481106116b757fe5b60009182526020822001546040805163f3fef3a360e01b81523360048201526024810189905290516001600160a01b039092169263f3fef3a39260448084019382900301818387803b15801561170c57600080fd5b505af1158015611720573d6000803e3d6000fd5b5050600190920191506116a09050565b5060075461173e9085611aa0565b600755336000908152600a602052604090205461175b9085611aa0565b336000818152600a60205260408082209390935582516305335c3960e21b81527f0000000000000000000000000000000000000000000000000000000000000000600482015260248101889052604481019290925291517f00000000000000000000000000000000000000000000000000000000000000006001600160a01b0316926314cd70e4926064808201939182900301818387803b1580156117ff57600080fd5b505af1158015611813573d6000803e3d6000fd5b50506040805187815290513393507f7084f5476618d8e60b11ef0d7d3f06914655adb8793e28ff7f018d4c76d505d592509081900360200190a28215610bc557610bc3336001611115565b600061083782610bf3565b60025481565b6000611879610910565b611886575060035461084c565b6108496118b4611894610910565b61082b670de0b6b3a76400006108256001546108256002546108166113aa565b60035490611bbd565b600061083782611365565b600b5490565b6000610837826118bd565b60035481565b60005481565b7f000000000000000000000000000000000000000000000000000000000000000081565b60006119406001600160a01b037f000000000000000000000000000000000000000000000000000000000000000016333085611db3565b60045461194d9083611bbd565b600455919050565b7f000000000000000000000000000000000000000000000000000000000000000081565b8015806119ff575060408051636eb1769f60e11b81523060048201526001600160a01b03848116602483015291519185169163dd62ed3e91604480820192602092909190829003018186803b1580156119d157600080fd5b505afa1580156119e5573d6000803e3d6000fd5b505050506040513d60208110156119fb57600080fd5b5051155b611a3a5760405162461bcd60e51b81526004018080602001828103825260368152602001806123026036913960400191505060405180910390fd5b604080516001600160a01b038416602482015260448082018490528251808303909101815260649091019091526020810180516001600160e01b031663095ea7b360e01b179052611a8c908490611f9f565b505050565b60606116388484600085612050565b600082821115611af7576040805162461bcd60e51b815260206004820152601e60248201527f536166654d6174683a207375627472616374696f6e206f766572666c6f770000604482015290519081900360640190fd5b50900390565b600082611b0c575060006109be565b82820282848281611b1957fe5b041461148c5760405162461bcd60e51b81526004018080602001828103825260218152602001806122b76021913960400191505060405180910390fd5b6000808211611bac576040805162461bcd60e51b815260206004820152601a60248201527f536166654d6174683a206469766973696f6e206279207a65726f000000000000604482015290519081900360640190fd5b818381611bb557fe5b049392505050565b60008282018381101561148c576040805162461bcd60e51b815260206004820152601b60248201527f536166654d6174683a206164646974696f6e206f766572666c6f770000000000604482015290519081900360640190fd5b80611c2061186f565b600355611c2b6113aa565b6002556001600160a01b03811615611c7257611c46816107cf565b6001600160a01b0382166000908152600960209081526040808320939093556003546008909152919020555b60008311611cc7576040805162461bcd60e51b815260206004820152601b60248201527f526577617264506f6f6c203a2043616e6e6f74207374616b6520300000000000604482015290519081900360640190fd5b60005b600b54811015611d5e57600b8181548110611ce157fe5b6000918252602082200154604080516356e4bb9760e11b81526001600160a01b038781166004830152602482018990529151919092169263adc9772e926044808201939182900301818387803b158015611d3a57600080fd5b505af1158015611d4e573d6000803e3d6000fd5b505060019092019150611cca9050565b50600754611d6c9084611bbd565b6007556001600160a01b0382166000908152600a6020526040902054611d929084611bbd565b6001600160a01b039092166000908152600a60205260409020919091555050565b604080516001600160a01b0380861660248301528416604482015260648082018490528251808303909101815260849091019091526020810180516001600160e01b03166323b872dd60e01b179052611e0d908590611f9f565b50505050565b604080516001600160a01b038416602482015260448082018490528251808303909101815260649091019091526020810180516001600160e01b031663a9059cbb60e01b179052611a8c908490611f9f565b6000611e6f61186f565b600355611e7a6113aa565b6002556001600160a01b03811615611ec157611e95816107cf565b6001600160a01b0382166000908152600960209081526040808320939093556003546008909152919020555b600654611ece9083611bbd565b6006556000544210611eef57611ee78262093a80611b56565b600155611f37565b60008054611efd9042611aa0565b90506000611f1660015483611afd90919063ffffffff16565b9050611f228482611bbd565b9350611f318462093a80611b56565b60015550505b6005829055426002819055611f4f9062093a80611bbd565b6000556040805183815290517fde88a922e0d3b88b24e9623efeb464919c6bf9f66857a65e2bfcf2ce87a9433d9181900360200190a15050565b6000818310611f98578161148c565b5090919050565b6060611ff4826040518060400160405280602081526020017f5361666545524332303a206c6f772d6c6576656c2063616c6c206661696c6564815250856001600160a01b0316611a919092919063ffffffff16565b805190915015611a8c5780806020019051602081101561201357600080fd5b5051611a8c5760405162461bcd60e51b815260040180806020018281038252602a8152602001806122d8602a913960400191505060405180910390fd5b6060824710156120915760405162461bcd60e51b81526004018080602001828103825260268152602001806122916026913960400191505060405180910390fd5b61209a856121ac565b6120eb576040805162461bcd60e51b815260206004820152601d60248201527f416464726573733a2063616c6c20746f206e6f6e2d636f6e7472616374000000604482015290519081900360640190fd5b60006060866001600160a01b031685876040518082805190602001908083835b6020831061212a5780518252601f19909201916020918201910161210b565b6001836020036101000a03801982511681845116808217855250505050505090500191505060006040518083038185875af1925050503d806000811461218c576040519150601f19603f3d011682016040523d82523d6000602084013e612191565b606091505b50915091506121a18282866121b2565b979650505050505050565b3b151590565b606083156121c157508161148c565b8251156121d15782518084602001fd5b8160405162461bcd60e51b81526004018080602001828103825283818151815260200191508051906020019080838360005b8381101561221b578181015183820152602001612203565b50505050905090810190601f1680156122485780820380516001836020036101000a031916815260200191505b509250505060405180910390fd5b50805460008255906000526020600020908101906122749190612277565b50565b5b8082111561228c5760008155600101612278565b509056fe416464726573733a20696e73756666696369656e742062616c616e636520666f722063616c6c536166654d6174683a206d756c7469706c69636174696f6e206f766572666c6f775361666545524332303a204552433230206f7065726174696f6e20646964206e6f7420737563636565645361666545524332303a20617070726f76652066726f6d206e6f6e2d7a65726f20746f206e6f6e2d7a65726f20616c6c6f77616e6365a2646970667358221220259996cdc1985a0491f43789d68e6617e94932862bfc47eb39b350c881f45c3764736f6c634300060c0033416464726573733a20696e73756666696369656e742062616c616e636520666f722063616c6c5361666545524332303a204552433230206f7065726174696f6e20646964206e6f7420737563636565645361666545524332303a20617070726f76652066726f6d206e6f6e2d7a65726f20746f206e6f6e2d7a65726f20616c6c6f77616e636560e060405260008055600060015560006004556000600555600060065534801561002857600080fd5b506040516112543803806112548339818101604052606081101561004b57600080fd5b50805160208201516040909201516001600160601b0319606092831b811660805292821b831660a052901b1660c05260805160601c60a05160601c60c05160601c6111826100d2600039806104d6528061050352508061086752806109425280610a8b52508061041652806104a75280610601528061073552806109e552506111826000f3fe608060405234801561001057600080fd5b50600436106101725760003560e01c80637b0a47ee116100de578063c8f33c9111610097578063ebe2b12b11610071578063ebe2b12b1461031e578063f14faf6f14610326578063f3fef3a314610357578063f7c618c11461038357610172565b8063c8f33c9114610306578063cd3daf9d1461030e578063df136d651461031657610172565b80637b0a47ee1461027657806380faa57d1461027e5780638b87634714610286578063901a7d53146102ac578063adc9772e146102b4578063c00007b0146102e057610172565b80633d18b912116101305780633d18b91214610211578063570ca7351461021b578063590a41f51461022357806363d38c3b146102405780636c8bcee81461024857806370a082311461025057610172565b80628cc262146101775780630700037d146101af5780630fb5a6b4146101d557806318160ddd146101dd578063262d3d6d146101e5578063323a5e0b146101ed575b600080fd5b61019d6004803603602081101561018d57600080fd5b50356001600160a01b031661038b565b60408051918252519081900360200190f35b61019d600480360360208110156101c557600080fd5b50356001600160a01b03166103f9565b61019d61040b565b61019d610412565b61019d61049f565b6101f56104a5565b604080516001600160a01b039092168252519081900360200190f35b6102196104c9565b005b6101f56104d4565b6102196004803603602081101561023957600080fd5b50356104f8565b61019d6105f1565b61019d6105f7565b61019d6004803603602081101561026657600080fd5b50356001600160a01b03166105fd565b61019d61069e565b61019d6106a4565b61019d6004803603602081101561029c57600080fd5b50356001600160a01b03166106b7565b61019d6106c9565b610219600480360360408110156102ca57600080fd5b506001600160a01b0381351690602001356106cf565b610219600480360360208110156102f657600080fd5b50356001600160a01b03166107d9565b61019d6108d3565b61019d6108d9565b61019d610927565b61019d61092d565b6103436004803603602081101561033c57600080fd5b5035610933565b604080519115158252519081900360200190f35b6102196004803603604081101561036d57600080fd5b506001600160a01b03813516906020013561097f565b6101f5610a89565b6001600160a01b03811660009081526008602090815260408083205460079092528220546103f391906103ed90670de0b6b3a7640000906103e7906103d8906103d26108d9565b90610aad565b6103e1886105fd565b90610b0a565b90610b6a565b90610bd1565b92915050565b60086020526000908152604090205481565b62093a8081565b60007f00000000000000000000000000000000000000000000000000000000000000006001600160a01b03166318160ddd6040518163ffffffff1660e01b815260040160206040518083038186803b15801561046d57600080fd5b505afa158015610481573d6000803e3d6000fd5b505050506040513d602081101561049757600080fd5b505190505b90565b60065481565b7f000000000000000000000000000000000000000000000000000000000000000081565b6104d2336107d9565b565b7f000000000000000000000000000000000000000000000000000000000000000081565b336001600160a01b037f00000000000000000000000000000000000000000000000000000000000000001614610563576040805162461bcd60e51b815260206004820152600b60248201526a08585d5d1a1bdc9a5e995960aa1b604482015290519081900360640190fd5b600454610571908290610bd1565b9050600054421061058f5761058581610c2b565b60006004556105ee565b600080546105ab906105a49062093a80610aad565b4290610aad565b600154909150810260006105c5846103e7846103e8610b0a565b905061033e8110156105e4576105da84610c2b565b60006004556105ea565b60048490555b5050505b50565b60045481565b61033e81565b60007f00000000000000000000000000000000000000000000000000000000000000006001600160a01b03166370a08231836040518263ffffffff1660e01b815260040180826001600160a01b0316815260200191505060206040518083038186803b15801561066c57600080fd5b505afa158015610680573d6000803e3d6000fd5b505050506040513d602081101561069657600080fd5b505192915050565b60015481565b60006106b242600054610d4f565b905090565b60076020526000908152604090205481565b60055481565b816106d86108d9565b6003556106e36106a4565b6002556001600160a01b0381161561072a576106fe8161038b565b6001600160a01b0382166000908152600860209081526040808320939093556003546007909152919020555b336001600160a01b037f00000000000000000000000000000000000000000000000000000000000000001614610795576040805162461bcd60e51b815260206004820152600b60248201526a08585d5d1a1bdc9a5e995960aa1b604482015290519081900360640190fd5b6040805183815290516001600160a01b038516917f9e71bc8eea02a63969f509818f2dafb9254532904319f9dbda79b67bd34a5f3d919081900360200190a2505050565b806107e26108d9565b6003556107ed6106a4565b6002556001600160a01b03811615610834576108088161038b565b6001600160a01b0382166000908152600860209081526040808320939093556003546007909152919020555b600061083f8361038b565b905080156108ce576001600160a01b0380841660009081526008602052604081205561088e907f0000000000000000000000000000000000000000000000000000000000000000168483610d65565b6040805182815290516001600160a01b038516917fe2403640ba68fed3a2f88b7557551d1993f84b99bb10ff833f0cf8db0c5e0486919081900360200190a25b505050565b60025481565b60006108e3610412565b6108f0575060035461049c565b6106b261091e6108fe610412565b6103e7670de0b6b3a76400006103e16001546103e16002546103d26106a4565b60035490610bd1565b60035481565b60005481565b600061096a6001600160a01b037f000000000000000000000000000000000000000000000000000000000000000016333085610db7565b6004546109779083610bd1565b600455919050565b816109886108d9565b6003556109936106a4565b6002556001600160a01b038116156109da576109ae8161038b565b6001600160a01b0382166000908152600860209081526040808320939093556003546007909152919020555b336001600160a01b037f00000000000000000000000000000000000000000000000000000000000000001614610a45576040805162461bcd60e51b815260206004820152600b60248201526a08585d5d1a1bdc9a5e995960aa1b604482015290519081900360640190fd5b6040805183815290516001600160a01b038516917f7084f5476618d8e60b11ef0d7d3f06914655adb8793e28ff7f018d4c76d505d5919081900360200190a2505050565b7f000000000000000000000000000000000000000000000000000000000000000081565b600082821115610b04576040805162461bcd60e51b815260206004820152601e60248201527f536166654d6174683a207375627472616374696f6e206f766572666c6f770000604482015290519081900360640190fd5b50900390565b600082610b19575060006103f3565b82820282848281610b2657fe5b0414610b635760405162461bcd60e51b81526004018080602001828103825260218152602001806111026021913960400191505060405180910390fd5b9392505050565b6000808211610bc0576040805162461bcd60e51b815260206004820152601a60248201527f536166654d6174683a206469766973696f6e206279207a65726f000000000000604482015290519081900360640190fd5b818381610bc957fe5b049392505050565b600082820183811015610b63576040805162461bcd60e51b815260206004820152601b60248201527f536166654d6174683a206164646974696f6e206f766572666c6f770000000000604482015290519081900360640190fd5b6000610c356108d9565b600355610c406106a4565b6002556001600160a01b03811615610c8757610c5b8161038b565b6001600160a01b0382166000908152600860209081526040808320939093556003546007909152919020555b600654610c949083610bd1565b6006556000544210610cb557610cad8262093a80610b6a565b600155610cfd565b60008054610cc39042610aad565b90506000610cdc60015483610b0a90919063ffffffff16565b9050610ce88482610bd1565b9350610cf78462093a80610b6a565b60015550505b6005829055426002819055610d159062093a80610bd1565b6000556040805183815290517fde88a922e0d3b88b24e9623efeb464919c6bf9f66857a65e2bfcf2ce87a9433d9181900360200190a15050565b6000818310610d5e5781610b63565b5090919050565b604080516001600160a01b038416602482015260448082018490528251808303909101815260649091019091526020810180516001600160e01b031663a9059cbb60e01b1790526108ce908490610e0d565b604080516001600160a01b0380861660248301528416604482015260648082018490528251808303909101815260849091019091526020810180516001600160e01b03166323b872dd60e01b1790526105ea9085905b6060610e62826040518060400160405280602081526020017f5361666545524332303a206c6f772d6c6576656c2063616c6c206661696c6564815250856001600160a01b0316610ebe9092919063ffffffff16565b8051909150156108ce57808060200190516020811015610e8157600080fd5b50516108ce5760405162461bcd60e51b815260040180806020018281038252602a815260200180611123602a913960400191505060405180910390fd5b6060610ecd8484600085610ed5565b949350505050565b606082471015610f165760405162461bcd60e51b81526004018080602001828103825260268152602001806110dc6026913960400191505060405180910390fd5b610f1f85611031565b610f70576040805162461bcd60e51b815260206004820152601d60248201527f416464726573733a2063616c6c20746f206e6f6e2d636f6e7472616374000000604482015290519081900360640190fd5b60006060866001600160a01b031685876040518082805190602001908083835b60208310610faf5780518252601f199092019160209182019101610f90565b6001836020036101000a03801982511681845116808217855250505050505090500191505060006040518083038185875af1925050503d8060008114611011576040519150601f19603f3d011682016040523d82523d6000602084013e611016565b606091505b5091509150611026828286611037565b979650505050505050565b3b151590565b60608315611046575081610b63565b8251156110565782518084602001fd5b8160405162461bcd60e51b81526004018080602001828103825283818151815260200191508051906020019080838360005b838110156110a0578181015183820152602001611088565b50505050905090810190601f1680156110cd5780820380516001836020036101000a031916815260200191505b509250505060405180910390fdfe416464726573733a20696e73756666696369656e742062616c616e636520666f722063616c6c536166654d6174683a206d756c7469706c69636174696f6e206f766572666c6f775361666545524332303a204552433230206f7065726174696f6e20646964206e6f742073756363656564a26469706673582212208a5680207baf6667a3f2cc1e3b00a0944793d1e48f208dbe2a87ae72e0dc98df64736f6c634300060c0033a26469706673582212202664027b7d57764cc774ce24fa55836a01db655f0702135c1f82be9181f50eb664736f6c634300060c0033",
  "linkReferences": {},
  "deployedLinkReferences": {}
}