{
  "_format": "hh-sol-artifact-1",
  "contractName": "RewardFactory",
  "sourceName": "convex-platform/contracts/contracts/RewardFactory.sol",
  "abi": [
    {
      "inputs": [
        {
          "internalType": "address",
          "name": "_operator",
          "type": "address"
        },
        {
          "internalType": "address",
          "name": "_crv",
          "type": "address"
        }
      ],
      "stateMutability": "nonpayable",
      "type": "constructor"
    },
    {
      "anonymous": false,
      "inputs": [
        {
          "indexed": false,
          "internalType": "address",
          "name": "stash",
          "type": "address"
        },
        {
          "indexed": false,
          "internalType": "bool",
          "name": "hasAccess",
          "type": "bool"
        }
      ],
      "name": "AccessChanged",
      "type": "event"
    },
    {
      "anonymous": false,
      "inputs": [
        {
          "indexed": false,
          "internalType": "address",
          "name": "rewardPool",
          "type": "address"
        },
        {
          "indexed": false,
          "internalType": "uint256",
          "name": "_pid",
          "type": "uint256"
        },
        {
          "indexed": false,
          "internalType": "address",
          "name": "depositToken",
          "type": "address"
        }
      ],
      "name": "RewardPoolCreated",
      "type": "event"
    },
    {
      "anonymous": false,
      "inputs": [
        {
          "indexed": false,
          "internalType": "address",
          "name": "rewardPool",
          "type": "address"
        },
        {
          "indexed": false,
          "internalType": "address",
          "name": "token",
          "type": "address"
        },
        {
          "indexed": false,
          "internalType": "address",
          "name": "mainRewards",
          "type": "address"
        },
        {
          "indexed": false,
          "internalType": "address",
          "name": "operator",
          "type": "address"
        }
      ],
      "name": "TokenRewardPoolCreated",
      "type": "event"
    },
    {
      "inputs": [
        {
          "internalType": "uint256",
          "name": "_pid",
          "type": "uint256"
        },
        {
          "internalType": "address",
          "name": "_depositToken",
          "type": "address"
        },
        {
          "internalType": "address",
          "name": "_lptoken",
          "type": "address"
        }
      ],
      "name": "CreateCrvRewards",
      "outputs": [
        {
          "internalType": "address",
          "name": "",
          "type": "address"
        }
      ],
      "stateMutability": "nonpayable",
      "type": "function"
    },
    {
      "inputs": [
        {
          "internalType": "address",
          "name": "_token",
          "type": "address"
        },
        {
          "internalType": "address",
          "name": "_mainRewards",
          "type": "address"
        },
        {
          "internalType": "address",
          "name": "_operator",
          "type": "address"
        }
      ],
      "name": "CreateTokenRewards",
      "outputs": [
        {
          "internalType": "address",
          "name": "",
          "type": "address"
        }
      ],
      "stateMutability": "nonpayable",
      "type": "function"
    },
    {
      "inputs": [],
      "name": "crv",
      "outputs": [
        {
          "internalType": "address",
          "name": "",
          "type": "address"
        }
      ],
      "stateMutability": "view",
      "type": "function"
    },
    {
      "inputs": [],
      "name": "operator",
      "outputs": [
        {
          "internalType": "address",
          "name": "",
          "type": "address"
        }
      ],
      "stateMutability": "view",
      "type": "function"
    },
    {
      "inputs": [
        {
          "internalType": "address",
          "name": "",
          "type": "address"
        },
        {
          "internalType": "uint256",
          "name": "",
          "type": "uint256"
        }
      ],
      "name": "rewardActiveList",
      "outputs": [
        {
          "internalType": "uint256",
          "name": "",
          "type": "uint256"
        }
      ],
      "stateMutability": "view",
      "type": "function"
    },
    {
      "inputs": [
        {
          "internalType": "address",
          "name": "_stash",
          "type": "address"
        },
        {
          "internalType": "bool",
          "name": "_status",
          "type": "bool"
        }
      ],
      "name": "setAccess",
      "outputs": [],
      "stateMutability": "nonpayable",
      "type": "function"
    }
  ],
  "bytecode": "0x60c060405234801561001057600080fd5b50604051614be1380380614be18339818101604052604081101561003357600080fd5b5080516020909101516001600160601b0319606092831b8116608052911b1660a05260805160601c60a05160601c614b4a610097600039806101da52806102f852508061017a52806101fb52806102d45280610353528061041c5250614b4a6000f3fe608060405234801561001057600080fd5b50600436106100625760003560e01c80632f7260f114610067578063570ca735146100b75780636a4874a1146100bf5780638d9622d9146100c7578063b84614a514610105578063f8d6122e14610135575b600080fd5b61009b6004803603606081101561007d57600080fd5b508035906001600160a01b036020820135811691604001351661016d565b604080516001600160a01b039092168252519081900360200190f35b61009b6102d2565b61009b6102f6565b6100f3600480360360408110156100dd57600080fd5b506001600160a01b03813516906020013561031a565b60408051918252519081900360200190f35b6101336004803603604081101561011b57600080fd5b506001600160a01b0381351690602001351515610348565b005b61009b6004803603606081101561014b57600080fd5b506001600160a01b03813581169160208101358216916040909101351661040f565b6000336001600160a01b037f000000000000000000000000000000000000000000000000000000000000000016146101d4576040805162461bcd60e51b8152602060048201526005602482015264042c2eae8d60db1b604482015290519081900360640190fd5b600084847f00000000000000000000000000000000000000000000000000000000000000007f00000000000000000000000000000000000000000000000000000000000000003087604051610228906105b1565b9586526001600160a01b039485166020870152928416604080870191909152918416606086015283166080850152911660a0830152519081900360c001906000f08015801561027b573d6000803e3d6000fd5b50604080516001600160a01b0380841682526020820189905287168183015290519192507f3da1a39f85ff8081f7aea9e62932968ca8719469f121a56e84afe7c2ab45d1db919081900360600190a1949350505050565b7f000000000000000000000000000000000000000000000000000000000000000081565b7f000000000000000000000000000000000000000000000000000000000000000081565b6001602052816000526040600020818154811061033357fe5b90600052602060002001600091509150505481565b336001600160a01b037f000000000000000000000000000000000000000000000000000000000000000016146103ad576040805162461bcd60e51b8152602060048201526005602482015264042c2eae8d60db1b604482015290519081900360640190fd5b6001600160a01b03821660008181526020818152604091829020805460ff191685151590811790915582519384529083015280517fa4db2f7b38cef7c9aa9b5b2ae37b4a06e94048ba87583a6de6b5fd51e45b29fb9281900390910190a15050565b6000336001600160a01b037f000000000000000000000000000000000000000000000000000000000000000016148061045c57503360009081526020819052604090205460ff1615156001145b610495576040805162461bcd60e51b8152602060048201526005602482015264042c2eae8d60db1b604482015290519081900360640190fd5b60008385846040516104a6906105bf565b6001600160a01b03938416815291831660208301529091166040808301919091525190819003606001906000f0801580156104e5573d6000803e3d6000fd5b5090506000819050846001600160a01b0316635e43c47b826040518263ffffffff1660e01b815260040180826001600160a01b03168152602001915050600060405180830381600087803b15801561053c57600080fd5b505af1158015610550573d6000803e3d6000fd5b5050604080516001600160a01b038086168252808b166020830152808a16828401528816606082015290517fc27fd230b2cc26a634f90e66b9bd9c1568a54452cace74c7a6a985f631813ead9350908190036080019150a195945050505050565b6132f380620005ce83390190565b61125480620038c18339019056fe6101206040526000805560006001556000600455600060055560006006553480156200002a57600080fd5b50604051620032f3380380620032f3833981810160405260c08110156200005057600080fd5b508051602080830151604084015160608086015160808088015160a09889015161010089905286851b6001600160601b0319908116909a5285851b8a1690925282841b891660c0529283901b90971660e0526001600c55600d80546001600160a01b0319166001600160a01b03808a16919091179182905596979496939591949293620000ef92911690859060001990620000fb811b62001eb217901c565b5050505050506200050e565b80158062000185575060408051636eb1769f60e11b81523060048201526001600160a01b03848116602483015291519185169163dd62ed3e91604480820192602092909190829003018186803b1580156200015557600080fd5b505afa1580156200016a573d6000803e3d6000fd5b505050506040513d60208110156200018157600080fd5b5051155b620001c25760405162461bcd60e51b8152600401808060200182810382526036815260200180620032bd6036913960400191505060405180910390fd5b604080516001600160a01b038416602482015260448082018490528251808303909101815260649091019091526020810180516001600160e01b0390811663095ea7b360e01b179091526200021a9185916200021f16565b505050565b60606200027b826040518060400160405280602081526020017f5361666545524332303a206c6f772d6c6576656c2063616c6c206661696c6564815250856001600160a01b0316620002db60201b62001fca179092919060201c565b8051909150156200021a578080602001905160208110156200029c57600080fd5b50516200021a5760405162461bcd60e51b815260040180806020018281038252602a81526020018062003293602a913960400191505060405180910390fd5b6060620002ec8484600085620002f6565b90505b9392505050565b606082471015620003395760405162461bcd60e51b81526004018080602001828103825260268152602001806200326d6026913960400191505060405180910390fd5b62000344856200045e565b62000396576040805162461bcd60e51b815260206004820152601d60248201527f416464726573733a2063616c6c20746f206e6f6e2d636f6e7472616374000000604482015290519081900360640190fd5b60006060866001600160a01b031685876040518082805190602001908083835b60208310620003d75780518252601f199092019160209182019101620003b6565b6001836020036101000a03801982511681845116808217855250505050505090500191505060006040518083038185875af1925050503d80600081146200043b576040519150601f19603f3d011682016040523d82523d6000602084013e62000440565b606091505b5090925090506200045382828662000464565b979650505050505050565b3b151590565b6060831562000475575081620002ef565b825115620004865782518084602001fd5b8160405162461bcd60e51b81526004018080602001828103825283818151815260200191508051906020019080838360005b83811015620004d2578181015183820152602001620004b8565b50505050905090810190601f168015620005005780820380516001836020036101000a031916815260200191505b509250505060405180910390fd5b60805160601c60a05160601c60c05160601c60e05160601c61010051612cb4620005b96000398061140f52806117305280611e2052806127d0525080610a595280610cc152806111ce52508061109d52806110cc528061145252806117015280612807525080610acb5280610d795280610f77528061136852806114eb52806118a552806118f252806119ba5280611b935250806116d85280611e515280611e905250612cb46000f3fe608060405234801561001057600080fd5b50600436106103a35760003560e01c80637050ccd9116101e9578063c32e72021161010f578063d905777e116100ad578063ef8b30f71161007c578063ef8b30f7146104f2578063f1068454146109a1578063f14faf6f146109a9578063f7c618c1146109c6576103a3565b8063d905777e1461093d578063dd62ed3e14610963578063df136d6514610991578063ebe2b12b14610999576103a3565b8063c8f33c91116100e9578063c8f33c91146108ff578063cd3daf9d14610907578063ce96cb771461090f578063d55a23f414610935576103a3565b8063c32e7202146108b4578063c63d75b6146108d9578063c6e6f59214610495576103a3565b8063901a7d5311610187578063a9059cbb11610156578063a9059cbb14610820578063b3d7f6b9146104f2578063b460af941461084c578063ba08765214610880576103a3565b8063901a7d53146107c757806394bf804d146107cf57806395d89b41146107fb578063a694fc3a14610803576103a3565b80637b0a47ee116101c35780637b0a47ee1461078957806380faa57d146107915780638b876347146107995780638dcb4061146107bf576103a3565b80637050ccd91461072d57806370a082311461075b57806372f702f314610781576103a3565b8063313ce567116102ce57806349f039a21161026c5780635e43c47b1161023b5780635e43c47b146106cb57806363d38c3b146106f15780636c8bcee8146106f95780636e553f6514610701576103a3565b806349f039a21461066a5780634cdad50614610689578063570ca735146106a6578063590a41f5146106ae576103a3565b80633d18b912116102a85780633d18b912146106175780633e8b83e31461061f578063402d267d1461062757806340c354461461064d576103a3565b8063313ce567146105cc57806338d07436146105ea57806338d52e0f1461060f576103a3565b80630a28a477116103465780631c1c6fe5116103155780631c1c6fe51461054357806323b872dd14610562578063262d3d6d146105985780632ee40908146105a0576103a3565b80630a28a477146104f25780630f4ef8a61461050f5780630fb5a6b41461053357806318160ddd1461053b576103a3565b806306fdde031161038257806306fdde03146103f25780630700037d1461046f57806307a2d13a14610495578063095ea7b3146104b2576103a3565b80628cc262146103a857806301e1d114146103e05780630569d388146103e8575b600080fd5b6103ce600480360360208110156103be57600080fd5b50356001600160a01b03166109ce565b60408051918252519081900360200190f35b6103ce610a3e565b6103f0610a4e565b005b6103fa610ac7565b6040805160208082528351818301528351919283929083019185019080838360005b8381101561043457818101518382015260200161041c565b50505050905090810190601f1680156104615780820380516001836020036101000a031916815260200191505b509250505060405180910390f35b6103ce6004803603602081101561048557600080fd5b50356001600160a01b0316610c8b565b6103ce600480360360208110156104ab57600080fd5b5035610a4b565b6104de600480360360408110156104c857600080fd5b506001600160a01b038135169060200135610c9d565b604080519115158252519081900360200190f35b6103ce6004803603602081101561050857600080fd5b5035610cb4565b610517610cbf565b604080516001600160a01b039092168252519081900360200190f35b6103ce610ce3565b6103ce610cea565b6103f06004803603602081101561055957600080fd5b50351515610cf4565b6104de6004803603606081101561057857600080fd5b506001600160a01b03813581169160208101359091169060400135610d12565b6103ce610d5a565b6104de600480360360408110156105b657600080fd5b506001600160a01b038135169060200135610d60565b6105d4610de9565b6040805160ff9092168252519081900360200190f35b6104de6004803603604081101561060057600080fd5b50803590602001351515610dee565b610517610ff9565b6104de611008565b6103f061101d565b6103ce6004803603602081101561063d57600080fd5b50356001600160a01b0316611048565b6105176004803603602081101561066357600080fd5b503561104f565b6103f06004803603602081101561068057600080fd5b50351515611076565b6103ce6004803603602081101561069f57600080fd5b5035611090565b61051761109b565b6104de600480360360208110156106c457600080fd5b50356110bf565b6104de600480360360208110156106e157600080fd5b50356001600160a01b03166111c1565b6103ce6112e1565b6103ce6112e7565b6103ce6004803603604081101561071757600080fd5b50803590602001356001600160a01b03166112ed565b6104de6004803603604081101561074357600080fd5b506001600160a01b0381351690602001351515611648565b6103ce6004803603602081101561077157600080fd5b50356001600160a01b0316611898565b6105176118a3565b6103ce6118c7565b6103ce6118cd565b6103ce600480360360208110156107af57600080fd5b50356001600160a01b03166118db565b6104de6118ed565b6103ce61199d565b6103ce600480360360408110156107e557600080fd5b50803590602001356001600160a01b03166119a3565b6103fa6119b6565b6104de6004803603602081101561081957600080fd5b5035611b7a565b6104de6004803603604081101561083657600080fd5b506001600160a01b038135169060200135610d12565b6103ce6004803603606081101561086257600080fd5b508035906001600160a01b0360208201358116916040013516611bf9565b6103ce6004803603606081101561089657600080fd5b508035906001600160a01b0360208201358116916040013516611d2e565b6104de600480360360408110156108ca57600080fd5b50803590602001351515611d43565b6103ce600480360360208110156108ef57600080fd5b50356001600160a01b0316611d6c565b6103ce611d77565b6103ce611d7d565b6103ce6004803603602081101561092557600080fd5b50356001600160a01b0316611dcb565b6103ce611dd6565b6103ce6004803603602081101561095357600080fd5b50356001600160a01b0316611ddc565b6103ce6004803603604081101561097957600080fd5b506001600160a01b0381358116916020013516611de7565b6103ce611e12565b6103ce611e18565b6103ce611e1e565b6104de600480360360208110156109bf57600080fd5b5035611e42565b610517611e8e565b6001600160a01b0381166000908152600960209081526040808320546008909252822054610a369190610a3090670de0b6b3a764000090610a2a90610a1b90610a15611d7d565b90611fd9565b610a2488611898565b90612036565b9061208f565b906120f6565b90505b919050565b6000610a48610cea565b90505b90565b336001600160a01b037f00000000000000000000000000000000000000000000000000000000000000001614610ab9576040805162461bcd60e51b815260206004820152600b60248201526a08585d5d1a1bdc9a5e995960aa1b604482015290519081900360640190fd5b610ac5600b6000612b27565b565b60607f00000000000000000000000000000000000000000000000000000000000000006001600160a01b03166306fdde036040518163ffffffff1660e01b815260040160006040518083038186803b158015610b2257600080fd5b505afa158015610b36573d6000803e3d6000fd5b505050506040513d6000823e601f3d908101601f191682016040526020811015610b5f57600080fd5b8101908080516040519392919084640100000000821115610b7f57600080fd5b908301906020820185811115610b9457600080fd5b8251640100000000811182820188101715610bae57600080fd5b82525081516020918201929091019080838360005b83811015610bdb578181015183820152602001610bc3565b50505050905090810190601f168015610c085780820380516001836020036101000a031916815260200191505b506040525050506040516020018082805190602001908083835b60208310610c415780518252601f199092019160209182019101610c22565b6001836020036101000a03801982511681845116808217855250505050505090500180650815985d5b1d60d21b815250600601915050604051602081830303815290604052905090565b60096020526000908152604090205481565b6000610caa338484612150565b5060015b92915050565b6000610a3682610a4b565b7f000000000000000000000000000000000000000000000000000000000000000081565b62093a8081565b6000610a4861223c565b336000908152600a6020526040902054610d0e9082610dee565b5050565b6040805162461bcd60e51b8152602060048201526016602482015275115490cd0d8c8d8e88139bdd081cdd5c1c1bdc9d195960521b6044820152905160009181900360640190fd5b60065481565b6000610d6c8284612242565b610da16001600160a01b037f0000000000000000000000000000000000000000000000000000000000000000163330856123de565b6040805183815290516001600160a01b038516917f9e71bc8eea02a63969f509818f2dafb9254532904319f9dbda79b67bd34a5f3d919081900360200190a250600192915050565b601290565b600033610df9611d7d565b600355610e046118cd565b6002556001600160a01b03811615610e4b57610e1f816109ce565b6001600160a01b0382166000908152600960209081526040808320939093556003546008909152919020555b60008411610ea0576040805162461bcd60e51b815260206004820152601e60248201527f526577617264506f6f6c203a2043616e6e6f7420776974686472617720300000604482015290519081900360640190fd5b60005b600b54811015610f3357600b8181548110610eba57fe5b60009182526020822001546040805163f3fef3a360e01b81523360048201526024810189905290516001600160a01b039092169263f3fef3a39260448084019382900301818387803b158015610f0f57600080fd5b505af1158015610f23573d6000803e3d6000fd5b505060019092019150610ea39050565b50600754610f419085611fd9565b600755336000908152600a6020526040902054610f5e9085611fd9565b336000818152600a6020526040902091909155610fa6907f00000000000000000000000000000000000000000000000000000000000000006001600160a01b0316908661243e565b60408051858152905133917f7084f5476618d8e60b11ef0d7d3f06914655adb8793e28ff7f018d4c76d505d5919081900360200190a28215610fef57610fed336001611648565b505b5060019392505050565b600d546001600160a01b031681565b6000611015336001611648565b506001905090565b600054421015801561103157506000600454115b15610ac557611041600454612490565b6000600455565b5060001990565b600b818154811061105c57fe5b6000918252602090912001546001600160a01b0316905081565b336000908152600a6020526040902054610d0e9082611d43565b6000610a3682610cb4565b7f000000000000000000000000000000000000000000000000000000000000000081565b6000336001600160a01b037f0000000000000000000000000000000000000000000000000000000000000000161461112c576040805162461bcd60e51b815260206004820152600b60248201526a08585d5d1a1bdc9a5e995960aa1b604482015290519081900360640190fd5b60045461113a9083906120f6565b9150600054421061115b5761114e82612490565b5060006004556001610a39565b60008054611177906111709062093a80611fd9565b4290611fd9565b6001549091508102600061119185610a2a846103e8612036565b905061033e8110156111b0576111a685612490565b60006004556111b6565b60048590555b506001949350505050565b6000336001600160a01b037f0000000000000000000000000000000000000000000000000000000000000000161461122e576040805162461bcd60e51b815260206004820152600b60248201526a08585d5d1a1bdc9a5e995960aa1b604482015290519081900360640190fd5b6001600160a01b03821661127b576040805162461bcd60e51b815260206004820152600f60248201526e217265776172642073657474696e6760881b604482015290519081900360640190fd5b600b54600c1161128d57506000610a39565b50600b8054600181810183556000929092527f0175b7a638427703f0dbe7bb9bbf987a2551717b34e79f33b5b1008d1fa01db90180546001600160a01b0384166001600160a01b0319909116179055919050565b60045481565b61033e81565b60006002600c541415611347576040805162461bcd60e51b815260206004820152601f60248201527f5265656e7472616e637947756172643a207265656e7472616e742063616c6c00604482015290519081900360640190fd5b6002600c55600d54611364906001600160a01b03163330866123de565b60007f00000000000000000000000000000000000000000000000000000000000000006001600160a01b03166370a08231306040518263ffffffff1660e01b815260040180826001600160a01b0316815260200191505060206040518083038186803b1580156113d357600080fd5b505afa1580156113e7573d6000803e3d6000fd5b505050506040513d60208110156113fd57600080fd5b5051604080516321d0683360e11b81527f000000000000000000000000000000000000000000000000000000000000000060048201526024810187905260006044820181905291519293506001600160a01b037f000000000000000000000000000000000000000000000000000000000000000016926343a0d06692606480840193602093929083900390910190829087803b15801561149c57600080fd5b505af11580156114b0573d6000803e3d6000fd5b505050506040513d60208110156114c657600080fd5b5050604080516370a0823160e01b815230600482015290516000916001600160a01b037f000000000000000000000000000000000000000000000000000000000000000016916370a0823191602480820192602092909190829003018186803b15801561153257600080fd5b505afa158015611546573d6000803e3d6000fd5b505050506040513d602081101561155c57600080fd5b505190508461156b8284611fd9565b10156115a9576040805162461bcd60e51b81526020600482015260086024820152670859195c1bdcda5d60c21b604482015290519081900360640190fd5b6115b38585612242565b604080518681526020810187905281516001600160a01b0387169233927fdcbc1c05240f31ff3ad067ef1ee35ce4997762752e3a095284754544f4c709d7929081900390910190a36040805186815290516001600160a01b038616917f9e71bc8eea02a63969f509818f2dafb9254532904319f9dbda79b67bd34a5f3d919081900360200190a250506001600c555090919050565b600082611653611d7d565b60035561165e6118cd565b6002556001600160a01b038116156116a557611679816109ce565b6001600160a01b0382166000908152600960209081526040808320939093556003546008909152919020555b60006116b0856109ce565b905080156117f6576001600160a01b038086166000908152600960205260408120556116ff907f000000000000000000000000000000000000000000000000000000000000000016868361243e565b7f00000000000000000000000000000000000000000000000000000000000000006001600160a01b03166371192b177f000000000000000000000000000000000000000000000000000000000000000087846040518463ffffffff1660e01b815260040180848152602001836001600160a01b031681526020018281526020019350505050600060405180830381600087803b15801561179e57600080fd5b505af11580156117b2573d6000803e3d6000fd5b50506040805184815290516001600160a01b03891693507fe2403640ba68fed3a2f88b7557551d1993f84b99bb10ff833f0cf8db0c5e048692509081900360200190a25b83156111b65760005b600b5481101561188c57600b818154811061181657fe5b600091825260208220015460408051630c00007b60e41b81526001600160a01b038a811660048301529151919092169263c00007b0926024808201939182900301818387803b15801561186857600080fd5b505af115801561187c573d6000803e3d6000fd5b5050600190920191506117ff9050565b50506001949350505050565b6000610a36826125b4565b7f000000000000000000000000000000000000000000000000000000000000000081565b60015481565b6000610a48426000546125cf565b60086020526000908152604090205481565b6000807f00000000000000000000000000000000000000000000000000000000000000006001600160a01b03166370a08231336040518263ffffffff1660e01b815260040180826001600160a01b0316815260200191505060206040518083038186803b15801561195d57600080fd5b505afa158015611971573d6000803e3d6000fd5b505050506040513d602081101561198757600080fd5b5051905061199481611b7a565b50600191505090565b60055481565b60006119af83836112ed565b9392505050565b60607f00000000000000000000000000000000000000000000000000000000000000006001600160a01b03166395d89b416040518163ffffffff1660e01b815260040160006040518083038186803b158015611a1157600080fd5b505afa158015611a25573d6000803e3d6000fd5b505050506040513d6000823e601f3d908101601f191682016040526020811015611a4e57600080fd5b8101908080516040519392919084640100000000821115611a6e57600080fd5b908301906020820185811115611a8357600080fd5b8251640100000000811182820188101715611a9d57600080fd5b82525081516020918201929091019080838360005b83811015611aca578181015183820152602001611ab2565b50505050905090810190601f168015611af75780820380516001836020036101000a031916815260200191505b506040525050506040516020018082805190602001908083835b60208310611b305780518252601f199092019160209182019101611b11565b6001836020036101000a03801982511681845116808217855250505050505090500180650b5d985d5b1d60d21b815250600601915050604051602081830303815290604052905090565b6000611b868233612242565b611bbb6001600160a01b037f0000000000000000000000000000000000000000000000000000000000000000163330856123de565b60408051838152905133917f9e71bc8eea02a63969f509818f2dafb9254532904319f9dbda79b67bd34a5f3d919081900360200190a2506001919050565b60006002600c541415611c53576040805162461bcd60e51b815260206004820152601f60248201527f5265656e7472616e637947756172643a207265656e7472616e742063616c6c00604482015290519081900360640190fd5b6002600c55336001600160a01b03831614611cba57611cba8233611cb5876040518060600160405280602c8152602001612bac602c91396001600160a01b0388166000908152600e6020908152604080832033845290915290205491906125e5565b612150565b611cc584838561267c565b50816001600160a01b0316836001600160a01b0316336001600160a01b03167ffbde797d201c681b91056529119e0b02407c7bb96a4a2c75c01fc9667232c8db8788604051808381526020018281526020019250505060405180910390a450506001600c555090565b6000611d3b848484611bf9565b949350505050565b6000611d5083333361267c565b508115610caa57611d62336001611648565b5050600192915050565b6000610a3682611048565b60025481565b6000611d87610cea565b611d945750600354610a4b565b610a48611dc2611da2610cea565b610a2a670de0b6b3a7640000610a24600154610a24600254610a156118cd565b600354906120f6565b6000610a3682611898565b600b5490565b6000610a3682611dcb565b6001600160a01b039182166000908152600e6020908152604080832093909416825291909152205490565b60035481565b60005481565b7f000000000000000000000000000000000000000000000000000000000000000081565b6000611e796001600160a01b037f0000000000000000000000000000000000000000000000000000000000000000163330856123de565b600454611e8690836120f6565b600455919050565b7f000000000000000000000000000000000000000000000000000000000000000081565b801580611f38575060408051636eb1769f60e11b81523060048201526001600160a01b03848116602483015291519185169163dd62ed3e91604480820192602092909190829003018186803b158015611f0a57600080fd5b505afa158015611f1e573d6000803e3d6000fd5b505050506040513d6020811015611f3457600080fd5b5051155b611f735760405162461bcd60e51b8152600401808060200182810382526036815260200180612c496036913960400191505060405180910390fd5b604080516001600160a01b038416602482015260448082018490528251808303909101815260649091019091526020810180516001600160e01b031663095ea7b360e01b179052611fc59084906128ae565b505050565b6060611d3b848460008561295f565b600082821115612030576040805162461bcd60e51b815260206004820152601e60248201527f536166654d6174683a207375627472616374696f6e206f766572666c6f770000604482015290519081900360640190fd5b50900390565b60008261204557506000610cae565b8282028284828161205257fe5b04146119af5760405162461bcd60e51b8152600401808060200182810382526021815260200180612bd86021913960400191505060405180910390fd5b60008082116120e5576040805162461bcd60e51b815260206004820152601a60248201527f536166654d6174683a206469766973696f6e206279207a65726f000000000000604482015290519081900360640190fd5b8183816120ee57fe5b049392505050565b6000828201838110156119af576040805162461bcd60e51b815260206004820152601b60248201527f536166654d6174683a206164646974696f6e206f766572666c6f770000000000604482015290519081900360640190fd5b6001600160a01b0383166121955760405162461bcd60e51b8152600401808060200182810382526026815260200180612bf96026913960400191505060405180910390fd5b6001600160a01b0382166121da5760405162461bcd60e51b8152600401808060200182810382526024815260200180612b626024913960400191505060405180910390fd5b6001600160a01b038084166000818152600e6020908152604080832094871680845294825291829020859055815185815291517f8c5be1e5ebec7d5bd14f71427d1e84f3dd0314c0f7b2291e5b200ac8c7c3b9259281900390910190a3505050565b60075490565b8061224b611d7d565b6003556122566118cd565b6002556001600160a01b0381161561229d57612271816109ce565b6001600160a01b0382166000908152600960209081526040808320939093556003546008909152919020555b600083116122f2576040805162461bcd60e51b815260206004820152601b60248201527f526577617264506f6f6c203a2043616e6e6f74207374616b6520300000000000604482015290519081900360640190fd5b60005b600b5481101561238957600b818154811061230c57fe5b6000918252602082200154604080516356e4bb9760e11b81526001600160a01b038781166004830152602482018990529151919092169263adc9772e926044808201939182900301818387803b15801561236557600080fd5b505af1158015612379573d6000803e3d6000fd5b5050600190920191506122f59050565b5060075461239790846120f6565b6007556001600160a01b0382166000908152600a60205260409020546123bd90846120f6565b6001600160a01b039092166000908152600a60205260409020919091555050565b604080516001600160a01b0380861660248301528416604482015260648082018490528251808303909101815260849091019091526020810180516001600160e01b03166323b872dd60e01b1790526124389085906128ae565b50505050565b604080516001600160a01b038416602482015260448082018490528251808303909101815260649091019091526020810180516001600160e01b031663a9059cbb60e01b179052611fc59084906128ae565b600061249a611d7d565b6003556124a56118cd565b6002556001600160a01b038116156124ec576124c0816109ce565b6001600160a01b0382166000908152600960209081526040808320939093556003546008909152919020555b6006546124f990836120f6565b600655600054421061251a576125128262093a8061208f565b600155612562565b600080546125289042611fd9565b905060006125416001548361203690919063ffffffff16565b905061254d84826120f6565b935061255c8462093a8061208f565b60015550505b600582905542600281905561257a9062093a806120f6565b6000556040805183815290517fde88a922e0d3b88b24e9623efeb464919c6bf9f66857a65e2bfcf2ce87a9433d9181900360200190a15050565b6001600160a01b03166000908152600a602052604090205490565b60008183106125de57816119af565b5090919050565b600081848411156126745760405162461bcd60e51b81526004018080602001828103825283818151815260200191508051906020019080838360005b83811015612639578181015183820152602001612621565b50505050905090810190601f1680156126665780820380516001836020036101000a031916815260200191505b509250505060405180910390fd5b505050900390565b600082612687611d7d565b6003556126926118cd565b6002556001600160a01b038116156126d9576126ad816109ce565b6001600160a01b0382166000908152600960209081526040808320939093556003546008909152919020555b60005b600b5481101561277057600b81815481106126f357fe5b60009182526020822001546040805163f3fef3a360e01b81526001600160a01b038981166004830152602482018b90529151919092169263f3fef3a3926044808201939182900301818387803b15801561274c57600080fd5b505af1158015612760573d6000803e3d6000fd5b5050600190920191506126dc9050565b5060075461277e9086611fd9565b6007556001600160a01b0384166000908152600a60205260409020546127a49086611fd9565b6001600160a01b038086166000908152600a60205260408082209390935582516305335c3960e21b81527f0000000000000000000000000000000000000000000000000000000000000000600482015260248101899052868316604482015292517f0000000000000000000000000000000000000000000000000000000000000000909216926314cd70e4926064808301939282900301818387803b15801561284c57600080fd5b505af1158015612860573d6000803e3d6000fd5b50506040805188815290516001600160a01b03881693507f7084f5476618d8e60b11ef0d7d3f06914655adb8793e28ff7f018d4c76d505d592509081900360200190a2506001949350505050565b6060612903826040518060400160405280602081526020017f5361666545524332303a206c6f772d6c6576656c2063616c6c206661696c6564815250856001600160a01b0316611fca9092919063ffffffff16565b805190915015611fc55780806020019051602081101561292257600080fd5b5051611fc55760405162461bcd60e51b815260040180806020018281038252602a815260200180612c1f602a913960400191505060405180910390fd5b6060824710156129a05760405162461bcd60e51b8152600401808060200182810382526026815260200180612b866026913960400191505060405180910390fd5b6129a985612abb565b6129fa576040805162461bcd60e51b815260206004820152601d60248201527f416464726573733a2063616c6c20746f206e6f6e2d636f6e7472616374000000604482015290519081900360640190fd5b60006060866001600160a01b031685876040518082805190602001908083835b60208310612a395780518252601f199092019160209182019101612a1a565b6001836020036101000a03801982511681845116808217855250505050505090500191505060006040518083038185875af1925050503d8060008114612a9b576040519150601f19603f3d011682016040523d82523d6000602084013e612aa0565b606091505b5091509150612ab0828286612ac1565b979650505050505050565b3b151590565b60608315612ad05750816119af565b825115612ae05782518084602001fd5b60405162461bcd60e51b8152602060048201818152845160248401528451859391928392604401919085019080838360008315612639578181015183820152602001612621565b5080546000825590600052602060002090810190612b459190612b48565b50565b5b80821115612b5d5760008155600101612b49565b509056fe455243343632363a20617070726f766520746f20746865207a65726f2061646472657373416464726573733a20696e73756666696369656e742062616c616e636520666f722063616c6c455243343632363a207769746864726177616c20616d6f756e74206578636565647320616c6c6f77616e6365536166654d6174683a206d756c7469706c69636174696f6e206f766572666c6f77455243343632363a20617070726f76652066726f6d20746865207a65726f20616464726573735361666545524332303a204552433230206f7065726174696f6e20646964206e6f7420737563636565645361666545524332303a20617070726f76652066726f6d206e6f6e2d7a65726f20746f206e6f6e2d7a65726f20616c6c6f77616e6365a26469706673582212206073bf697654336e6bc7d442c6b4b23f5c5326fac8347ad011db72febcd851d764736f6c634300060c0033416464726573733a20696e73756666696369656e742062616c616e636520666f722063616c6c5361666545524332303a204552433230206f7065726174696f6e20646964206e6f7420737563636565645361666545524332303a20617070726f76652066726f6d206e6f6e2d7a65726f20746f206e6f6e2d7a65726f20616c6c6f77616e636560e060405260008055600060015560006004556000600555600060065534801561002857600080fd5b506040516112543803806112548339818101604052606081101561004b57600080fd5b50805160208201516040909201516001600160601b0319606092831b811660805292821b831660a052901b1660c05260805160601c60a05160601c60c05160601c6111826100d2600039806104d6528061050352508061086752806109425280610a8b52508061041652806104a75280610601528061073552806109e552506111826000f3fe608060405234801561001057600080fd5b50600436106101725760003560e01c80637b0a47ee116100de578063c8f33c9111610097578063ebe2b12b11610071578063ebe2b12b1461031e578063f14faf6f14610326578063f3fef3a314610357578063f7c618c11461038357610172565b8063c8f33c9114610306578063cd3daf9d1461030e578063df136d651461031657610172565b80637b0a47ee1461027657806380faa57d1461027e5780638b87634714610286578063901a7d53146102ac578063adc9772e146102b4578063c00007b0146102e057610172565b80633d18b912116101305780633d18b91214610211578063570ca7351461021b578063590a41f51461022357806363d38c3b146102405780636c8bcee81461024857806370a082311461025057610172565b80628cc262146101775780630700037d146101af5780630fb5a6b4146101d557806318160ddd146101dd578063262d3d6d146101e5578063323a5e0b146101ed575b600080fd5b61019d6004803603602081101561018d57600080fd5b50356001600160a01b031661038b565b60408051918252519081900360200190f35b61019d600480360360208110156101c557600080fd5b50356001600160a01b03166103f9565b61019d61040b565b61019d610412565b61019d61049f565b6101f56104a5565b604080516001600160a01b039092168252519081900360200190f35b6102196104c9565b005b6101f56104d4565b6102196004803603602081101561023957600080fd5b50356104f8565b61019d6105f1565b61019d6105f7565b61019d6004803603602081101561026657600080fd5b50356001600160a01b03166105fd565b61019d61069e565b61019d6106a4565b61019d6004803603602081101561029c57600080fd5b50356001600160a01b03166106b7565b61019d6106c9565b610219600480360360408110156102ca57600080fd5b506001600160a01b0381351690602001356106cf565b610219600480360360208110156102f657600080fd5b50356001600160a01b03166107d9565b61019d6108d3565b61019d6108d9565b61019d610927565b61019d61092d565b6103436004803603602081101561033c57600080fd5b5035610933565b604080519115158252519081900360200190f35b6102196004803603604081101561036d57600080fd5b506001600160a01b03813516906020013561097f565b6101f5610a89565b6001600160a01b03811660009081526008602090815260408083205460079092528220546103f391906103ed90670de0b6b3a7640000906103e7906103d8906103d26108d9565b90610aad565b6103e1886105fd565b90610b0a565b90610b6a565b90610bd1565b92915050565b60086020526000908152604090205481565b62093a8081565b60007f00000000000000000000000000000000000000000000000000000000000000006001600160a01b03166318160ddd6040518163ffffffff1660e01b815260040160206040518083038186803b15801561046d57600080fd5b505afa158015610481573d6000803e3d6000fd5b505050506040513d602081101561049757600080fd5b505190505b90565b60065481565b7f000000000000000000000000000000000000000000000000000000000000000081565b6104d2336107d9565b565b7f000000000000000000000000000000000000000000000000000000000000000081565b336001600160a01b037f00000000000000000000000000000000000000000000000000000000000000001614610563576040805162461bcd60e51b815260206004820152600b60248201526a08585d5d1a1bdc9a5e995960aa1b604482015290519081900360640190fd5b600454610571908290610bd1565b9050600054421061058f5761058581610c2b565b60006004556105ee565b600080546105ab906105a49062093a80610aad565b4290610aad565b600154909150810260006105c5846103e7846103e8610b0a565b905061033e8110156105e4576105da84610c2b565b60006004556105ea565b60048490555b5050505b50565b60045481565b61033e81565b60007f00000000000000000000000000000000000000000000000000000000000000006001600160a01b03166370a08231836040518263ffffffff1660e01b815260040180826001600160a01b0316815260200191505060206040518083038186803b15801561066c57600080fd5b505afa158015610680573d6000803e3d6000fd5b505050506040513d602081101561069657600080fd5b505192915050565b60015481565b60006106b242600054610d4f565b905090565b60076020526000908152604090205481565b60055481565b816106d86108d9565b6003556106e36106a4565b6002556001600160a01b0381161561072a576106fe8161038b565b6001600160a01b0382166000908152600860209081526040808320939093556003546007909152919020555b336001600160a01b037f00000000000000000000000000000000000000000000000000000000000000001614610795576040805162461bcd60e51b815260206004820152600b60248201526a08585d5d1a1bdc9a5e995960aa1b604482015290519081900360640190fd5b6040805183815290516001600160a01b038516917f9e71bc8eea02a63969f509818f2dafb9254532904319f9dbda79b67bd34a5f3d919081900360200190a2505050565b806107e26108d9565b6003556107ed6106a4565b6002556001600160a01b03811615610834576108088161038b565b6001600160a01b0382166000908152600860209081526040808320939093556003546007909152919020555b600061083f8361038b565b905080156108ce576001600160a01b0380841660009081526008602052604081205561088e907f0000000000000000000000000000000000000000000000000000000000000000168483610d65565b6040805182815290516001600160a01b038516917fe2403640ba68fed3a2f88b7557551d1993f84b99bb10ff833f0cf8db0c5e0486919081900360200190a25b505050565b60025481565b60006108e3610412565b6108f0575060035461049c565b6106b261091e6108fe610412565b6103e7670de0b6b3a76400006103e16001546103e16002546103d26106a4565b60035490610bd1565b60035481565b60005481565b600061096a6001600160a01b037f000000000000000000000000000000000000000000000000000000000000000016333085610db7565b6004546109779083610bd1565b600455919050565b816109886108d9565b6003556109936106a4565b6002556001600160a01b038116156109da576109ae8161038b565b6001600160a01b0382166000908152600860209081526040808320939093556003546007909152919020555b336001600160a01b037f00000000000000000000000000000000000000000000000000000000000000001614610a45576040805162461bcd60e51b815260206004820152600b60248201526a08585d5d1a1bdc9a5e995960aa1b604482015290519081900360640190fd5b6040805183815290516001600160a01b038516917f7084f5476618d8e60b11ef0d7d3f06914655adb8793e28ff7f018d4c76d505d5919081900360200190a2505050565b7f000000000000000000000000000000000000000000000000000000000000000081565b600082821115610b04576040805162461bcd60e51b815260206004820152601e60248201527f536166654d6174683a207375627472616374696f6e206f766572666c6f770000604482015290519081900360640190fd5b50900390565b600082610b19575060006103f3565b82820282848281610b2657fe5b0414610b635760405162461bcd60e51b81526004018080602001828103825260218152602001806111026021913960400191505060405180910390fd5b9392505050565b6000808211610bc0576040805162461bcd60e51b815260206004820152601a60248201527f536166654d6174683a206469766973696f6e206279207a65726f000000000000604482015290519081900360640190fd5b818381610bc957fe5b049392505050565b600082820183811015610b63576040805162461bcd60e51b815260206004820152601b60248201527f536166654d6174683a206164646974696f6e206f766572666c6f770000000000604482015290519081900360640190fd5b6000610c356108d9565b600355610c406106a4565b6002556001600160a01b03811615610c8757610c5b8161038b565b6001600160a01b0382166000908152600860209081526040808320939093556003546007909152919020555b600654610c949083610bd1565b6006556000544210610cb557610cad8262093a80610b6a565b600155610cfd565b60008054610cc39042610aad565b90506000610cdc60015483610b0a90919063ffffffff16565b9050610ce88482610bd1565b9350610cf78462093a80610b6a565b60015550505b6005829055426002819055610d159062093a80610bd1565b6000556040805183815290517fde88a922e0d3b88b24e9623efeb464919c6bf9f66857a65e2bfcf2ce87a9433d9181900360200190a15050565b6000818310610d5e5781610b63565b5090919050565b604080516001600160a01b038416602482015260448082018490528251808303909101815260649091019091526020810180516001600160e01b031663a9059cbb60e01b1790526108ce908490610e0d565b604080516001600160a01b0380861660248301528416604482015260648082018490528251808303909101815260849091019091526020810180516001600160e01b03166323b872dd60e01b1790526105ea9085905b6060610e62826040518060400160405280602081526020017f5361666545524332303a206c6f772d6c6576656c2063616c6c206661696c6564815250856001600160a01b0316610ebe9092919063ffffffff16565b8051909150156108ce57808060200190516020811015610e8157600080fd5b50516108ce5760405162461bcd60e51b815260040180806020018281038252602a815260200180611123602a913960400191505060405180910390fd5b6060610ecd8484600085610ed5565b949350505050565b606082471015610f165760405162461bcd60e51b81526004018080602001828103825260268152602001806110dc6026913960400191505060405180910390fd5b610f1f85611031565b610f70576040805162461bcd60e51b815260206004820152601d60248201527f416464726573733a2063616c6c20746f206e6f6e2d636f6e7472616374000000604482015290519081900360640190fd5b60006060866001600160a01b031685876040518082805190602001908083835b60208310610faf5780518252601f199092019160209182019101610f90565b6001836020036101000a03801982511681845116808217855250505050505090500191505060006040518083038185875af1925050503d8060008114611011576040519150601f19603f3d011682016040523d82523d6000602084013e611016565b606091505b5091509150611026828286611037565b979650505050505050565b3b151590565b60608315611046575081610b63565b8251156110565782518084602001fd5b8160405162461bcd60e51b81526004018080602001828103825283818151815260200191508051906020019080838360005b838110156110a0578181015183820152602001611088565b50505050905090810190601f1680156110cd5780820380516001836020036101000a031916815260200191505b509250505060405180910390fdfe416464726573733a20696e73756666696369656e742062616c616e636520666f722063616c6c536166654d6174683a206d756c7469706c69636174696f6e206f766572666c6f775361666545524332303a204552433230206f7065726174696f6e20646964206e6f742073756363656564a2646970667358221220818e3b907310ec2d911af5daa283622c5e04934a947f88ce5e9c77b49b0e8c2a64736f6c634300060c0033a2646970667358221220be6890480439b9e38e3e55f0638b32881b2601d02086d0025ddd6bee6b6a689364736f6c634300060c0033",
  "linkReferences": {},
  "deployedLinkReferences": {}
}